S01C00002E2E2F526F626F7444657369676E50726F6A6563742E73313916
S32D0000C00000000020419501009D9801009D9801009D9801009D9801009D9801000000000000000000000000000D
S32D0000C028000000009D9801009D980100000000009D9801009D9801009D9801009D9801009D9801009D9801003A
S32D0000C0509D9801009D9801009D9801009D9801009D9801009D9801009D9801009D9801009D9801009D980100A6
S32D0000C0789D9801009D9801009D9801009D9801009D9801009D9801009D9801009D9801009D9801009D9801007E
S32D0000C0A09D9801009D9801009D9801009D9801009D9801009D9801009D9801009D9801009D9801009D98010056
S32D0000C0C89D9801009D9801009D9801009D9801009D9801009D9801009D9801009D9801009D9801009D9801002E
S32D0000C0F09D9801009D0402009D9801009D9801009D9801009D9801009D9801009D9801009D9801009D98010099
S32D0000C1189D9801009D9801009D9801009D9801009D9801009D9801009D9801009D9801009D9801009D980100DD
S32D0000C1409D9801009D9801009D9801009D9801001DCC01009D9801009D9801009D9801009D9801009D98010001
S32D0000C1689D9801009D9801009D9801009D9801009D9801009D9801009D9801009D9801009D9801009D9801008D
S32D0000C1909D9801009D9801009D980100D1C6010025C50100F9C50100ED980100A9C701009D9801009D9801003A
S32D0000C1B89D9801009D9801009D9801009D9801009D9801009D9801009D9801009D9801009D9801009D9801003D
S32D0000C41081F0004102E000BF83F0004330B54FEA41044FEA430594EA050F08BF90EA020F1FBF54EA000C55EAC6
S32D0000C438020C7FEA645C7FEA655C00F0E2804FEA5454D4EB5555B8BF6D420CDD2C4480EA020281EA030382EA0F
S32D0000C460000083EA010180EA020281EA0303362D88BF30BD11F0004F4FEA01314FF4801C4CEA113102D0404263
S32D0000C48861EB410113F0004F4FEA03334CEA133302D0524263EB430394EA050F00F0A780A4F10104D5F1200E8A
S32D0000C4B00DDB02FA0EFC22FA05F2801841F1000103FA0EF2801843FA05F359410EE0A5F120050EF1200E012A2D
S32D0000C4D803FA0EFC28BF4CF0020C43FA05F3C01851EBE37101F0004507D54FF0000EDCF1000C7EEB00006EEB67
S32D0000C5000101B1F5801F1BD3B1F5001F0CD349085FEA30004FEA3C0C04F101044FEA445212F5800F80F09A8000
S32D0000C528BCF1004F08BF5FEA500C50F1000041EB045141EA050130BD5FEA4C0C404141EB010111F4801FA4F114
S32D0000C5500104E9D191F0000F04BF01460020B1FA81F308BF2033A3F10B03B3F120020CDA0C3208DD02F1140C87
S32D0000C578C2F10C0201FA0CF021FA02F10CE002F11402D8BFC2F1200C01FA02F120FA0CFCDCBF41EA0C019040B1
S32D0000C5A0E41AA2BF01EB0451294330BD6FEA04041F3C1CDA0C340EDC04F11404C4F1200220FA04F001FA02F3B6
S32D0000C5C840EA030021FA04F345EA030130BDC4F10C04C4F1200220FA02F001FA04F340EA0300294630BD21FAA8
S32D0000C5F004F0294630BD94F0000F83F4801306BF81F480110134013D4EE77FEA645C18BF7FEA655C29D094EA1C
S32D0000C618050F08BF90EA020F05D054EA000C04BF1946104630BD91EA030F1EBF0021002030BD5FEA545C05D1A3
S32D0000C6404000494128BF41F0004130BD14F580043CBF01F5801130BD01F0004545F0FE4141F470014FF0000031
S32D0000C66830BD7FEA645C1ABF194610467FEA655C1CBF0B46024650EA013406BF52EA033591EA030F41F40021D7
S32D0000C69030BD00BF90F0000F04BF0021704730B54FF4806404F132044FF000054FF0000150E700BF90F0000F66
S32D0000C6B804BF0021704730B54FF4806404F1320410F0004548BF40424FF000013EE700BF42004FEAE2014FEAF9
S32D0000C6E031014FEA02701FBF12F07F4393F07F4F81F06051704792F0000F14BF93F07F4F704730B54FF460741B
S32D0000C70801F0004521F0004120E700BF50EA010208BF704730B54FF000050AE050EA010208BF704730B511F046
S32D0000C730004502D5404261EB41014FF4806404F132045FEA915C3FF4DCAE4FF003025FEADC0C18BF03325FEAA0
S32D0000C758DC0C18BF033202EBDC02C2F1200300FA03FC20FA02F001FA03FE40EA0E0021FA02F11444C1E600BF19
S32D0000C78070B54FF0FF0C4CF4E06C1CEA11541DBF1CEA135594EA0C0F95EA0C0F00F0DEF82C4481EA030621EAF3
S32D0000C7A84C5123EA4C5350EA013518BF52EA033541F4801143F4801338D0A0FB02CE4FF00005E1FB02E506F05F
S32D0000C7D00042E0FB03E54FF00006E1FB03569CF0000F18BF4EF0010EA4F1FF04B6F5007F64F5407404D25FEA0F
S32D0000C7F84E0E6D4146EB060642EAC62141EA55514FEAC52040EA5E504FEACE2EB4F1FD0C88BFBCF5E06F1ED8D2
S32D0000C820BEF1004F08BF5FEA500E50F1000041EB045170BD06F0004646EA010140EA020081EA0301B4EB5C0487
S32D0000C848C2BFD4EB0C0541EA045170BD41F480114FF0000E013C00F3AB8014F1360FDEBF002001F0004170BDF0
S32D0000C870C4F10004203C35DA0C341BDC04F11404C4F1200500FA05F320FA04F001FA05F240EA020001F0004207
S32D0000C89821F0004110EBD37021FA04F642EB06015EEA430E08BF20EAD37070BDC4F10C04C4F1200500FA04F32F
S32D0000C8C020FA05F001FA04F240EA020001F0004110EBD37041F100015EEA430E08BF20EAD37070BDC4F12005C7
S32D0000C8E800FA05F24EEA020E20FA04F301FA05F243EA020321FA04F001F0004121FA04F220EA020000EBD37028
S32D0000C9105EEA430E08BF20EAD37070BD94F0000F0FD101F00046400041EB010111F4801F08BF013CF7D041EA6D
S32D0000C938060195F0000F18BF704703F00046520043EB030313F4801F08BF013DF7D043EA0603704794EA0C0FF1
S32D0000C9600CEA135518BF95EA0C0F0CD050EA410618BF52EA4306D1D181EA030101F000414FF0000070BD50EA38
S32D0000C988410606BF1046194652EA430619D094EA0C0F02D150EA013613D195EA0C0F05D152EA03361CBF10467B
S32D0000C9B019460AD181EA030101F0004141F0FE4141F470014FF0000070BD41F0FE4141F4780170BD70B54FF04D
S32D0000C9D8FF0C4CF4E06C1CEA11541DBF1CEA135594EA0C0F95EA0C0F00F0A7F8A4EB050481EA030E52EA03359B
S32D0000CA004FEA013100F088804FEA03334FF0805545EA131343EA12634FEA022245EA111545EA10654FEA002676
S32D0000CA280EF000419D4208BF964244F1FD0404F5407402D25B084FEA3202B61A65EB03055B084FEA32024FF461
S32D0000CA5080104FF4002CB6EB020E75EB030E22BFB61A754640EA0C005B084FEA3202B6EB020E75EB030E22BF22
S32D0000CA78B61A754640EA5C005B084FEA3202B6EB020E75EB030E22BFB61A754640EA9C005B084FEA3202B6EBEA
S32D0000CAA0020E75EB030E22BFB61A754640EADC0055EA060E18D04FEA051545EA16754FEA06164FEAC30343EAAC
S32D0000CAC852734FEAC2025FEA1C1CC0D111F4801F0BD141EA00014FF000004FF0004CB6E711F4801F04BF0143AE
S32D0000CAF00020B4F1FD0C88BFBCF5E06F3FF6AFAEB5EB030C04BFB6EB020C5FEA500C50F1000041EB045170BDBC
S32D0000CB180EF0004E4EEA113114EB5C04C2BFD4EB0C0541EA045170BD41F480114FF0000E013C90E645EA060EC3
S32D0000CB408DE60CEA135594EA0C0F08BF95EA0C0F3FF43BAF94EA0C0F0AD150EA01347FF434AF95EA0C0F7FF499
S32D0000CB6825AF104619462CE795EA0C0F06D152EA03353FF4FDAE1046194622E750EA410618BF52EA43067FF432
S32D0000CB90C5AE50EA41047FF40DAF52EA43057FF4EBAE12E74FF0FF3C06E000BF4FF0010C02E000BF4FF0010C75
S32D0000CBB84DF804CD4FEA410C7FEA6C5C4FEA430C18BF7FEA6C5C1BD001B050EA410C0CBF52EA430C91EA030FEC
S32D0000CBE002BF90EA020F0020704710F1000F91EA030F58BF994208BF90422CBFD8176FEAE37040F0010070476E
S32D0000CC084FEA410C7FEA6C5C02D150EA013C07D14FEA430C7FEA6C5CD6D152EA033CD3D05DF8040B704700BFCD
S32D0000CC308446104662468C461946634600E000BF01B5FFF7B7FF002848BF10F1000F01BD4DF808EDFFF7F4FF13
S32D0000CC580CBF012000205DF808FB00BF4DF808EDFFF7EAFF34BF012000205DF808FB00BF4DF808EDFFF7E0FF18
S32D0000CC8094BF012000205DF808FB00BF4DF808EDFFF7CEFF94BF012000205DF808FB00BF4DF808EDFFF7C4FF40
S32D0000CCA834BF012000205DF808FB00BF4FEA410212F5001215D211D56FF47873B3EB625212D94FEAC12343F0D6
S32D0000CCD0004343EA505311F0004F23FA02F018BF404270474FF00000704750EA013005D111F0004008BF6FF016
S32D0000CCF8004070474FF00000704700BF4A0011D212F5001211D20DD56FF47873B3EB62520ED44FEAC12343F085
S32D0000CD20004343EA505323FA02F070474FF00000704750EA013002D14FF0FF3070474FF0000070474FEA410241
S32D0000CD48B2F1E04324BFB3F5001CDCF1FE5C0DD901F0004C4FEAC0024CEA5070B2F1004F40EB830008BF20F09E
S32D0000CD700100704711F0804F21D113F13872BCBF01F00040704741F480114FEA5252C2F11802C2F1200C10FAB1
S32D0000CD980CF320FA02F018BF40F001004FEAC1234FEAD32303FA0CFC40EA0C0023FA02F34FEA4303CCE77FEA26
S32D0000CDC0625307D150EA01331EBF4FF0FE4040F44000704701F0004040F0FE4040F40000704700BF80F00040CC
S32D0000CDE802E000BF81F0004142001FBF5FEA410392EA030F7FEA226C7FEA236C6AD04FEA1262D2EB1363C1BF06
S32D0000CE10D218414048404140B8BF5B42192B88BF704710F0004F40F4000020F07F4018BF404211F0004F41F4FA
S32D0000CE38000121F07F4118BF494292EA030F3FD0A2F1010241FA03FC10EB0C00C3F1200301FA03F100F000432B
S32D0000CE6002D5494260EB4000B0F5000F13D3B0F1807F06D340084FEA310102F10102FE2A51D2B1F1004F40EB94
S32D0000CE88C25008BF20F0010040EA03007047490040EB000010F4000FA2F10102EDD1B0FA80FCACF1080CB2EB5F
S32D0000CEB00C0200FA0CF0AABF00EBC25052421843BCBFD0401843704792F0000F81F4000106BF80F400000132EB
S32D0000CED8013BB5E74FEA41037FEA226C18BF7FEA236C21D092EA030F04D092F0000F08BF0846704790EA010FD7
S32D0000CF001CBF0020704712F07F4F04D1400028BF40F00040704712F100723CBF00F50000704700F0004343F0DC
S32D0000CF28FE4040F4000070477FEA226216BF08467FEA23630146420206BF5FEA412390EA010F40F480007047C1
S32D0000CF504FF0000304E000BF10F0004348BF40425FEA000C08BF704743F0964301464FF000001CE050EA010264
S32D0000CF7808BF70474FF000030AE000BF50EA010208BF704711F0004302D5404261EB41015FEA010C02BF84465B
S32D0000CFA00146002043F0B64308BFA3F18053A3F50003BCFA8CF2083AA3EBC25310DB01FA02FC634400FA02FC6B
S32D0000CFC8C2F12002BCF1004F20FA02F243EB020008BF20F00100704702F1200201FA02FCC2F1200250EA4C0034
S32D0000CFF021FA02F243EB020008BF20EADC7070474FF0FF0C1CEAD0521EBF1CEAD15392EA0C0F93EA0C0F6FD019
S32D0000D0181A4480EA010C400218BF5FEA41211ED04FF0006343EA501043EA5111A0FB01310CF00040B1F5000FE7
S32D0000D0403EBF490041EAD3715B0040EA010062F17F02FD2A1DD8B3F1004F40EBC25008BF20F00100704790F058
S32D0000D068000F0CF0004C08BF49024CEA502040EA51207F3AC2BFD2F1FF0340EAC250704740F400004FF0000388
S32D0000D090013A5DDC12F1190FDCBF00F000407047C2F10002410021FA02F1C2F1200200FA02FC5FEA310040F1D5
S32D0000D0B8000053EA4C0308BF20EADC70704792F0000F00F0004C02BF400010F4000F013AF9D040EA0C0093F04C
S32D0000D0E0000F01F0004C02BF490011F4000F013BF9D041EA0C018FE70CEAD15392EA0C0F18BF93EA0C0F0AD00B
S32D0000D10830F0004C18BF31F0004CD8D180EA010000F00040704790F0000F17BF90F0004F084691F0000F91F0BB
S32D0000D130004F14D092EA0C0F01D142020FD193EA0C0F03D14B0218BF084608D180EA010000F0004040F0FE4051
S32D0000D15840F40000704740F0FE4040F4400070474FF0FF0C1CEAD0521EBF1CEAD15392EA0C0F93EA0C0F69D044
S32D0000D180A2EB030280EA010C49024FEA402037D04FF0805343EA111143EA10130CF000408B4238BF5B0042F14E
S32D0000D1A87D024FF4000C8B4224BF5B1A40EA0C00B3EB510F24BFA3EB510340EA5C00B3EB910F24BFA3EB9103A4
S32D0000D1D040EA9C00B3EBD10F24BFA3EBD10340EADC001B0118BF5FEA1C1CE0D1FD2A3FF650AF8B4240EBC25018
S32D0000D1F808BF20F0010070470CF0004C4CEA50207F32C2BFD2F1FF0340EAC250704740F400004FF00003013AF1
S32D0000D22037E792F0000F00F0004C02BF400010F4000F013AF9D040EA0C0093F0000F01F0004C02BF490011F4C9
S32D0000D248000F013BF9D041EA0C0195E70CEAD15392EA0C0F08D142027FF47DAF93EA0C0F7FF470AF084676E7AE
S32D0000D27093EA0C0F04D14B023FF44CAF08466EE730F0004C18BF31F0004CCAD130F000427FF45CAF31F0004376
S32D0000D2987FF43CAF5FE700BF4FF0FF3C06E000BF4FF0010C02E000BF4FF0010C4DF804CD4FEA40024FEA41039F
S32D0000D2C07FEA226C18BF7FEA236C11D001B052EA530C18BF90EA010F58BFB2EB030088BFC81738BF6FEAE1706E
S32D0000D2E818BF40F0010070477FEA226C02D15FEA402C05D17FEA236CE4D15FEA412CE1D05DF8040B704700BF16
S32D0000D310844608466146FFE70FB5FFF7C9FF002848BF10F1000F0FBD4DF808EDFFF7F4FF0CBF012000205DF839
S32D0000D33808FB00BF4DF808EDFFF7EAFF34BF012000205DF808FB00BF4DF808EDFFF7E0FF94BF012000205DF8A9
S32D0000D36008FB00BF4DF808EDFFF7D2FF94BF012000205DF808FB00BF4DF808EDFFF7C8FF34BF012000205DF8B1
S32D0000D38808FB00BF4FEA4002B2F1FE4F0FD34FF09E03B3EB12620DD94FEA002343F0004310F0004F23FA02F060
S32D0000D3B018BF404270474FF00000704712F1610F01D1420205D110F0004008BF6FF0004070474FF00000704797
S32D0000D3D8036803B11B181846704700BF03685A004CBF43F0004323F00043C018704700BF2DE9F84F0446914699
S32D0000D40041B301F1FF3BDA46002707EB0A0101EBD1756D1004EBC5063046FFF7E3FF8046681CAB4504EBC000FA
S32D0000D4280DD0FFF7DBFF0138C84504D9BD4209D005F1FF3AE5E7484505D26F1CE1E74FF0FF30F1E7002630469A
S32D0000D450BDE8F88F0E463046BDE8F88F30B52B4B83B004468D1E002B49D0284601A9AFF300800346002822D028
S32D0000D4782A4618460199FFF7BBFF054600281DD0FFF7ACFF6B68A064012B10D0281D002B22DBFFF7A3FF002164
S32D0000D4A0E06421650368002B0FDBFFF79BFF2061002003B030BD002323610520F9E720610920F6E72061092066
S32D0000D4C8F3E7C3F3036058B101280CD002280ED0002020610920E8E70122E0642265DDE7094B2361E1E7094AEF
S32D0000D4F000202261DDE7084900202161D9E7074B0749C81AC2100192B6E700BF0000000029DA000025DA0000AD
S32D0000D51821DA0000948A0200848C0200036810B50446D80706D4990704F1480009D500F00DFD23685A0709D506
S32D0000D54018070ED5D90613D510BD00F0FBFC23685A07F5D404F1D00000F004FD23681807F0D404F5D87000F036
S32D0000D56805FD2368D906EBD404F50C70BDE8104000F040BD2DE9F0470F1D054691460FCFADF5916D02AC261D09
S32D0000D5900FC60FCF0FC60FCF0FC697E80F00D5F80C80D5F818A0002786E80F00216C27602846FFF753FF06460C
S32D0000D5B8B94514BF4FF00A094FF00909FEB1A16B49F01009616401208DE8100449462A462B46C04700282BD1BA
S32D0000D5E0002E2AD1204692A94FF4107217F0ECFE082F28D1216C2846FFF730FF06464FF00909002EDFD1206C46
S32D0000D60821464FF41072686192A817F0D9FE2F69294692AA4846B847A09B0746636401208DE8100449462A461F
S32D0000D6302B46C0470028D3D00926304622B00DF5806DBDE8F087072FF6D1201D00F06EFC38B504460D46296C54
S32D0000D6582046FFF7FFFE50B92A6C23696261012021462A4698470828F1D0072801D019F0EDFF281D00F056FC19
S32D0000D68011B933B10220704704298CBF0220012070470F2A01D90220704700EB820118464A68009B1A6070474D
S32D0000D6A810B50A4684B000210B4603AC0094FFF7E3FF039804B010BD11B933B10220704704298CBF0220012020
S32D0000D6D070470F2A01D902207047009900EB8202096818465160704710B584B004AB0C4643F8042D0021009330
S32D0000D6F822460B46FFF7E0FF04B010BD2DE9F04FCD6C8BB00C4655F8041B174600F008021E46039200F0030823
S32D0000D7200795002B40F0CF8009020691216D8DF821300323B8F1020F8DF8203008BFA56B11F0010340F0D3807B
S32D0000D748019304F158030293D5F80090B9F1000F00F0CB80022E00F0AE80B5F80090B5F802A00435A26C0F2198
S32D0000D7702AF0010B38469344FFF796FF834518D829F0010CE3440AF0010A09F00103584543EA4A092CBF002056
S32D0000D7980120B9F1010F12D032D2B8F1000F02D0002840F01D810435CEE70AF0010A09F0010343EA4A09002092
S32D0000D7C0B9F1010FECD1B8F1000F40F0B680C8B16B68D5F800909A1C19D0029A013309920DD0281DFFF7F8FDE6
S32D0000D7E84FEAD972014609AB204618F099FF002800F0F280099A002A40F0BA800835A3E7B9F1020F03D009204F
S32D0000D8100BB0BDE8F08F2B6823F000420092B8F1000F71D1002843D00398002840F0A1800098002800F0A08078
S32D0000D838009BDDF80C90DB0705F1040A40F1B480CDF810800596A846029E12E000998D4200F0D9800996FFF7B5
S32D0000D860BBFD5A46014609AB204618F05DFFA946B0B90AF1040A05F1010950460996FFF7ABFD09AB014600222C
S32D0000D888204618F04DFF0AF1040A834609F101055046BBF1000FD9D04546059EDDF81080009A4A4564D02B6869
S32D0000D8B0002B7BDB0099481C05EB800548E7D5F804A0083552E70B04C1F30740216D06930222B8F1020F05EB42
S32D0000D8D8800508BFA56B8DF8210011F001038DF820203FF42DAF00200190384606A900F019FC002887D1019A49
S32D0000D900002A43D1082083E70D213846D4F82090FFF7CAFE8145CAD1A26A9542C7D10098291D00220423A0623E
S32D0000D928E26223636163286800286EDB01220192BCE70D213846D4F82090FFF7B1FE81457FF45CAFA16A8D42FE
S32D0000D9507FF458AF2846FFF745FD0F2102463846FFF7C2FE384600212246FFF7BDFE07204EE7009900299BD19B
S32D0000D97838460D21FFF794FE099B20626362A562062041E70F213846FFF78AFE0E2102463846FFF7A5FE3846D5
S32D0000D9A00F211E4AFFF7A0FE072031E7043581E7029950460991FFF70FFD039A014609AB204618F0B1FE0028A3
S32D0000D9C87FF46EAFCDF8108005960AF1040A4FF00109A846029E4CE7CDF824800835B3E62846FFF7FBFC0435CB
S32D0000D9F00646A563204618F00DFF00283FF407AF38460F213246FFF76FFE072000E74546B2E7009B591C05EB6F
S32D0000DA1881009CE77D69020002236FE601236DE600236BE62DE9F0470446E8B004290CD8DFE801F03803919338
S32D0000DA400F00150C012B96B200F07881052B00F0C780022068B0BDE8F087002BF9D1102AF7D82368D90600F115
S32D0000DA68738164A8019200F0CFFA019AA36BD00744BF53F8040B6490910744BF53F8041B6591500744BF53F8D3
S32D0000DA90041B6691110748BF53F8042B64A8A36348BF679200F0AAFA0020D3E7002BD0D1A36BD00791B244BF42
S32D0000DAB853F8042B62608A0744BF53F8042BA260480744BF53F8042BE2600A0744BF53F8042B2261C80644BF04
S32D0000DAE053F8042B62618A0644BF53F8042BA261480644BF53F8042BE2610A0644BF53F8042B2262C80544BFDC
S32D0000DB0853F8042B62628A0544BF53F8042BA262480544BF53F8042BE2620A0544BF53F8042B2263C80444BFB3
S32D0000DB3053F8042B626311F400501CBF53F8042BA2634A0444BF53F8042BE2630A0444BF53F8042B2264002890
S32D0000DB5840D1A3637AE7012078E7032B7FF475AF160C95B2AA19102A3FF66FAF2368180700F10B8144A800F026
S32D0000DB801BFAA76B4FEA450E3B460DB344A90EF1FF3C01EBC60653F8040B62460CF0010146F8040B92B129B13A
S32D0000DBA853F8041B013A46F8041B0BD01846314650F8045B41F8045B5D68031D75600E1D023AF3D107EB8E03F6
S32D0000DBD044A8A36300F0CEF900203BE7002039E777192022BA42FFF434AF012B00F0A9800F2D40F2A9803746FF
S32D0000DBF8F6B1052B7FF429AF0F2D11D82268D0070ED522F00101052B2160204600F0DA8022F0030240F8482B3D
S32D0000DC20019300F093F9019B1FB12268510700F1B880012B00F0BF800F2D75D9002F40F0A080D4F83890002E29
S32D0000DC48C8462EDD49460DF1080A4FEA46080AEBC50251F8046B08F1FF3000F0010A42F8046BA8F1020CD0B107
S32D0000DC70BAF1000F08D051F8040B0CF1FF3CBCF1FF3F42F8040B0ED00E46104656F804AB40F804AB4968ACF176
S32D0000DC98020C5160311D021DBCF1FF3FF0D109EB8808A7B3102D2CBF2E4610260DF5D079414609EBC60CACF59D
S32D0000DCC0C8724FEA470951F8046B09F1FF3000F0010A42F8046BA9F1020CD0B1BAF1000F08D051F8040B0CF1DE
S32D0000DCE8FF3CBCF1FF3F42F8040B0ED00E46104656F804AB40F804AB4968ACF1020C5160311D021DBCF1FF3FCE
S32D0000DD10F0D108EB8908012B2BD00F2DC4F8388008D9FFB9384695E602A8019300F016F9019B83E702A800F05A
S32D0000DD380DF9F2E77719102250E70F2D3FF685AE102F10D9103F54E723F01003236004F50C70019200F058F99D
S32D0000DD60019A82E624A800F0FDF8002072E6002746E708F1040302A8A36300F0E3F8002068E624A80193C5F116
S32D0000DD88100600F0EFF8019B57E723F0080704F5D870276000F00CF9ECE6204622F0040140F8D01B019300F0D1
S32D0000DDB0DDF8019B3DE702A8019300F0C7F8019B002F3FF43EAFC5F110063AE741F0020140F8481B019300F098
S32D0000DDD8C1F8019B24E700BF406C7047F0B50D460F1DC96B296404460FCFADF5117D01AE0FC60FCF0FC60FCF49
S32D0000DE000FC697E80F0086E80F004FF0FF33009310992046FFF722FB58B9266921466A46B04708280646F3D001
S32D0000DE286846FFF77BFB062E03D009200DF5117DF0BD20462946FFF707FC00BF10B4DC6BC16082611946002228
S32D0000DE501C6410BCFFF792BB38B54269C3680A6404460D4623B10122FFF788FB19F0F2FB0369214602202A467C
S32D0000DE789847072803D0082804D019F0E7FB281D00F050F820462946FFF7DEFBC36823B1CA6B0A640022FFF7D1
S32D0000DEA06DBB9FE7704700BF08B5836801460BB10120984708BD00BFF0B5D46B171D146405460C460FCFADF554
S32D0000DEC8277D01AE0FC60FCF0FC60FCF0FC697E80F0086E80F004FF0FF330093109990A8FFF7B8FA034690AA83
S32D0000DEF068460C21BBB9FFF7F7FB21466846A847064690A908206A466EB9949B98470528064601D00928E5D106
S32D0000DF186846FFF703FB30460DF5277DF0BD0926F6E700BF00F1340191E838009C46A6464CF8045D90E8FF0FD5
S32D0000DF40E54600BD90EC210B704700BF80EC210B704700BF90EC200B704700BF80EC200B704700BFD0EC200B8E
S32D0000DF68704700BFC0EC200B704700BFF0EC0201F0EC0211F0EC0221F0EC0231F0EC0241F0EC0251F0EC02615F
S32D0000DF90F0EC0271F0EC0281F0EC0291F0EC02A1F0EC02B1F0EC02C1F0EC02D1F0EC02E1F0EC02F1704700BFE6
S32D0000DFB8E0EC0201E0EC0211E0EC0221E0EC0231E0EC0241E0EC0251E0EC0261E0EC0271E0EC0281E0EC029155
S32D0000DFE0E0EC02A1E0EC02B1E0EC02C1E0EC02D1E0EC02E1E0EC02F1704700BFB0FC0181B0FC0191B0FC01A159
S32D0000E008B0FC01B1704700BFA0FC0181A0FC0191A0FC01A1A0FC01B1704700BFEC4600B52DE900502DE9FF1F47
S32D0000E0304FF000032DE90C0001A9FFF7D3FEDDF840E012B0704700BFEC4600B52DE900502DE9FF1F4FF00003FD
S32D0000E0582DE90C0001A9FFF7FBFEDDF840E012B0704700BFEC4600B52DE900502DE9FF1F4FF000032DE90C00CD
S32D0000E08001A9FFF707FFDDF840E012B0704700BFEC4600B52DE900502DE9FF1F4FF000032DE90C0001ABFFF718
S32D0000E0A8CDFEDDF840E012B0704700BFEC4600B52DE900502DE9FF1F4FF000032DE90C0001AAFFF7F5FEDDF804
S32D0000E0D040E012B0704700BF027A03461AB9427A42B9B02070470068013A01021A72000E196070474168501E6D
S32D0000E0F8587251F8040B0322596001021A72000E1960704710B5002184B00C220DEB02040B460094FFF7B0FA62
S32D0000E120039804B010BD00BFF0E700BF2DE9F043064685B00D464FF000094FF47F672846FFF7CAFFB028044683
S32D0000E14800F0B08010F0800120D000F0F003802B74D0902B37D0A02B45D0B02B56D0C02B00F0858000F0F800DB
S32D0000E170D0280BD104F00702511C41F40022304601210523FFF752FC0028D8D0092005B0BDE8F0834FEA800267
S32D0000E19803A85FFA82F800900D220B463046FFF76BFA039B600608F104084CBFC8EB0303434403AC03930094CD
S32D0000E1C0002130460D220B46FFF77AFAB7E700F00F020D2ADAD00F2AD8D0002103AC009430460B4603ACFFF77F
S32D0000E1E84BFA0094E8E7C24302F0070C47FA0CF0210700F47F6248BF42F48042002130460B46FFF70FFC00280D
S32D0000E210BCD194E7B1285DD0B2286ED0B32800F0958000F0FC02B42A46D000F00702531C43F40022012130469F
S32D0000E2380B46FFF7F7FB0028A4D17CE72846FFF747FF210240EA0104B4F5004F9AD0230500211A0C30460B46EB
S32D0000E2602401FFF7E3FB002890D114F4004F18BF4FF0010963E7C62873D0C72800F0848000F0F802C02A00F075
S32D0000E2889280C82800F0A680C9287FF47BAF2846FFF71EFF00F00F0300F0F0015A1C42EA013268E7B9F1000F81
S32D0000E2B000F0838000206AE700F00301481C022140F480220B463046FFF7B0FB00287FF45DAF34E72846FFF7FD
S32D0000E2D8FFFE024600283FF455AF10F0F0017FF451AF30460B46FFF79DFB00287FF44AAF21E700210D220B467E
S32D0000E30003AC30460094FFF7BBF92846FFF7E4FE022402060DD5039B00F07F0000FA04FE03EB0E01284603912E
S32D0000E328FFF7D6FE07340306F1D4039B00F07F0103AA03F5017C01FA04F400920CEB0402039239E72846FFF729
S32D0000E350C3FE00F00F03591C00F0F00041EA003268E72846FFF7B8FE00F00F03591C00F0F00041EA00320321E9
S32D0000E37830460B46FFF756FB00287FF403AFDAE62846FFF7A5FE024600283FF4FBAE10F0F0037FF4F7AE304688
S32D0000E3A00421FFF743FB00287FF4F0AEC7E600F00F01481C40F42022DDE703AC49460E224B4630460094FFF773
S32D0000E3C85BF9304649460F224B460094FFF774F94846D8E62846FFF77BFE00F0F00200F00F001032431C43EA3D
S32D0000E3F00232C4E610B5C26C84B0032054688DF80C00D37924020832084601A9019402928DF80D30FFF78AFE7D
S32D0000E41804B010BD08B5FFF783FE806C08BD00BF08B5FFF77DFEC16CC87901EB800303F1080008BD08B519F01F
S32D0000E44009F900BF08B519F005F900BF80B483B000AF78607B68064A1A607B68044A5A607B68184607F10C0798
S32D0000E468BD4680BC704700BF00000000B0B582B000AF78607B6803F104031D464FF0070406E02846FFF7DEFF01
S32D0000E49005F1080504F1FF34B4F1FF3F0CBF00230123DBB2002BF0D17B68184607F10807BD46B0BD80B582B0A6
S32D0000E4B800AF78607B681846FFF7C4FF7B6803F108031846FFF7BEFF7B6803F110031846FFF7B8FF7B6803F1F6
S32D0000E4E018031846FFF7B2FF7B68184607F10807BD4680BD80B582B000AF78607B681846FFF7A4FF7B6803F1C7
S32D0000E50808031846FFF79EFF7B6803F110031846FFF798FF7B6803F118031846FFF792FF7B68184607F10807F5
S32D0000E530BD4680BD80B582B000AF78607B681846FFF784FF7B6803F108031846FFF77EFF7B6803F110031846DA
S32D0000E558FFF778FF7B6803F118031846FFF772FF7B6803F120031846FFF76CFF7B6803F128031846FFF766FFFD
S32D0000E5807B68184607F10807BD4680BD80B582B000AF78607B681846FFF758FF7B6803F108031846FFF752FFE2
S32D0000E5A87B6803F118031846FFF760FF7B6803F15C031846FFF75AFF7B6803F1A0031846FFF740FF7B6803F1D9
S32D0000E5D0A8031846FFF73AFF7B6803F1B4031846FFF734FF7B68184607F10807BD4680BDB0B582B000AF78602A
S32D0000E5F87B681846FFF726FF7B6803F108031846FFF720FF7B6803F118031846FFF71AFF7B6803F12403184689
S32D0000E620FFF714FF7B6803F12C031846FFF70EFF7B6803F14C031846FFF71CFF7B6803F190031846FFF716FFF4
S32D0000E6487B6803F1D4031846FFF750FF7B6803F582731846FFF72AFF7B6803F594731D464FF0070406E0284623
S32D0000E670FFF78CFF05F1BC0504F1FF34B4F1FF3F0CBF00230123DBB2002BF0D17B6803F5E1631D464FF00504E4
S32D0000E69806E02846FFF74AFF05F1340504F1FF34B4F1FF3F0CBF00230123DBB2002BF0D17B68184607F10807B4
S32D0000E6C0BD46B0BD80B582B000AF786039607B68012B0AD13A684FF6FF739A4205D141F23010C1F6FF70FFF7B1
S32D0000E6E883FF07F10807BD4680BD00BF80B500AF4FF001004FF6FF71FFF7E0FF80BD00BF80B582B000AF7860E4
S32D0000E710786813F0E1FA0346184607F10807BD4680BD00BF80B582B000AF7860786813F0F3FB0346184607F112
S32D0000E7380807BD4680BD00BF80B582B000AF7860786813F031FC0346184607F10807BD4680BD00BF80B582B093
S32D0000E76000AF786039603868FEF7F6FB03467868194613F08BFC0346184607F10807BD4680BD00BF80B483B0BF
S32D0000E78800AF78607B6823F00043184607F10C07BD4680BC704700BF80B485B000AFF860B9607A60FB68BA689D
S32D0000E7B01A60FB687A685A60FB68184607F11407BD4680BC704700BFB0B582B000AF78607B681B6818464FF018
S32D0000E7D800024FF080430AF095FD04460D467B685B6818464FF000024FF080430AF08AFD02460B4620462946B0
S32D0000E800FDF70CFE02460B461046194613F040FC02460B4610461946FEF794FA0346184607F10807BD46B0BD70
S32D0000E82890B589B000AF786039603868FFF7C8FF0346FB617868FFF705FEF8691B49FEF76FFD0346002B0ED0D1
S32D0000E85007F10C0318461749164AFFF7A1FF7B6807F10C0292E8030083E803001CE03B681B681846F969FEF734
S32D0000E87877FC03461C463B685B681846F969FEF76FFC034607F11402104621461A46FFF783FF7B6807F11402F1
S32D0000E8A092E8030083E80300786807F12407BD4690BD00BF0000000080B584B000AF78607B681B681846FEF7A4
S32D0000E8C861FD0346FB607B685B6883F000427B681A60F868FEF73CFB02467B685A6007F11007BD4680BD00BFE9
S32D0000E8F090B587B000AF786039603868FDF7ECFE02460B461046194627A3D3E90023FDF737FF02460B461046D0
S32D0000E9181946FEF713FA03467B617B681B683B617B685B68FB607869FFF7F8FE034618463969FEF761FB034698
S32D0000E9401C467869FFF7FCFE03461846F968FEF757FB034620461946FEF748FA03461A467B681A607869FFF705
S32D0000E968EBFE034618463969FEF746FB03461C467869FFF7D3FE03461846F968FEF73CFB034620461946FEF78F
S32D0000E9902FFA03461A467B685A6007F11C07BD4690BD00BFAFF30080439852A246DF913F90B585B000AF7860D9
S32D0000E9B87B681A687B685B6810461946FEF7D0FB03461846FFF79CFE034683F000431846FDF77EFE02460B4614
S32D0000E9E01046194616A3D3E90023FDF7F3FF02460B4610461946FEF7A5F90346FB607B685B684FF0010214460F
S32D0000EA0818460F49FEF7A0FC0346002B02D14FF000031C46E3B2002B05D0F8680949FEF7E3F90346FB60FB688F
S32D0000EA30184607F11407BD4690BD00BFAFF30080439852A246DF913F000000000000344380B584B000AF7860EB
S32D0000EA587868FFF7A9FF0346FB60F86800F006F8FB68184607F11007BD4680BD90B583B000AF78604FF00103CE
S32D0000EA801C4678681749FEF76DFC0346002B02D14FF000031C46E3B2002B06D078681149FEF7A4F903467B60F7
S32D0000EAA815E04FF001031C4678680D49FEF742FC0346002B02D14FF000031C46E3B2002B05D078680549FEF79A
S32D0000EAD08FF903467B607B68184607F10C07BD4690BD00BF0000B443000000000000000080B582B000AF78602C
S32D0000EAF839603868FDF7ECFD02460B46104619460DA3D3E90023FDF737FE02460B461046194613F08DFA0246B4
S32D0000EB200B4610461946FEF70DF90346786806491A46FFF735FE786807F10807BD4680BD439852A246DF913FDA
S32D0000EB480000803FAFF30080B0B584B000AF07F1080484E80300394681E80C003A68BB6810461946FEF73EF969
S32D0000EB70034618464FF000024FF080430AF0C6FB04460D467A68FB6810461946FEF72EF9034618464FF0000237
S32D0000EB984FF080430AF0B6FB02460B4620462946FDF738FC02460B461046194613F06CFA02460B461046194607
S32D0000EBC0FEF7C0F80346184607F11007BD46B0BD80B485B000AFF860B9607A60FB68BA681A60FB687A685A60F3
S32D0000EBE8FB68184607F11407BD4680BC704700BF80B483B000AF78607B684FF000021A607B684FF000025A600C
S32D0000EC107B68184607F10C07BD4680BC704700BFB0B5A0B002AFF860FB681846FFF70EFCFB6803F10803184696
S32D0000EC38FFF708FCFB6803F110031846FFF702FCFB6803F118031846FFF7FCFBFB6803F120031846FFF7F6FB7C
S32D0000EC60FB6803F128031846FFF7F0FBFB6803F130031846FFF7EAFBFB6803F138031846FFF7E4FBFB6803F1E6
S32D0000EC8840031846FFF7DEFBFB6803F148031846FFF7D8FBFB6803F150031846FFF7D2FBFB6803F1580318464A
S32D0000ECB0FFF7CCFBFB6803F160031846FFF7C6FBFB6803F168031846FFF7C0FBFB6803F170031846FFF7BAFB06
S32D0000ECD8FB6803F178031846FFF7B4FBFB6803F180031846FFF7AEFBFB6803F188031846FFF7A8FBFB6803F132
S32D0000ED0090031846FFF7A2FB07F110031846D049D04AFFF745FDFB6807F1100292E8030083E8030007F1180322
S32D0000ED281846CB49C94AFFF737FDFB6803F1080307F1180292E8030083E8030007F120031846C249C04AFFF72B
S32D0000ED5027FDFB6803F1100307F1200292E8030083E8030007F128031846BA49BA4AFFF717FDFB6803F11803FE
S32D0000ED7807F1280292E8030083E80300B0A3D3E90023C7E91C23D7E91C01FDF7D7FF034683F0004307F130026F
S32D0000EDA010461946AA4AFFF7FBFCFC683A4607F1300310461946FFF737FD04F128033A4692E8030083E8030036
S32D0000EDC807F138031846A1499F4AFFF7E5FCFC683A4607F1380310461946FFF721FD04F130033A4692E80300DD
S32D0000EDF083E8030007F1400318469849944AFFF7CFFCFC683A4607F1400310461946FFF70BFD04F138033A46EC
S32D0000EE1892E8030083E8030007F1480318468D498B4AFFF7B9FCFC683A4607F1480310461946FFF7F5FC04F132
S32D0000EE4040033A4692E8030083E8030007F1500318468049804AFFF7A3FCFC683A4607F1500310461946FFF74B
S32D0000EE68DFFC04F148033A4692E8030083E80300D7E91C01FDF762FF034683F0004307F1580210461946724A02
S32D0000EE90FFF786FCFC683A4607F1580310461946FFF7C2FC04F120033A4692E8030083E8030007F16003184600
S32D0000EEB86849654AFFF770FCFB6803F1800307F1600292E8030083E8030007F16803184660495F4AFFF760FCE6
S32D0000EEE0FB6803F1880307F1680292E8030083E80300FC683A46FB68F9686D4601F1280103C985E803001046CD
S32D0000EF08F96803F120030CCB00F01EF904F150033A4692E8030083E80300FC683A46FB68F9686D4601F1300154
S32D0000EF3003C985E803001046F96803F128030CCB00F006F904F158033A4692E8030083E80300FC683A46FB68D9
S32D0000EF58F9686D4601F1380103C985E803001046F96803F130030CCB00F0EEF804F160033A4692E8030083E8C5
S32D0000EF800300FC683A46FB68F9686D4601F1400103C985E803001046F96803F138030CCB00F0D6F804F16803BB
S32D0000EFA83A4692E8030083E80300FC683A46FB68F9686D4601F1480103C985E803001046F96803F140030CCB39
S32D0000EFD000F0BEF804F170033A4692E8030083E80300FC683A46FB68F9686D4601F1200103C985E8030010469A
S32D0000EFF8F96803F148030CCB00F0A6F804F178033A4692E8030083E80300FC683A46FB68F9686D4601F1880135
S32D0000F02003C985E803001046F96803F180030CCB00F08EF804F190033A4692E8030083E80300FB6818460BE06C
S32D0000F048AA4C58E87AB6FB3F0000803F00000000000080BFD7B3DD3F07F17807BD46B0BD80B584B000AF78607F
S32D0000F07039603B68FB607B6803F120031846F968FFF736FC7B6803F128031846F968FFF72FFC7B6803F130030E
S32D0000F0981846F968FFF728FC7B6803F138031846F968FFF721FC7B6803F140031846F968FFF71AFC7B6803F1D1
S32D0000F0C048031846F968FFF713FC7B6803F150031846F968FFF70CFC7B6803F158031846F968FFF705FC7B6861
S32D0000F0E803F160031846F968FFF7FEFB7B6803F168031846F968FFF7F7FB7B6803F170031846F968FFF7F0FB22
S32D0000F1107B6803F178031846F968FFF7E9FB7B6803F180031846F968FFF7E2FB7B6803F188031846F968FFF7E3
S32D0000F138DBFB7B6803F190031846F968FFF7D4FB07F11007BD4680BD90B587B000AF7861396107F1080181E88E
S32D0000F1600C00BA68BB6A10461946FDF741FE03461C46FA68FB6A10461946FDF739FE0346786921461A46FFF70D
S32D0000F1880BFB7C693B4618467969FFF749FB23463A4692E8030083E80300786907F11C07BD4690BD82B0B0B5BC
S32D0000F1B088B000AF786107F10C0080E806007B637B691D464FF0010406E02846FFF73EF905F1080504F1FF34EA
S32D0000F1D8B4F1FF3F0CBF00230123DBB2002BF0D17B6903F114031846FFF702FD7B6903F11C031846FFF726F9EF
S32D0000F2007B6907F10C0292E8030083E803007B6903F1080307F1340292E8030083E803007B69FA6B1A617C6966
S32D0000F2283B461846F96B00F027F904F114033A4692E8030083E803007B695B691846FDF787FE04467B699B693D
S32D0000F2501846FDF781FE034607F11802104621461A46FFF79DFA7C693A4607F1180310461946FFF7D9FA04F1CF
S32D0000F2781C033A4692E8030083E803007B69184607F12007BD46BDE8B04002B0704700BF82B0B0B58AB000AF3D
S32D0000F2A0786107F10C0080E80600FB637B691D464FF0010406E02846FFF7C8F805F1080504F1FF34B4F1FF3FF4
S32D0000F2C80CBF00230123DBB2002BF0D17B6903F114031846FFF78CFC7B6903F11C031846FFF7B0F87B6907F1F3
S32D0000F2F00C0292E8030083E803007B6903F1080307F13C0292E8030083E8030007F1180318464FF000014FF003
S32D0000F3180002FFF759FC7B6903F1140307F1180292E8030083E803007B694FF000021A6107F120031846796993
S32D0000F34000F078F87C693A4607F1200310461946FFF76AFA04F11C033A4692E8030083E803007B69184607F1F7
S32D0000F3682807BD46BDE8B04002B07047B0B582B000AF78607B681D464FF0010406E02846FFF760F805F10805FA
S32D0000F39004F1FF34B4F1FF3F0CBF00230123DBB2002BF0D17B6803F114031846FFF724FC7B6803F11C03184603
S32D0000F3B8FFF748F87B68184607F10807BD46B0BD90B589B000AFF860FA6807F1100392E8030083E80300FB68F9
S32D0000F3E0FA6802F1080292E8030083E80300FB6803F1080307F1100292E8030083E8030007F118031846F9688C
S32D0000F40800F014F8FC683A4607F1180310461946FFF706FA04F11C033A4692E8030083E8030007F12407BD4693
S32D0000F43090BD00BF90B583B000AF786039603B689A683B681B6810461946FDF7CFFC03461C463B68DA683B6898
S32D0000F4585B6810461946FDF7C5FC0346786821461A46FFF799F97868FFF722FA786807F10C07BD4690BD00BFF5
S32D0000F48080B58AB000AF786039607868FFF7B4FB3B68032B4ED801A252F823F0ADF40000CFF40000F1F400000A
S32D0000F4A813F5000007F1080318464FF000014FF0FF32FFF789FB7B6807F1080292E8030083E8030033E007F1C8
S32D0000F4D0100318464FF0FF314FF00002FFF778FB7B6807F1100292E8030083E8030022E007F1180318464FF0FA
S32D0000F4F800014FF00102FFF767FB7B6807F1180292E8030083E8030011E007F1200318464FF001014FF000027F
S32D0000F520FFF756FB7B6807F1200292E8030083E8030000E000BF786807F12807BD4680BDB0B58AB000AFF86002
S32D0000F54807F1040080E806003B60FB681D464FF0030406E02846FEF775FF05F1080504F1FF34B4F1FF3F0CBFEE
S32D0000F57000230123DBB2002BF0D1FB683A681A62FB68BA6B5A62FB6807F1040292E8030083E803007A68FB6857
S32D0000F5981B6A10461946FDF727FC03461A46BB6807F11001084611461A46FFF7F5F8FB6803F1080307F11002CB
S32D0000F5C092E8030083E803007C68BA68FB685B6A10461946FDF70AFC034607F11802104621461A46FFF7DCF813
S32D0000F5E8FB6803F1100307F1180292E8030083E803007A68FB681B6A10461946FDF7F4FB03461C46BA68FB68FC
S32D0000F6105B6A10461946FDF7E9FB034607F12002104621461A46FFF7BBF8FB6803F1180307F1200292E8030048
S32D0000F63883E80300FB68184607F12807BD46B0BDB0B582B000AF78607B681D464FF0030406E02846FEF7F6FEF7
S32D0000F66005F1080504F1FF34B4F1FF3F0CBF00230123DBB2002BF0D17B68184607F10807BD46B0BDB0B584B092
S32D0000F68800AFF86007F1040080E806003B60FB681D464FF0000406E02846FEF7D3FE05F1080504F1FF34B4F155
S32D0000F6B0FF3F0CBF00230123DBB2002BF0D1FB683A689A60FB6807F1040292E8030083E80300FB68184607F15F
S32D0000F6D81007BD46B0BD00BFB0B582B000AF78607B681D464FF0000406E02846FEF7AAFE05F1080504F1FF34FB
S32D0000F700B4F1FF3F0CBF00230123DBB2002BF0D17B68184607F10807BD46B0BDB0B586B000AFF860B9607A6020
S32D0000F728FB6803F104031D464FF0070406E02846FEF788FE05F1080504F1FF34B4F1FF3F0CBF00230123DBB22C
S32D0000F750002BF0D1FB687A681A604FF000037B6113E07B694FEAC303BA68D218F9687B694FEAC303CB1803F1C5
S32D0000F778040392E8030083E803007B6903F101037B61FB681A687B699A42D4BF00230123DBB2002BE1D1FB686D
S32D0000F7A0184607F11807BD46B0BD00BF80B584B000AF786039604FF00003FB600EE0FB684FEAC3037A68D31854
S32D0000F7C803F1040318463968FFF78EF8FB6803F10103FB607B681A68FB689A42D4BF00230123DBB2002BE6D1FA
S32D0000F7F007F11007BD4680BD90B589B000AFF86007F1040383E806004FF00003FB6130E0FA68FB694FEAC30334
S32D0000F818D3185A687B6810461946FDF7E5FA03461C46FA68FB694FEAC303D3189A68BB6810461946FDF7D8FAAF
S32D0000F840034607F11402104621461A46FEF7A8FFFA68FB694FEAC303D31803F1040307F1140292E8030083E8E9
S32D0000F8680300FB6903F10103FB61FB681A68FB699A42D4BF00230123DBB2002BC4D107F12407BD4690BD00BF39
S32D0000F89082B080B584B000AFF86007F1040080E80600FB61FB681846FEF7D0FDFB6803F108031846FEF7CAFDE3
S32D0000F8B8FB6803F110031846FEF7C4FDFB6803F118031846FEF7BEFDFB6807F1040292E8030083E80300FB6875
S32D0000F8E003F1080307F11C0292E8030083E80300F86800F0C5F8FB68184607F11007BD46BDE8804002B070474C
S32D0000F90890B587B000AF78603960184B3B61184BFB604FF00003FB754FF001031C4638683969FDF71BFD03468A
S32D0000F930002B02D14FF000031C46E3B2002B12D04FF001031C463868F968FDF7F7FC0346002B02D14FF000034F
S32D0000F9581C46E3B2002B02D04FF00103FB75FB7D184607F11C07BD4690BD00BFCDCC0C3F6666C63F90B587B0A9
S32D0000F98000AF78603960184B3B61184BFB604FF00003FB754FF001031C4638683969FDF7E1FC0346002B02D1CB
S32D0000F9A84FF000031C46E3B2002B12D04FF001031C463868F968FDF7BDFC0346002B02D14FF000031C46E3B218
S32D0000F9D0002B02D04FF00103FB75FB7D184607F11C07BD4690BD00BF00000000CDCC0C3F90B587B000AF786072
S32D0000F9F8194B3B61194BFB604FF00003FB757B681B6A4FF00102144618463969FDF7A6FC0346002B02D14FF050
S32D0000FA2000031C46E3B2002B14D07B681B6A4FF0010214461846F968FDF780FC0346002B02D14FF000031C4691
S32D0000FA48E3B2002B02D04FF00103FB75FB7D184607F11C07BD4690BD000000000000803F80B483B000AF78605D
S32D0000FA707B681B6A184607F10C07BD4680BC704790B589B000AFF860FB6803F10803FC683A4610461946FEF72C
S32D0000FA98C7FE04F108033A4692E8030083E80300FB681A68FB685B6807F11001084611461A46FEF771FEFB6830
S32D0000FAC003F1100307F1100292E8030083E80300FB689A68FB68DB6807F11801084611461A46FEF75DFEFB6848
S32D0000FAE803F1180307F1180292E8030083E80300FB68034A1A6207F12407BD4690BD00BF0000803F82B080B560
S32D0000FB1084B000AFF86007F1040080E80600FB61FB681846FEF792FCFB6803F108031846FEF78CFCFB6803F1EE
S32D0000FB3810031846FEF786FCFB6803F118031846FEF780FCFB6807F1040292E8030083E80300FB6803F10803C8
S32D0000FB6007F11C0292E8030083E80300FB687A6A1A62F86800F018F8FB68184607F11007BD46BDE8804002B069
S32D0000FB88704700BF80B483B000AF786039607B683A681A6207F10C07BD4680BC704700BF90B589B000AFF8600C
S32D0000FBB0FB6803F10803FC683A4610461946FEF733FE04F108033A4692E8030083E80300FB681A68FB685B6890
S32D0000FBD807F11001084611461A46FEF7DDFDFB6803F1100307F1100292E8030083E80300FB689A68FB68DB68B8
S32D0000FC0007F11801084611461A46FEF7C9FDFB6803F1180307F1180292E8030083E80300FB684FF4FA725A62C8
S32D0000FC28FB6840F6C4129A62FB684FF0000283F82C2007F12407BD4690BD00BF82B080B584B000AFF86007F10C
S32D0000FC50040080E80600FB61FB681846FEF7F6FBFB6803F108031846FEF7F0FBFB6803F110031846FEF7EAFBCF
S32D0000FC78FB6803F118031846FEF7E4FBFB6803F120031846FEF7DEFBFB6803F128031846FEF7D8FBFB6807F111
S32D0000FCA0040292E8030083E80300FB6803F1080307F11C0292E8030083E80300F86800F069F8FB68184607F178
S32D0000FCC81007BD46BDE8804002B0704780B483B000AF78607B6893F83030184607F10C07BD4680BC704700BF4C
S32D0000FCF080B582B000AF786039607B6818463968FEF7F6FD7B6803F1080318463968FEF7EFFD07F10807BD46C9
S32D0000FD1880BD00BF80B586B000AF786039607B689A697B68DB6907F10801084611461A46FEF732FD7B6803F128
S32D0000FD40080307F1080292E8030083E803007B681A697B685B6907F11001084611461A46FEF71EFD7B6807F197
S32D0000FD68100292E8030083E803007B6803F1080318463968FEF7B8FD7B6818463968FEF7B3FD07F11807BD4644
S32D0000FD9080BD00BF90B589B000AFF860FB6803F10803FC683A4610461946FEF73DFD04F108033A4692E803009D
S32D0000FDB883E80300FB681A68FB685B6807F11001084611461A46FEF7E7FCFB6803F1100307F1100292E80300CD
S32D0000FDE083E80300FB689A68FB68DB6807F11801084611461A46FEF7D3FCFB6803F1180307F1180292E80300A1
S32D0000FE0883E80300FB684FF0010283F8302007F12407BD4690BD00BF82B080B584B000AFF86007F1040080E8B6
S32D0000FE300600FB61FB681846FEF708FBFB6803F108031846FEF702FBFB6803F118031846FEF710FBFB6803F1B0
S32D0000FE585C031846FEF70AFBFB6803F1A0031846FEF7F0FAFB6803F1A8031846FEF7EAFAFB6803F1B4031846E9
S32D0000FE80FEF7E4FAFB6807F1040292E8030083E80300FB6803F1080307F11C0292E8030083E80300FB687A6A8B
S32D0000FEA81A61FB68BA6A5A61F86800F097F8FB68184607F11007BD46BDE8804002B0704780B483B000AF786001
S32D0000FED07B68044AC3F8B02007F10C07BD4680BC704700BF0000000080B483B000AF786039607B683A68C3F8C1
S32D0000FEF8B02007F10C07BD4680BC704780B582B000AF786039607B6803F1180318463968FFF748FC7B68184618
S32D0000FF203968FEF7E5FC7B6803F1080318463968FEF7DEFC07F10807BD4680BD80B586B000AF786039607A68D8
S32D0000FF487B6802F1180103F15C024FF04403084611461A4615F034FA7B6803F1180318463968FFF71FFC7B68A7
S32D0000FF70D3F8A8207B68D3F8AC3007F10801084611461A46FEF70CFC7B6803F1080307F1080292E8030083E877
S32D0000FF9803007B68D3F8A0207B68D3F8A43007F11001084611461A46FEF7F6FB7B6807F1100292E8030083E87F
S32D0000FFC003007B6803F1080318463968FEF790FC7B6818463968FEF78BFC07F11807BD4680BD00BF90B5B1B094
S32D0000FFE802AFF860FB6803F10803FC683A4610461946FEF715FC04F108033A4692E8030083E80300FB681B698F
S32D0001001083F00044FB685B6918465649FDF7A4F8034607F15C02104621461A46FEF7B8FBFB681B69184619464E
S32D00010038FCF7DAFE0346FA68516907F114020091104607F15C0206CAFFF776FA07F13C031A4607F1140103C978
S32D0001006082E8030003F108031A4607F11C0103C982E8030003F108031A4607F12C0103C982E8030003F108039B
S32D0001008807F1240292E8030083E8030007F1640207F13C03104619464FF00402FFF73AFBFB6803F15C0107F1DA
S32D000100B064024FF04403084611461A4615F084F9FB6803F15C04FB6803F108031846FEF76FFC034618462849BF
S32D000100D8FCF78AFE034620461946FFF763FBFB6803F15C02FB68104693E80600FFF780FBFA68FB6802F11801EB
S32D0001010003F15C024FF04403084611461A4615F05BF9FB681A68FB685B6807F1A801084611461A46FEF73CFBBD
S32D00010128FB6803F1A00307F1A80292E8030083E80300FB689A68FB68DB6807F1B001084611461A46FEF728FB50
S32D00010150FB6803F1A80307F1B00292E8030083E80300FB68054AC3F8B02007F1BC07BD4690BD00BF00000040A2
S32D000101780000B4420000000082B0F0B5A3B000AF786107F10C0080E80600C7F8A4307B691846FEF757F97B6940
S32D000101A003F108031846FEF751F97B6903F118031846FEF74BF97B6903F124031846FEF745F97B6903F12C0373
S32D000101C81846FEF73FF97B6903F14C031846FEF74DF97B6903F190031846FEF747F97B6903F1D4031846FEF7BD
S32D000101F081F97B6903F582731846FEF75BF97B6903F594731D464FF0070406E02846FEF7BDF905F1BC0504F1B3
S32D00010218FF34B4F1FF3F0CBF00230123DBB2002BF0D17B6903F5E1631D464FF0050406E02846FEF77BF905F198
S32D00010240340504F1FF34B4F1FF3F0CBF00230123DBB2002BF0D17B6907F10C0292E8030083E803007C693A4686
S32D0001026807F1A40310461946FEF7DAFA04F108033A4692E8030083E803007B6903F5827407F594750FCD0FC459
S32D000102900FCD0FC42B6823607B6903F1D40607F11C0407F1F8050FCD0FC40FCD0FC495E80F0084E80F0007F15E
S32D000102B81C039E4208D031461A464FF02D03084611461A4615F07CF87B69D7F850211A614FF00003C7F8843028
S32D000102E021E0D7F884304FF0BC0202FB03F3D7F84C21D3187969D7F884204FF0BC0000FB02F28A1802F5947276
S32D0001030811461A464FF0BC03084611461A4615F057F8D7F8843003F10103C7F884307B691A69D7F884309A4204
S32D00010330D4BF00230123DBB2002BD2D17B6903F1900107F1B4024FF04403084611461A4615F03AF87B6903F1B8
S32D000103584C0107F1B4024FF04403084611461A4615F02EF87B6903F1180307F1AC0292E8030083E803007B695D
S32D00010380D7F85C211A627B69D7F858215A614FF00003C7F8803030E0D7F880304FF0340202FB03F303F5E163BB
S32D000103A87A69D618D7F880304FF0340202FB03F3D7F85421D31807F14C041D460FCD0FC40FCD0FC40FCD0FC487
S32D000103D02B68236007F14C039E4208D031461A464FF03103084611461A4614F0EDFFD7F8803003F10103C7F874
S32D000103F880307B695A69D7F880309A42D4BF00230123DBB2002BC3D17B690D4A1A647B690B4A5A647B690A4A16
S32D000104209A647B694FF000029A637B694FF0000283F83C207B69184607F18C07BD46BDE8F04002B0704700BFC4
S32D000104480000803F80B586B000AF786039607B68D3F8D83118463968FCF7C6FC03467B617B68D3F894321846D9
S32D000104703968FCF7BDFC03463B617B68D3F8503318463968FCF7B4FC0346FB607B681B6C78691946FCF7B4FD66
S32D0001049803467B617B685B6C38691946FCF7ACFD03463B617B689B6CF8681946FCF7A4FD0346FB607B6803F529
S32D000104C0947318467969FFF70FFD7B6803F5F27318463969FFF708FD7B6803F528731846F968FFF701FD07F168
S32D000104E81807BD4680BD00BF2DE9B04388B000AFF86007F1040080E806003B60614BFB617B681846FCF7E4F862
S32D0001051002460B46104619464FF000024FF07E5303F5C003FCF72CF902460B4614461D46F869FCF7D1F802468F
S32D000105380B46104619464FF000024FF08043FCF745FA02460B4690469946BB681846FCF7BFF802460B46404681
S32D000105604946FCF70DF902460B4620462946FBF753FF02460B4610461946FCF7E3FB0346BB617B6883F0004315
S32D000105887B617B681846FCF7A3F802460B46104619464FF000024FF07E5303F5C003FCF7EBF802460B46144676
S32D000105B01D46F869FCF790F802460B46104619464FF000024FF08043FCF704FA02460B4690469946BB6818468C
S32D000105D8FCF77EF802460B4640464946FCF7CCF802460B4620462946FBF714FF02460B4610461946FCF7A2FBD5
S32D0001060003463B61B8693968FCF7FAFC0346BB6178693968FCF7F4FC03467B6138693968FCF7EEFC03463B6148
S32D00010628FB681B6CB8691946FCF7E6FC0346BB61FB685B6C78691946FCF7DEFC03467B61FB689B6C3869194639
S32D00010650FCF7D6FC03463B61FB6803F594731846B969FFF741FCFB6803F5F27318467969FFF73AFCFB6803F535
S32D00010678287318463969FFF733FC07F12007BD46BDE8B083D7B3DD3F80B582B000AF78607B6803F594731846C5
S32D000106A0FFF712FC7B6803F5F2731846FFF70CFC7B6803F528731846FFF706FC07F10807BD4680BD80B584B00F
S32D000106C800AF786039607B6803F1900318463968FFF768F87B6803F1080318463968FEF703F94FF00003FB60B5
S32D000106F010E0FB684FF0BC0202FB03F303F594737A68D31818463968FFF7FCFBFB6803F10103FB607B681A69C4
S32D00010718FB689A42D4BF00230123DBB2002BE4D14FF00003BB6010E0BB684FF0340202FB03F303F5E1637A6836
S32D00010740D31818463968FFF7D3FABB6803F10103BB607B685A69BB689A42D4BF00230123DBB2002BE4D107F1C3
S32D000107681007BD4680BD00BF90B587B000AFF860B960FC683B461846B968FEF7B5F904F108033A4692E80300AC
S32D0001079083E80300FA68FB6802F1900103F14C024FF04403084611461A4614F00DFEFB6803F190031846B9683E
S32D000107B8FEF7F8FF4FF000037B6110E07B694FF0BC0202FB03F303F59473FA68D3181846B968FFF7AFFB7B69F5
S32D000107E003F101037B61FB681A697B699A42D4BF00230123DBB2002BE4D14FF000033B6110E03B694FF0340242
S32D0001080802FB03F303F5E163FA68D3181846B968FFF780FA3B6903F101033B61FB685A693B699A42D4BF0023C2
S32D000108300123DBB2002BE4D107F11C07BD4690BD80B485B000AFF86007F1040383E80600FB6807F1040292E8E2
S32D00010858030083E8030007F11407BD4680BC704784B0B0B582B000AF786007F11C0080E80E007B681846FEF7E5
S32D00010880E3FE7B681C4607F11C050FCD0FC40FCD0FC495E8030084E803007B6803F12C031846796C14F0ABFDC8
S32D000108A87B68BA6C9A627B684FF00502C3F894207B684FF0000283F892207B68184607F10807BD46BDE8B04053
S32D000108D004B0704780B582B000AF78607B681846FEF7B2FE7B68184607F10807BD4680BD80B584B000AFF860C2
S32D000108F807F1040383E80600F86807F1040393E8060000F00DF803461A46FB6883F89020FB6893F89030184649
S32D0001092007F11007BD4680BDB0B584B000AFF86007F1040383E806007A68FB681B684FF001010C461046194639
S32D00010948FCF716FD0346002B02D14FF000031C46E3B2002B49D07D68FB681A68FB681B6A10461946FCF740FA22
S32D0001097003464FF00102144628461946FCF7DEFC0346002B02D14FF000031C46E3B2002B2FD0BA68FB685B68E7
S32D000109984FF001010C4610461946FCF7CBFC0346002B02D14FF000031C46E3B2002B1CD0BD68FB685A68FB68EA
S32D000109C05B6A10461946FCF711FA03464FF00102144628461946FCF7CFFC0346002B02D14FF000031C46E3B2A0
S32D000109E8002B02D04FF0010301E04FF00003184607F11007BD46B0BD80B582B000AF78607B6893F89030002B59
S32D00010A1003D0786800F006FA02E0786800F004F807F10807BD4680BD2DE9F04184B002AF78607B689B6A052B03
S32D00010A3802D0062B7BD02DE143F25810C1F6FF706FF07F410DF0FCF87B6803F12C087B681C687B68D3F894307C
S32D00010A601846FCF779FA034620461946FCF7C0F903461846FCF78AFC06467B685B681846FBF72AFE04460D46C2
S32D00010A887B685B6A1846FBF723FE02460B46104619464FF000024FF08043FBF797FF02460B4620462946FBF7AD
S32D00010AB0B3FC02460B46104619464FF000024FF0804303F5A013FBF7A9FC02460B4610461946FCF7EFF8034624
S32D00010AD8C3F1000343F25810C1F6FF70414632460DF0C2F87B681B681846FCF74BFC06467B685B681846FCF77E
S32D00010B0045FC0346C3F100057B681B6A1846FCF73DFC04467B685B6A1846FCF737FC0346009343F25810C1F6EB
S32D00010B28FF7031462A4623460DF0B6FF6FE143F25810C1F6FF7041F61A21C0F21A010DF07FF843F25810C1F613
S32D00010B50FF7041F61A21C0F21A010DF04DF87B681B681846FCF712FC06467B685B681846FCF70CFC0346C3F179
S32D00010B7800057B681B6A1846FCF704FC04467B685B6A1846FCF7FEFB0346009343F25810C1F6FF7031462A46CE
S32D00010BA023460EF043F843F25810C1F6FF706FF07F410DF049F87B6803F12C087B681C687B68D3F89430184622
S32D00010BC8FCF7C6F9034620461946FCF70DF903461846FCF7D7FB06467B685B681846FBF777FD04460D467B68A3
S32D00010BF05B6A1846FBF770FD02460B46104619464FF000024FF08043FBF7E4FE02460B4620462946FBF700FC93
S32D00010C1802460B46104619464FF000024FF0804303F5A013FBF7F6FB02460B4610461946FCF73CF80346C3F11C
S32D00010C40000343F25810C1F6FF70414632460DF00FF87B681B681846FCF798FB06467B685B681846FCF792FBA2
S32D00010C680346C3F100057B681B6A1846FCF78AFB04467B685B6A1846FCF784FB0346009343F25810C1F6FF70BC
S32D00010C9031462A4623460DF003FFBCE043F25810C1F6FF7041F61A21C0F21A010CF0CCFF7B681B681846FCF7CA
S32D00010CB869FB06467B685B681846FCF763FB03466FEA03057B681B6A18465349FCF78CF803461846FCF756FB9A
S32D00010CE004467B685B6A18464D49FCF781F803461846FCF74BFB0346009343F25810C1F6FF7031462A462346C4
S32D00010D080DF090FF43F25810C1F6FF706FF07F410CF096FF43F25810C1F6FF7041F61A21C0F21A010CF064FF5C
S32D00010D307B6803F12C087B681C687B68D3F894301846FCF709F9034620461946FCF750F803461846FCF71AFB65
S32D00010D5806467B685B681846FBF7BAFC04460D467B685B6A1846FBF7B3FC02460B46104619464FF000024FF062
S32D00010D808043FBF727FE02460B4620462946FBF743FB02460B46104619464FF000024FF0804303F5A013FBF79E
S32D00010DA839FB02460B4610461946FBF77FFF0346C3F1000343F25810C1F6FF70414632460CF052FF7B681B68B5
S32D00010DD01846FCF7DBFA06467B685B681846FCF7D5FA0346C3F100057B681B6A1846FCF7CDFA04467B685B6A48
S32D00010DF81846FCF7C7FA0346009343F25810C1F6FF7031462A4623460DF046FE00BF07F10807BD46BDE8F081AB
S32D00010E200000803F2DE9F04184B002AF78607B689B6A052B02D0062B7BD0D1E043F25810C1F6FF704FF47F0143
S32D00010E480CF0FEFE7B6803F12C087B681C687B68D3F894301846FCF77BF8034620461946FBF7C2FF0346184673
S32D00010E70FCF78CFA06467B685B681846FBF72CFC04460D467B685B6A1846FBF725FC02460B46104619464FF02D
S32D00010E9800024FF08043FBF799FD02460B4620462946FBF7B5FA02460B46104619464FF000024FF0804303F507
S32D00010EC0A013FBF7ABFA02460B4610461946FBF7F1FE0346C3F1000343F25810C1F6FF70414632460CF0C4FE0A
S32D00010EE87B681B681846FCF74DFA06467B685B681846FCF747FA0346C3F100057B681B6A1846FCF73FFA04461B
S32D00010F107B685B6A1846FCF739FA0346009343F25810C1F6FF7031462A4623460DF0B8FDA5E143F25810C1F60B
S32D00010F38FF704FF47F010CF083FE7B6803F12C087B681C687B68D3F894301846FCF700F8034620461946FBF7AE
S32D00010F6047FF03461846FCF711FA06467B685B681846FBF7B1FB04460D467B685B6A1846FBF7AAFB02460B46B6
S32D00010F88104619464FF000024FF08043FBF71EFD02460B4620462946FBF73AFA02460B46104619464FF0000212
S32D00010FB04FF0804303F5A013FBF730FA02460B4610461946FBF776FE0346C3F1000343F25810C1F6FF7041464B
S32D00010FD832460CF049FE4EE143F25810C1F6FF7041F61A21C0F21A010CF02AFE7B681B681846FCF7C7F9064617
S32D000110007B685B681846FCF7C1F903466FEA03057B681B6A18469C49FBF7EAFE03461846FCF7B4F904467B686D
S32D000110285B6A18469649FBF7DFFE03461846FCF7A9F90346009343F25810C1F6FF7031462A4623460DF0EEFDB5
S32D0001105043F25810C1F6FF7045F65C41C0F2CD010CF0F2FD43F25810C1F6FF7045F65C41C0F2CD010CF0C0FD97
S32D000110787B681B681846FBF72BFB02460B46104619464FF000024FF0804303F58023FBF7C1F902460B461046A6
S32D000110A01946FBF707FE06467B685B681846FBF713FB02460B46104619464FF000024FF0804303F58023FBF75D
S32D000110C8A7F902460B4610461946FBF7EFFD0346C3F100057B681B6A18466A49FBF782FE03461846FCF74EF95F
S32D000110F004467B685B6A18466449FBF777FE03461846FCF743F90346009343F25810C1F6FF7031462A462346A8
S32D000111180DF088FD43F25810C1F6FF706FF07F410CF08EFD7B6803F12C087B681C687B68D3F894301846FBF789
S32D000111400BFF034620461946FBF752FE03461846FCF71CF906467B685B681846FBF7BCFA04460D467B685B6A3A
S32D000111681846FBF7B5FA02460B46104619464FF000024FF08043FBF729FC02460B4620462946FBF745F90246CB
S32D000111900B46104619464FF000024FF0804303F5A013FBF73BF902460B4610461946FBF781FD0346C3F1000358
S32D000111B843F25810C1F6FF70414632460CF054FD7B681B681846FBF783FA02460B46104619464FF000024FF0F8
S32D000111E0804303F58023FBF719F902460B4610461946FBF75FFD06467B685B681846FBF76BFA02460B4610464C
S32D0001120819464FF000024FF0804303F58023FBF7FFF802460B4610461946FBF747FD0346C3F100057B681B6AA3
S32D0001123018461649FBF7DAFD03461846FCF7A6F804467B685B6A18461049FBF7CFFD03461846FCF79BF80346F4
S32D00011258009343F25810C1F6FF7031462A4623460DF01AFC43F25810C1F6FF704FF000010CF0BEFC00BF07F13E
S32D000112800807BD46BDE8F0810000803F0000A04084B0B0B582B000AF786007F11C0080E80E007B681846FEF766
S32D000112A8CFF97B681C4607F11C050FCD0FC40FCD0FC495E8030084E803007B6803F12C031846796C14F097F8C8
S32D000112D07B684FF000029A627B684FF00502C3F890207A6841F61A23C0F21A03C2F894307B686FF07F42C3F8DA
S32D000112F898207B686FF07F42C3F89C207B68184607F10807BD46BDE8B04004B0704700BF80B582B000AF78609D
S32D000113207B681846FEF790F97B68184607F10807BD4680BD80B582B000AF786039607B6803F12C0318463968CB
S32D0001134814F059F807F10807BD4680BD80B483B000AF786039607B683A68C3F8942007F10C07BD4680BC70475E
S32D0001137080B582B000AF7860786800F005F807F10807BD4680BD00BF2DE9F04184B002AF78607B68D3F8943017
S32D0001139843F25810C1F6FF7019460CF051FC7B681B681846FBF7EEFF06467B685B681846FBF7E8FF0346C3F1F2
S32D000113C000057B681B6A1846FBF7E0FF04467B685B6A1846FBF7DAFF0346009343F25810C1F6FF7031462A46C1
S32D000113E823460DF01FFC7B68D3F89C3043F25810C1F6FF7019460CF023FC7B68D3F8943043F25810C1F6FF7069
S32D0001141019460CF0F1FB7B6803F12C087B681C687B68D3F890301846FBF796FD034620461946FBF7DDFC034681
S32D000114381846FBF7A7FF06467B685B681846FBF747F904460D467B685B6A1846FBF740F902460B4610461946F1
S32D000114604FF000024FF08043FBF7B4FA02460B4620462946FAF7D0FF02460B46104619464FF000024FF08043BB
S32D0001148803F5A013FAF7C6FF02460B4610461946FBF70CFC0346C3F1000343F25810C1F6FF70414632460CF0CE
S32D000114B0DFFB7B68D3F8983043F25810C1F6FF7019460CF0C1FB7B681B681846FBF75EFF06467B685B68184680
S32D000114D8FBF758FF0346C3F100057B681B6A1846FBF750FF04467B685B6A1846FBF74AFF0346009343F258108F
S32D00011500C1F6FF7031462A4623460DF0C9FA07F10807BD46BDE8F0812DE9F043ADF5257D08AF07F12C03186083
S32D0001152807F12C031B681846FEF78AF807F12C031B6803F128031846FEF782F807F12C031B6803F15003184630
S32D00011550FEF7C6F807F12C031B6803F15C031846FEF772F807F12C031B6803F184031846FEF76AF807F12C03FE
S32D000115781B6803F1AC031846FEF762F807F12C031B6803F1D4031846FEF75AF807F12C031B6803F1FC0318465C
S32D000115A0FEF752F807F12C031B6803F592731846FDF7E0FE07F12C031B6803F5A4731846FEF742F807F12C0399
S32D000115C81B6803F5B8731846FEF786F807F12C031B6803F5BE731846FEF732F807F12C031B6803F5D2731846E8
S32D000115F0FDF7C0FE07F12C031B6803F5EA731D464FF03F0406E02846FDF7B4FE05F1240504F1FF34B4F1FF3F12
S32D000116180CBF00230123DBB2002BF0D107F12C031B6803F52C6303F114031D464FF03F0406E02846FEF704F8B2
S32D0001164005F1280504F1FF34B4F1FF3F0CBF00230123DBB2002BF0D107F12C031B6803F5A65303F114031D46B9
S32D000116684FF0000406E02846FDF7EAFF05F1280504F1FF34B4F1FF3F0CBF00230123DBB2002BF0D107F12C03FF
S32D000116901B6803F5A65303F13C03DFF880271A6007F158031846DFF87817DFF87427FDF777F807F1300207F17E
S32D000116B85803DFF868170091104693E80600DFF86037FDF739FF07F12C031A6807F1300314461D460FCD0FC410
S32D000116E00FCD0FC495E8030084E8030007F188031846DFF83817DFF83827FDF751F807F1600207F18803DFF80F
S32D000117082C170091104693E80600DFF82437FDF713FF07F12C031A6807F1600302F128041D460FCD0FC40FCDBE
S32D000117300FC495E8030084E8030007F19C031846DFF8F816DFF8F826FDF72AF807F1900207F19C03104693E8F1
S32D000117580600DFF8E836FDF791FF07F12C031B6807F1900203F1500307CA83E8070007F1CC031846DFF8C8164B
S32D00011780DFF8C826FDF70CF807F1A40207F1CC03DFF8BC160091104693E80600DFF8B436FDF7CEFE07F12C035F
S32D000117A81A6807F1A40302F15C041D460FCD0FC40FCD0FC495E8030084E8030007F1FC031846DFF88C16DFF849
S32D000117D08C26FCF7E5FF07F1D40207F1FC03DFF880160091104693E80600DFF87836FDF7A7FE07F12C031A6800
S32D000117F807F1D40302F184041D460FCD0FC40FCD0FC495E8030084E8030007F596731846DFF83C16DFF84826F7
S32D00011820FCF7BEFF07F5827207F59673DFF830160091104693E80600DFF82836FDF780FE07F12C031A6807F523
S32D00011848827302F1AC041D460FCD0FC40FCD0FC495E8030084E8030007F5AE731846DFF8D015DFF80026FCF702
S32D0001187097FF07F59A7207F5AE73DFF8F4150091104693E80600DFF8EC35FDF759FE07F12C031A6807F59A7351
S32D0001189802F1D4041D460FCD0FC40FCD0FC495E8030084E8030007F5C6731846DFF8C015DFF8C025FCF770FF49
S32D000118C007F5B273DFF888250092184607F5C67393E80600DFF8A835FDF732FE07F12C031A6807F5B27302F119
S32D000118E8FC041D460FCD0FC40FCD0FC495E8030084E8030007F5DC731846DFF82815DFF87C25FCF749FF07F5B5
S32D00011910E0731846DFF87015DFF86025FCF740FF07F5CA72D7F8C4310093D7F8C031104607F5DC7206CAFDF75A
S32D00011938AFFC07F12C031B6803F5927407F5CA750FCD0FC40FCD0FC42B68236007F12C031B6803F59273184679
S32D00011960FDF732FD07F5F8731846DFF80815DFF81C25FCF715FF07F5E473DFF8D4240092184607F5F87393E869
S32D000119880600DFF80435FDF7D7FD07F12C031B6803F5A47407F5E4750FCD0FC40FCD0FC495E8030084E80300F6
S32D000119B007F501731846DFF8DC14DFF8DC24FCF7EFFE07F5FC73184607F5017393E80600DFF8C834FDF756FEE7
S32D000119D807F12C031B6803F5B87307F5FC7207CA83E8070007F50D731846DFF83814DFF89424FCF7D1FE07F51C
S32D00011A000373DFF89C240092184607F50D7393E80600DFF89034FDF793FD07F12C031B6803F5BE7407F5037556
S32D00011A280FCD0FC40FCD0FC495E8030084E8030007F518731846FB49DFF86424FCF7ACFE07F51A731846DFF85F
S32D00011A505C14DFF85C24FCF7A3FE07F50F72D7F86C320093D7F86832104607F5187206CAFDF712FC07F12C0351
S32D00011A781B6803F5D27407F50F750FCD0FC40FCD0FC42B68236007F12C031B684FF00002C3F8CC2107F12C03D0
S32D00011AA01B68D3F8CC61324607F12C03196813464FEA83039B184FEAC303CB1803F52D68B94607F12C0C07F11B
S32D00011AC82C03D3F800E06C460EF164050FCD0FC495E80F0084E80F000EF15C030CCB4846DCF8001000F00EFAA6
S32D00011AF03B4608F104041D460FCD0FC40FCD0FC495E8030084E8030006F1010207F12C031B68C3F8CC2107F151
S32D00011B182C031B68D3F8CC61324607F12C03196813464FEA83039B184FEAC303CB1803F52D68B94607F12C0C6B
S32D00011B4007F12C03D3F800E06C460EF1B4050FCD0FC495E80F0084E80F000EF1AC030CCB4846DCF8001000F09D
S32D00011B68D1F93B4608F104041D460FCD0FC40FCD0FC495E8030084E8030006F1010207F12C031B68C3F8CC2106
S32D00011B9007F12C031B68D3F8CC61324607F12C03196813464FEA83039B184FEAC303CB1803F52D68B94607F133
S32D00011BB82C0C07F12C03D3F800E06C460EF582750FCD0FC495E80F0084E80F000EF1FC030CCB4846DCF800104B
S32D00011BE000F094F93B4608F104041D460FCD0FC40FCD0FC495E8030084E8030006F1010207F12C031B68C3F8C8
S32D00011C08CC2107F12C031B68D3F8CC61324607F12C03196813464FEA83039B184FEAC303CB1803F52D68B946C5
S32D00011C3007F12C0C07F12C03D3F800E06C460EF5A8750FCD0FC495E80F0084E80F000EF5A4730CCB4846DCF8A8
S32D00011C58001000F057F93B4608F104041D460FCD0FC40FCD0FC495E8030084E8030006F1010207F12C031B6837
S32D00011C80C3F8CC2107F12C031B684FF00002C3F8C82107F12C031B68D3F8C861324607F12C03196813464FEAAE
S32D00011CA8C3039B184FEA8303CB1803F5E878B94607F12C0C07F12C03D3F800E06C460EF596750FCD0FC495E8AD
S32D00011CD0070084E807000EF592730CCB4846DCF8001000F051F93B4608F104041D460FCD0FC40FCD0FC42B680A
S32D00011CF8236006F1010207F12C031B68C3F8C82107F12C031B68D3F8C861324607F12C03196813464FEAC303DC
S32D00011D209B184FEA8303CB1803F5E878B94607F12C0C07F12C03D3F800E06C460EF5D6750FCD0FC495E80700B3
S32D00011D4884E807000EF5D2730CCB4846DCF8001000F016F93B4608F104041D460FCD0FC40FCD0FC42B68236010
S32D00011D7006F1010207F12C031B68C3F8C82107F12C031B684FF00002C3F8D02107F12C031B68D3F8D081424617
S32D00011D9807F12C03196813464FEA83039B184FEAC303CB1803F5A65606F11006B94607F12C0C07F12C03D3F8A5
S32D00011DC000E06C460EF108050FCD0FC495E80F0084E80F009EE80C004846DCF8001000F095F83B4606F104049F
S32D00011DE81D460FCD0FC40FCD0FC495E8030084E8030008F1010207F12C031B68C3F8D02107F12C031B681846C2
S32D00011E1007F51D77BD46BDE8F08300BFC4A6D23D0000000000002F440000AF430000803F0000AAC300003041BE
S32D00011E380000684300801B43000021C30000C84100002E43000E744900001C4200006C420000564300400EC412
S32D00011E60000040420000C24200001FC4000081C3000070430000E84200001B43000000C0000026430000F8C288
S32D00011E880000F6420080AFC30000EC420000124300C0C9C30000B0410000AE420000E64200401AC40000A64223
S32D00011EB000C02EC490B585B000AFF860B960394681E80C003A68BB6803F5A65303F13C031B6810461946FBF7B0
S32D00011ED893F803461C467A68BB6803F5A65303F13C031B6810461946FBF786F80346F86821461A46FCF750FC25
S32D00011F00F86807F11407BD4690BD00BF82B090B587B002AF7860396007F1200181E80C0007F1080318463968D0
S32D00011F2807F1200C9CE80C00FFF7C0FF3A6C3B6803F5A65303F13C031B6810461946FBF75BF803461C467A6CA6
S32D00011F503B6803F5A65303F13C031B6810461946FBF74EF803460093786807F1080393E806002346FDF7E4FAB0
S32D00011F78786807F11407BD46BDE8904002B0704782B080B588B002AF7860396007F1200181E80C0007F1080314
S32D00011FA01846396807F1200C9CE80C00FFF782FF07F110031846396807F128030CCBFFF779FF3B6B01937B6958
S32D00011FC800933B69786807F1080206CAFDF7EAF8786807F11807BD46BDE8804002B0704780B483B000AF786075
S32D00011FF07B68184607F10C07BD4680BC704700BFB0B500AF43F2C010C1F6FF700FF034F805F016F900E000BFB4
S32D000120180AF062F804460D4641F67013C1F6FF731B681846FAF754FB02460B4620462946FAF7EEF902460B46C5
S32D000120404FF001010C46104619464FF000024FF00003FAF725FE0346002B02D14FF000031C46E3B2002BD6D041
S32D000120680AF03AF802460B4610461946FAF766FE024641F67013C1F6FF731A6006F084FEC5E700BF90B585B078
S32D0001209000AF78604FF00103FB604FF001031C4678680C49FBF74AF90346002B02D14FF000031C46E3B2002B42
S32D000120B802D04FF0FF33FB60F868FAF749FF0346184607F11407BD4690BD00BF00000000B0B5ADF5A85D84B0B9
S32D000120E000AF07F11004A4F10404206007F11000A0F10C0080E8060007F11002A2F11002136007F11003A3F125
S32D0001210804031B681846FCF79DF907F11003A3F104031B6803F110031846FDF791FA07F11003A3F104031B6801
S32D0001213003F138031846FDF787FA07F11003A3F104031B6803F160031846FDF7C9FA07F11003A3F104031B68C0
S32D0001215803F16C031846FDF773FA07F11003A3F104031B6803F194031846FDF769FA07F11003A3F104031B68A4
S32D0001218003F1BC031846FDF75FFA07F11003A3F104031B6803F1E4031846FDF755FA07F11003A3F104031B6804
S32D000121A803F586731846FDF74BFA07F11003A3F104031B6803F59A731846FDF7D7F807F11003A3F104031B6808
S32D000121D003F5AC731846FDF737FA07F11003A3F104031B6803F5C0731846FDF779FA07F11003A3F104031B6804
S32D000121F803F5C6731846FDF723FA07F11003A3F104031B6803F5DA731846FDF7AFF807F11003A3F104031A6889
S32D0001222007F11003A3F110031B68936007F11003A3F104031B689B681846FAF74DFA02460B46104619468CA328
S32D00012248D3E90023FAF798FA02460B4610461946FAF774FD024607F11003A3F104031B68DA6007F11003A3F10B
S32D0001227004031A6807F11003A3F10C0393E8030082E8030007F110031846FFF745F907F11003A3F104031A6858
S32D0001229807F1100302F110041D460FCD0FC40FCD0FC495E8030084E8030007F11003A3F104031A6807F1100322
S32D000122C002F1380403F128050FCD0FC40FCD0FC495E8030084E8030007F11003A3F104031B6807F1100203F12B
S32D000122E8600302F1500207CA83E8070007F11003A3F104031A6807F1100302F16C0403F15C050FCD0FC40FCD66
S32D000123100FC495E8030084E8030007F11003A3F104031A6807F1100302F1940403F184050FCD0FC40FCD0FC443
S32D0001233895E8030084E8030007F11003A3F104031A6807F1100302F1BC0403F1AC050FCD0FC40FCD0FC495E821
S32D00012360030084E8030007F11003A3F104031A6807F1100302F1E40403F1D4050FCD0FC40FCD0FC495E8030023
S32D0001238884E8030007F11003A3F104031A6807F1100302F5867403F1FC050FCD0FC40FCD0FC495E8030084E854
S32D000123B0030007F11003A3F104031A6807F1100302F59A7403F592750FCD0FC40FCD0FC42B68236007F1100345
S32D000123D8A3F104031A6807F1100302F5AC7403F5A4750FCD0FC40FCD0FC495E8030084E8030007F11003A3F19A
S32D0001240004031B6807F1100203F5C07302F5B87207CA83E8070007F11003A3F104031A6807F1100302F5C67426
S32D0001242803F5BE750FCD0FC40FCD0FC495E8030084E8030007F11003A3F104031A6807F1100302F5DA7403F59D
S32D00012450D2750FCD0FC40FCD0FC42B68236007F11003A3F104031B68184607F5A26707F58057BD46B0BD00BF14
S32D0001247839C2711CC771234080B582B000AF78607B681846FBF7DEFF7B6803F110031846FDF7D6F87B6803F133
S32D000124A038031846FDF7D0F87B6803F160031846FDF716F97B6803F16C031846FDF7C4F87B6803F194031846FD
S32D000124C8FDF7BEF87B6803F1BC031846FDF7B8F87B6803F1E4031846FDF7B2F87B6803F586731846FDF7ACF81F
S32D000124F07B6803F59A731846FCF73CFF7B6803F5AC731846FDF7A0F87B6803F5C0731846FDF7E6F87B6803F54C
S32D00012518C6731846FDF794F87B6803F5DA731846FCF724FF7B68184607F10807BD4680BDF0B58BB008AF7860EA
S32D0001254043F25810C1F6FF7046F26661C0F266010BF07AFB7E686C4606F11C050FCD0FC495E8070084E80700CB
S32D0001256806F110030ECB786800F0C6F843F25810C1F6FF704AF6A911C0F2A9010BF060FB7E686C4606F5CC7590
S32D000125900FCD0FC495E8070084E8070006F5C6730ECB786800F0ACF87E686C4606F1F0050FCD0FC495E807003E
S32D000125B884E8070006F1E4030ECB786800F09CF87E686C4606F1A0050FCD0FC495E8070084E8070006F19403FE
S32D000125E00ECB786800F08CF87E686C4606F144050FCD0FC495E8070084E8070006F138030ECB786800F07CF8D2
S32D000126087B68786803F160030ECB00F0B9F87B68786803F5C0730ECB00F0B2F843F25810C1F6FF704DF2D331A8
S32D00012630C0F2D3010BF008FB7E686C4606F1C8050FCD0FC495E8070084E8070006F1BC030ECB786800F054F84A
S32D000126587E686C4606F58C750FCD0FC495E8070084E8070006F586730ECB786800F044F87E686C4606F1780534
S32D000126800FCD0FC495E8070084E8070006F16C030ECB786800F034F87E686C4606F5B2750FCD0FC495E807005D
S32D000126A884E8070006F5AC730ECB786800F024F87E686C4606F5A0750FCD0FC495E8030084E8030006F59A7363
S32D000126D00ECB786800F082F87E686C4606F5E0750FCD0FC495E8030084E8030006F5DA730ECB786800F072F8D7
S32D000126F807F10C07BD46F0BD84B0B0B594B006AF786007F14C0080E80E0007F130031846796807F14C030CCB4C
S32D0001272000F026FCFA6E7B689B6810461946FAF767FC03461C463A6F7B689B6810461946FAF75EFC03461A463E
S32D0001274807F108030092184607F1300393E806002346FCF7F1FE6C4607F118050FCD0FC495E8030084E8030013
S32D0001277007F108030FCB06F05BFC07F13807BD46BDE8B04004B0704780B58AB000AFF860384680E80E0007F174
S32D0001279820031846F9683B460CCB00F0E5FBBA68FB689B6810461946FAF726FC034607F11402104607F12002F1
S32D000127C006CAFCF75FFF07F1140393E8070006F0C1FC07F12807BD4680BD00BF84B0B0B596B006AF786007F1FB
S32D000127E8540080E80E0007F130031846796807F154030CCB00F0B8FB07F138031846796807F15C030CCB00F035
S32D00012810AFFB07F10C024FF000030193FB6B0093BB6B104607F1300206CAFCF7BFFC6C4607F11C050FCD0FC47C
S32D000128382B68236007F10C030FCB06F055FC07F14007BD46BDE8B04004B0704784B0B0B596B006AF786007F18D
S32D00012860540080E80E0007F130031846796807F154030CCB00F0B0FB07F138031846796807F15C030CCB00F0C4
S32D00012888A7FB07F10C024FF000030193FB6B0093BB6B104607F1300206CAFCF783FC6C4607F11C050FCD0FC448
S32D000128B02B68236007F10C030FCB06F019FC07F14007BD46BDE8B04004B0704784B0B0B5A4B006AF786007F143
S32D000128D88C0080E80E004FF000037B674EE07B6F4FEAC30307F18801CB189A687B6F4FEAC30307F18801CB18E1
S32D00012900DB6807F15401084611461A46FBF748FF7B6F03F101034FEAC30307F18802D3189A687B6F03F10103A8
S32D000129284FEAC30307F18801CB18DB6807F15C01084611461A46FBF72FFF07F10C024FF0000301933B6E009348
S32D00012950FB6D104607F1540206CAFCF727FC6C4607F118050FCD0FC495E8030084E8030007F10C030ECB786841
S32D00012978FFF76CFF7B6F03F101037B67D7F88C3003F1FF327B6F9A42D4BF00230123DBB2002BA4D1D7F88C3003
S32D000129A003F1FF334FEAC30307F18802D3189A68D7F88C3003F1FF334FEAC30307F18801CB18DB6807F16401C0
S32D000129C8084611461A46FBF7E7FED7F89020D7F8943007F16C01084611461A46FBF7DCFE07F130024FF0000350
S32D000129F001933B6F0093FB6E104607F1640206CAFCF7D4FB6C4607F13C050FCD0FC495E8030084E8030007F1B7
S32D00012A1830030ECB7868FFF719FF07F17807BD46BDE8B04004B0704782B0B0B598B006AFF86007F1040080E8CB
S32D00012A400600FB657A68FB6D10461946FAF7D0F903461C46BA683B6E10461946FAF7C8F9034607F14002104692
S32D00012A6821461A46FBF798FE07F110024FF0000301937B6C00933B6C104607F1040206CAFCF790FB6C4607F1A3
S32D00012A901C050FCD0FC495E8030084E8030007F110030ECBF868FFF7D5FE07F14807BD46BDE8B04002B0704703
S32D00012AB884B0F0B5FBB00EAF07F10404206007F5E67080E80E004FF00003C7F8AC319AE007F10C02D7F8AC315C
S32D00012AE04FF0BC0101FB03F307F5E471CB1803F5A27311461A464FF04403084611461A4612F062FC07F5A673E1
S32D00012B081D464FF0030406E02846FBF79BFC05F1080504F1FF34B4F1FF3F0CBF00230123DBB2002BF0D14FF040
S32D00012B300003C7F8A8313AE007F10C02D7F8A8314FEAC303D3185A68D7F8CC3110461946FAF74EF903461C4603
