S01C00002E2E2F526F626F7444657369676E50726F6A6563742E73313916
S32D0000C0000000002099670100F56A0100F56A0100F56A0100F56A0100F56A010000000000000000000000000011
S32D0000C02800000000F56A0100F56A010000000000F56A0100F56A0100F56A0100F56A0100F56A0100F56A0100EA
S32D0000C050F56A0100F56A0100F56A0100F56A0100F56A0100F56A0100F56A0100F56A0100F56A0100F56A010002
S32D0000C078F56A0100F56A0100F56A0100F56A0100F56A0100F56A0100F56A0100F56A0100F56A0100F56A0100DA
S32D0000C0A0F56A0100F56A0100F56A0100F56A0100F56A0100F56A0100F56A0100F56A0100F56A0100F56A0100B2
S32D0000C0C8F56A0100F56A0100F56A0100F56A0100F56A0100F56A0100F56A0100F56A0100F56A0100F56A01008A
S32D0000C0F0F56A0100F1D50100F56A0100F56A0100F56A0100F56A0100F56A0100F56A0100F56A0100F56A0100FB
S32D0000C118F56A0100F56A0100F56A0100F56A0100F56A0100F56A0100F56A0100F56A0100F56A0100F56A010039
S32D0000C140F56A0100F56A0100F56A0100F56A0100759E0100F56A0100F56A0100F56A0100F56A0100F56A01005D
S32D0000C168F56A0100F56A0100F56A0100F56A0100F56A0100F56A0100F56A0100F56A0100F56A0100F56A0100E9
S32D0000C190F56A0100F56A0100F56A0100299901007D97010051980100456B0100019A0100F56A0100F56A010092
S32D0000C1B8F56A0100F56A0100F56A0100F56A0100F56A0100F56A0100F56A0100F56A0100F56A0100F56A010099
S32D0000C41081F0004102E000BF83F0004330B54FEA41044FEA430594EA050F08BF90EA020F1FBF54EA000C55EAC6
S32D0000C438020C7FEA645C7FEA655C00F0E2804FEA5454D4EB5555B8BF6D420CDD2C4480EA020281EA030382EA0F
S32D0000C460000083EA010180EA020281EA0303362D88BF30BD11F0004F4FEA01314FF4801C4CEA113102D0404263
S32D0000C48861EB410113F0004F4FEA03334CEA133302D0524263EB430394EA050F00F0A780A4F10104D5F1200E8A
S32D0000C4B00DDB02FA0EFC22FA05F2801841F1000103FA0EF2801843FA05F359410EE0A5F120050EF1200E012A2D
S32D0000C4D803FA0EFC28BF4CF0020C43FA05F3C01851EBE37101F0004507D54FF0000EDCF1000C7EEB00006EEB67
S32D0000C5000101B1F5801F1BD3B1F5001F0CD349085FEA30004FEA3C0C04F101044FEA445212F5800F80F09A8000
S32D0000C528BCF1004F08BF5FEA500C50F1000041EB045141EA050130BD5FEA4C0C404141EB010111F4801FA4F114
S32D0000C5500104E9D191F0000F04BF01460020B1FA81F308BF2033A3F10B03B3F120020CDA0C3208DD02F1140C87
S32D0000C578C2F10C0201FA0CF021FA02F10CE002F11402D8BFC2F1200C01FA02F120FA0CFCDCBF41EA0C019040B1
S32D0000C5A0E41AA2BF01EB0451294330BD6FEA04041F3C1CDA0C340EDC04F11404C4F1200220FA04F001FA02F3B6
S32D0000C5C840EA030021FA04F345EA030130BDC4F10C04C4F1200220FA02F001FA04F340EA0300294630BD21FAA8
S32D0000C5F004F0294630BD94F0000F83F4801306BF81F480110134013D4EE77FEA645C18BF7FEA655C29D094EA1C
S32D0000C618050F08BF90EA020F05D054EA000C04BF1946104630BD91EA030F1EBF0021002030BD5FEA545C05D1A3
S32D0000C6404000494128BF41F0004130BD14F580043CBF01F5801130BD01F0004545F0FE4141F470014FF0000031
S32D0000C66830BD7FEA645C1ABF194610467FEA655C1CBF0B46024650EA013406BF52EA033591EA030F41F40021D7
S32D0000C69030BD00BF90F0000F04BF0021704730B54FF4806404F132044FF000054FF0000150E700BF90F0000F66
S32D0000C6B804BF0021704730B54FF4806404F1320410F0004548BF40424FF000013EE700BF42004FEAE2014FEAF9
S32D0000C6E031014FEA02701FBF12F07F4393F07F4F81F06051704792F0000F14BF93F07F4F704730B54FF460741B
S32D0000C70801F0004521F0004120E700BF50EA010208BF704730B54FF000050AE050EA010208BF704730B511F046
S32D0000C730004502D5404261EB41014FF4806404F132045FEA915C3FF4DCAE4FF003025FEADC0C18BF03325FEAA0
S32D0000C758DC0C18BF033202EBDC02C2F1200300FA03FC20FA02F001FA03FE40EA0E0021FA02F11444C1E600BF19
S32D0000C78070B54FF0FF0C4CF4E06C1CEA11541DBF1CEA135594EA0C0F95EA0C0F00F0DEF82C4481EA030621EAF3
S32D0000C7A84C5123EA4C5350EA013518BF52EA033541F4801143F4801338D0A0FB02CE4FF00005E1FB02E506F05F
S32D0000C7D00042E0FB03E54FF00006E1FB03569CF0000F18BF4EF0010EA4F1FF04B6F5007F64F5407404D25FEA0F
S32D0000C7F84E0E6D4146EB060642EAC62141EA55514FEAC52040EA5E504FEACE2EB4F1FD0C88BFBCF5E06F1ED8D2
S32D0000C820BEF1004F08BF5FEA500E50F1000041EB045170BD06F0004646EA010140EA020081EA0301B4EB5C0487
S32D0000C848C2BFD4EB0C0541EA045170BD41F480114FF0000E013C00F3AB8014F1360FDEBF002001F0004170BDF0
S32D0000C870C4F10004203C35DA0C341BDC04F11404C4F1200500FA05F320FA04F001FA05F240EA020001F0004207
S32D0000C89821F0004110EBD37021FA04F642EB06015EEA430E08BF20EAD37070BDC4F10C04C4F1200500FA04F32F
S32D0000C8C020FA05F001FA04F240EA020001F0004110EBD37041F100015EEA430E08BF20EAD37070BDC4F12005C7
S32D0000C8E800FA05F24EEA020E20FA04F301FA05F243EA020321FA04F001F0004121FA04F220EA020000EBD37028
S32D0000C9105EEA430E08BF20EAD37070BD94F0000F0FD101F00046400041EB010111F4801F08BF013CF7D041EA6D
S32D0000C938060195F0000F18BF704703F00046520043EB030313F4801F08BF013DF7D043EA0603704794EA0C0FF1
S32D0000C9600CEA135518BF95EA0C0F0CD050EA410618BF52EA4306D1D181EA030101F000414FF0000070BD50EA38
S32D0000C988410606BF1046194652EA430619D094EA0C0F02D150EA013613D195EA0C0F05D152EA03361CBF10467B
S32D0000C9B019460AD181EA030101F0004141F0FE4141F470014FF0000070BD41F0FE4141F4780170BD70B54FF04D
S32D0000C9D8FF0C4CF4E06C1CEA11541DBF1CEA135594EA0C0F95EA0C0F00F0A7F8A4EB050481EA030E52EA03359B
S32D0000CA004FEA013100F088804FEA03334FF0805545EA131343EA12634FEA022245EA111545EA10654FEA002676
S32D0000CA280EF000419D4208BF964244F1FD0404F5407402D25B084FEA3202B61A65EB03055B084FEA32024FF461
S32D0000CA5080104FF4002CB6EB020E75EB030E22BFB61A754640EA0C005B084FEA3202B6EB020E75EB030E22BF22
S32D0000CA78B61A754640EA5C005B084FEA3202B6EB020E75EB030E22BFB61A754640EA9C005B084FEA3202B6EBEA
S32D0000CAA0020E75EB030E22BFB61A754640EADC0055EA060E18D04FEA051545EA16754FEA06164FEAC30343EAAC
S32D0000CAC852734FEAC2025FEA1C1CC0D111F4801F0BD141EA00014FF000004FF0004CB6E711F4801F04BF0143AE
S32D0000CAF00020B4F1FD0C88BFBCF5E06F3FF6AFAEB5EB030C04BFB6EB020C5FEA500C50F1000041EB045170BDBC
S32D0000CB180EF0004E4EEA113114EB5C04C2BFD4EB0C0541EA045170BD41F480114FF0000E013C90E645EA060EC3
S32D0000CB408DE60CEA135594EA0C0F08BF95EA0C0F3FF43BAF94EA0C0F0AD150EA01347FF434AF95EA0C0F7FF499
S32D0000CB6825AF104619462CE795EA0C0F06D152EA03353FF4FDAE1046194622E750EA410618BF52EA43067FF432
S32D0000CB90C5AE50EA41047FF40DAF52EA43057FF4EBAE12E74FF0FF3C06E000BF4FF0010C02E000BF4FF0010C75
S32D0000CBB84DF804CD4FEA410C7FEA6C5C4FEA430C18BF7FEA6C5C1BD001B050EA410C0CBF52EA430C91EA030FEC
S32D0000CBE002BF90EA020F0020704710F1000F91EA030F58BF994208BF90422CBFD8176FEAE37040F0010070476E
S32D0000CC084FEA410C7FEA6C5C02D150EA013C07D14FEA430C7FEA6C5CD6D152EA033CD3D05DF8040B704700BFCD
S32D0000CC308446104662468C461946634600E000BF01B5FFF7B7FF002848BF10F1000F01BD4DF808EDFFF7F4FF13
S32D0000CC580CBF012000205DF808FB00BF4DF808EDFFF7EAFF34BF012000205DF808FB00BF4DF808EDFFF7E0FF18
S32D0000CC8094BF012000205DF808FB00BF4DF808EDFFF7CEFF94BF012000205DF808FB00BF4DF808EDFFF7C4FF40
S32D0000CCA834BF012000205DF808FB00BF4FEA410212F5001215D211D56FF47873B3EB625212D94FEAC12343F0D6
S32D0000CCD0004343EA505311F0004F23FA02F018BF404270474FF00000704750EA013005D111F0004008BF6FF016
S32D0000CCF8004070474FF00000704700BF4A0011D212F5001211D20DD56FF47873B3EB62520ED44FEAC12343F085
S32D0000CD20004343EA505323FA02F070474FF00000704750EA013002D14FF0FF3070474FF0000070474FEA410241
S32D0000CD48B2F1E04324BFB3F5001CDCF1FE5C0DD901F0004C4FEAC0024CEA5070B2F1004F40EB830008BF20F09E
S32D0000CD700100704711F0804F21D113F13872BCBF01F00040704741F480114FEA5252C2F11802C2F1200C10FAB1
S32D0000CD980CF320FA02F018BF40F001004FEAC1234FEAD32303FA0CFC40EA0C0023FA02F34FEA4303CCE77FEA26
S32D0000CDC0625307D150EA01331EBF4FF0FE4040F44000704701F0004040F0FE4040F40000704700BF80F00040CC
S32D0000CDE802E000BF81F0004142001FBF5FEA410392EA030F7FEA226C7FEA236C6AD04FEA1262D2EB1363C1BF06
S32D0000CE10D218414048404140B8BF5B42192B88BF704710F0004F40F4000020F07F4018BF404211F0004F41F4FA
S32D0000CE38000121F07F4118BF494292EA030F3FD0A2F1010241FA03FC10EB0C00C3F1200301FA03F100F000432B
S32D0000CE6002D5494260EB4000B0F5000F13D3B0F1807F06D340084FEA310102F10102FE2A51D2B1F1004F40EB94
S32D0000CE88C25008BF20F0010040EA03007047490040EB000010F4000FA2F10102EDD1B0FA80FCACF1080CB2EB5F
S32D0000CEB00C0200FA0CF0AABF00EBC25052421843BCBFD0401843704792F0000F81F4000106BF80F400000132EB
S32D0000CED8013BB5E74FEA41037FEA226C18BF7FEA236C21D092EA030F04D092F0000F08BF0846704790EA010FD7
S32D0000CF001CBF0020704712F07F4F04D1400028BF40F00040704712F100723CBF00F50000704700F0004343F0DC
S32D0000CF28FE4040F4000070477FEA226216BF08467FEA23630146420206BF5FEA412390EA010F40F480007047C1
S32D0000CF504FF0000304E000BF10F0004348BF40425FEA000C08BF704743F0964301464FF000001CE050EA010264
S32D0000CF7808BF70474FF000030AE000BF50EA010208BF704711F0004302D5404261EB41015FEA010C02BF84465B
S32D0000CFA00146002043F0B64308BFA3F18053A3F50003BCFA8CF2083AA3EBC25310DB01FA02FC634400FA02FC6B
S32D0000CFC8C2F12002BCF1004F20FA02F243EB020008BF20F00100704702F1200201FA02FCC2F1200250EA4C0034
S32D0000CFF021FA02F243EB020008BF20EADC7070474FF0FF0C1CEAD0521EBF1CEAD15392EA0C0F93EA0C0F6FD019
S32D0000D0181A4480EA010C400218BF5FEA41211ED04FF0006343EA501043EA5111A0FB01310CF00040B1F5000FE7
S32D0000D0403EBF490041EAD3715B0040EA010062F17F02FD2A1DD8B3F1004F40EBC25008BF20F00100704790F058
S32D0000D068000F0CF0004C08BF49024CEA502040EA51207F3AC2BFD2F1FF0340EAC250704740F400004FF0000388
S32D0000D090013A5DDC12F1190FDCBF00F000407047C2F10002410021FA02F1C2F1200200FA02FC5FEA310040F1D5
S32D0000D0B8000053EA4C0308BF20EADC70704792F0000F00F0004C02BF400010F4000F013AF9D040EA0C0093F04C
S32D0000D0E0000F01F0004C02BF490011F4000F013BF9D041EA0C018FE70CEAD15392EA0C0F18BF93EA0C0F0AD00B
S32D0000D10830F0004C18BF31F0004CD8D180EA010000F00040704790F0000F17BF90F0004F084691F0000F91F0BB
S32D0000D130004F14D092EA0C0F01D142020FD193EA0C0F03D14B0218BF084608D180EA010000F0004040F0FE4051
S32D0000D15840F40000704740F0FE4040F4400070474FF0FF0C1CEAD0521EBF1CEAD15392EA0C0F93EA0C0F69D044
S32D0000D180A2EB030280EA010C49024FEA402037D04FF0805343EA111143EA10130CF000408B4238BF5B0042F14E
S32D0000D1A87D024FF4000C8B4224BF5B1A40EA0C00B3EB510F24BFA3EB510340EA5C00B3EB910F24BFA3EB9103A4
S32D0000D1D040EA9C00B3EBD10F24BFA3EBD10340EADC001B0118BF5FEA1C1CE0D1FD2A3FF650AF8B4240EBC25018
S32D0000D1F808BF20F0010070470CF0004C4CEA50207F32C2BFD2F1FF0340EAC250704740F400004FF00003013AF1
S32D0000D22037E792F0000F00F0004C02BF400010F4000F013AF9D040EA0C0093F0000F01F0004C02BF490011F4C9
S32D0000D248000F013BF9D041EA0C0195E70CEAD15392EA0C0F08D142027FF47DAF93EA0C0F7FF470AF084676E7AE
S32D0000D27093EA0C0F04D14B023FF44CAF08466EE730F0004C18BF31F0004CCAD130F000427FF45CAF31F0004376
S32D0000D2987FF43CAF5FE700BF4FF0FF3C06E000BF4FF0010C02E000BF4FF0010C4DF804CD4FEA40024FEA41039F
S32D0000D2C07FEA226C18BF7FEA236C11D001B052EA530C18BF90EA010F58BFB2EB030088BFC81738BF6FEAE1706E
S32D0000D2E818BF40F0010070477FEA226C02D15FEA402C05D17FEA236CE4D15FEA412CE1D05DF8040B704700BF16
S32D0000D310844608466146FFE70FB5FFF7C9FF002848BF10F1000F0FBD4DF808EDFFF7F4FF0CBF012000205DF839
S32D0000D33808FB00BF4DF808EDFFF7EAFF34BF012000205DF808FB00BF4DF808EDFFF7E0FF94BF012000205DF8A9
S32D0000D36008FB00BF4DF808EDFFF7D2FF94BF012000205DF808FB00BF4DF808EDFFF7C8FF34BF012000205DF8B1
S32D0000D38808FB00BF4FEA4002B2F1FE4F0FD34FF09E03B3EB12620DD94FEA002343F0004310F0004F23FA02F060
S32D0000D3B018BF404270474FF00000704712F1610F01D1420205D110F0004008BF6FF0004070474FF00000704797
S32D0000D3D8036803B11B181846704700BF03685A004CBF43F0004323F00043C018704700BF2DE9F84F0446914699
S32D0000D40041B301F1FF3BDA46002707EB0A0101EBD1756D1004EBC5063046FFF7E3FF8046681CAB4504EBC000FA
S32D0000D4280DD0FFF7DBFF0138C84504D9BD4209D005F1FF3AE5E7484505D26F1CE1E74FF0FF30F1E7002630469A
S32D0000D450BDE8F88F0E463046BDE8F88F30B52B4B83B004468D1E002B49D0284601A9AFF300800346002822D028
S32D0000D4782A4618460199FFF7BBFF054600281DD0FFF7ACFF6B68A064012B10D0281D002B22DBFFF7A3FF002164
S32D0000D4A0E06421650368002B0FDBFFF79BFF2061002003B030BD002323610520F9E720610920F6E72061092066
S32D0000D4C8F3E7C3F3036058B101280CD002280ED0002020610920E8E70122E0642265DDE7094B2361E1E7094AEF
S32D0000D4F000202261DDE7084900202161D9E7074B0749C81AC2100192B6E700BF0000000029DA000025DA0000AD
S32D0000D51821DA00008452020064540200036810B50446D80706D4990704F1480009D500F00DFD23685A0709D5A6
S32D0000D54018070ED5D90613D510BD00F0FBFC23685A07F5D404F1D00000F004FD23681807F0D404F5D87000F036
S32D0000D56805FD2368D906EBD404F50C70BDE8104000F040BD2DE9F0470F1D054691460FCFADF5916D02AC261D09
S32D0000D5900FC60FCF0FC60FCF0FC697E80F00D5F80C80D5F818A0002786E80F00216C27602846FFF753FF06460C
S32D0000D5B8B94514BF4FF00A094FF00909FEB1A16B49F01009616401208DE8100449462A462B46C04700282BD1BA
S32D0000D5E0002E2AD1204692A94FF4107214F060FB082F28D1216C2846FFF730FF06464FF00909002EDFD1206CD8
S32D0000D60821464FF41072686192A814F04DFB2F69294692AA4846B847A09B0746636401208DE8100449462A46B1
S32D0000D6302B46C0470028D3D00926304622B00DF5806DBDE8F087072FF6D1201D00F06EFC38B504460D46296C54
S32D0000D6582046FFF7FFFE50B92A6C23696261012021462A4698470828F1D0072801D016F027FC281D00F056FCE5
S32D0000D68011B933B10220704704298CBF0220012070470F2A01D90220704700EB820118464A68009B1A6070474D
S32D0000D6A810B50A4684B000210B4603AC0094FFF7E3FF039804B010BD11B933B10220704704298CBF0220012020
S32D0000D6D070470F2A01D902207047009900EB8202096818465160704710B584B004AB0C4643F8042D0021009330
S32D0000D6F822460B46FFF7E0FF04B010BD2DE9F04FCD6C8BB00C4655F8041B174600F008021E46039200F0030823
S32D0000D7200795002B40F0CF8009020691216D8DF821300323B8F1020F8DF8203008BFA56B11F0010340F0D3807B
S32D0000D748019304F158030293D5F80090B9F1000F00F0CB80022E00F0AE80B5F80090B5F802A00435A26C0F2198
S32D0000D7702AF0010B38469344FFF796FF834518D829F0010CE3440AF0010A09F00103584543EA4A092CBF002056
S32D0000D7980120B9F1010F12D032D2B8F1000F02D0002840F01D810435CEE70AF0010A09F0010343EA4A09002092
S32D0000D7C0B9F1010FECD1B8F1000F40F0B680C8B16B68D5F800909A1C19D0029A013309920DD0281DFFF7F8FDE6
S32D0000D7E84FEAD972014609AB204615F0D3FB002800F0F280099A002A40F0BA800835A3E7B9F1020F03D009201C
S32D0000D8100BB0BDE8F08F2B6823F000420092B8F1000F71D1002843D00398002840F0A1800098002800F0A08078
S32D0000D838009BDDF80C90DB0705F1040A40F1B480CDF810800596A846029E12E000998D4200F0D9800996FFF7B5
S32D0000D860BBFD5A46014609AB204615F097FBA946B0B90AF1040A05F1010950460996FFF7ABFD09AB01460022F9
S32D0000D888204615F087FB0AF1040A834609F101055046BBF1000FD9D04546059EDDF81080009A4A4564D02B6836
S32D0000D8B0002B7BDB0099481C05EB800548E7D5F804A0083552E70B04C1F30740216D06930222B8F1020F05EB42
S32D0000D8D8800508BFA56B8DF8210011F001038DF820203FF42DAF00200190384606A900F019FC002887D1019A49
S32D0000D900002A43D1082083E70D213846D4F82090FFF7CAFE8145CAD1A26A9542C7D10098291D00220423A0623E
S32D0000D928E26223636163286800286EDB01220192BCE70D213846D4F82090FFF7B1FE81457FF45CAFA16A8D42FE
S32D0000D9507FF458AF2846FFF745FD0F2102463846FFF7C2FE384600212246FFF7BDFE07204EE7009900299BD19B
S32D0000D97838460D21FFF794FE099B20626362A562062041E70F213846FFF78AFE0E2102463846FFF7A5FE3846D5
S32D0000D9A00F211E4AFFF7A0FE072031E7043581E7029950460991FFF70FFD039A014609AB204615F0EBFA002870
S32D0000D9C87FF46EAFCDF8108005960AF1040A4FF00109A846029E4CE7CDF824800835B3E62846FFF7FBFC0435CB
S32D0000D9F00646A563204615F047FB00283FF407AF38460F213246FFF76FFE072000E74546B2E7009B591C05EB3C
S32D0000DA1881009CE7F131020002236FE601236DE600236BE62DE9F0470446E8B004290CD8DFE801F038039193FC
S32D0000DA400F00150C012B96B200F07881052B00F0C780022068B0BDE8F087002BF9D1102AF7D82368D90600F115
S32D0000DA68738164A8019200F0CFFA019AA36BD00744BF53F8040B6490910744BF53F8041B6591500744BF53F8D3
S32D0000DA90041B6691110748BF53F8042B64A8A36348BF679200F0AAFA0020D3E7002BD0D1A36BD00791B244BF42
S32D0000DAB853F8042B62608A0744BF53F8042BA260480744BF53F8042BE2600A0744BF53F8042B2261C80644BF04
S32D0000DAE053F8042B62618A0644BF53F8042BA261480644BF53F8042BE2610A0644BF53F8042B2262C80544BFDC
S32D0000DB0853F8042B62628A0544BF53F8042BA262480544BF53F8042BE2620A0544BF53F8042B2263C80444BFB3
S32D0000DB3053F8042B626311F400501CBF53F8042BA2634A0444BF53F8042BE2630A0444BF53F8042B2264002890
S32D0000DB5840D1A3637AE7012078E7032B7FF475AF160C95B2AA19102A3FF66FAF2368180700F10B8144A800F026
S32D0000DB801BFAA76B4FEA450E3B460DB344A90EF1FF3C01EBC60653F8040B62460CF0010146F8040B92B129B13A
S32D0000DBA853F8041B013A46F8041B0BD01846314650F8045B41F8045B5D68031D75600E1D023AF3D107EB8E03F6
S32D0000DBD044A8A36300F0CEF900203BE7002039E777192022BA42FFF434AF012B00F0A9800F2D40F2A9803746FF
S32D0000DBF8F6B1052B7FF429AF0F2D11D82268D0070ED522F00101052B2160204600F0DA8022F0030240F8482B3D
S32D0000DC20019300F093F9019B1FB12268510700F1B880012B00F0BF800F2D75D9002F40F0A080D4F83890002E29
S32D0000DC48C8462EDD49460DF1080A4FEA46080AEBC50251F8046B08F1FF3000F0010A42F8046BA8F1020CD0B107
S32D0000DC70BAF1000F08D051F8040B0CF1FF3CBCF1FF3F42F8040B0ED00E46104656F804AB40F804AB4968ACF176
S32D0000DC98020C5160311D021DBCF1FF3FF0D109EB8808A7B3102D2CBF2E4610260DF5D079414609EBC60CACF59D
S32D0000DCC0C8724FEA470951F8046B09F1FF3000F0010A42F8046BA9F1020CD0B1BAF1000F08D051F8040B0CF1DE
S32D0000DCE8FF3CBCF1FF3F42F8040B0ED00E46104656F804AB40F804AB4968ACF1020C5160311D021DBCF1FF3FCE
S32D0000DD10F0D108EB8908012B2BD00F2DC4F8388008D9FFB9384695E602A8019300F016F9019B83E702A800F05A
S32D0000DD380DF9F2E77719102250E70F2D3FF685AE102F10D9103F54E723F01003236004F50C70019200F058F99D
S32D0000DD60019A82E624A800F0FDF8002072E6002746E708F1040302A8A36300F0E3F8002068E624A80193C5F116
S32D0000DD88100600F0EFF8019B57E723F0080704F5D870276000F00CF9ECE6204622F0040140F8D01B019300F0D1
S32D0000DDB0DDF8019B3DE702A8019300F0C7F8019B002F3FF43EAFC5F110063AE741F0020140F8481B019300F098
S32D0000DDD8C1F8019B24E700BF406C7047F0B50D460F1DC96B296404460FCFADF5117D01AE0FC60FCF0FC60FCF49
S32D0000DE000FC697E80F0086E80F004FF0FF33009310992046FFF722FB58B9266921466A46B04708280646F3D001
S32D0000DE286846FFF77BFB062E03D009200DF5117DF0BD20462946FFF707FC00BF10B4DC6BC16082611946002228
S32D0000DE501C6410BCFFF792BB38B54269C3680A6404460D4623B10122FFF788FB16F02CF80369214602202A4648
S32D0000DE789847072803D0082804D016F021F8281D00F050F820462946FFF7DEFBC36823B1CA6B0A640022FFF79D
S32D0000DEA06DBB9FE7704700BF08B5836801460BB10120984708BD00BFF0B5D46B171D146405460C460FCFADF554
S32D0000DEC8277D01AE0FC60FCF0FC60FCF0FC697E80F0086E80F004FF0FF330093109990A8FFF7B8FA034690AA83
S32D0000DEF068460C21BBB9FFF7F7FB21466846A847064690A908206A466EB9949B98470528064601D00928E5D106
S32D0000DF186846FFF703FB30460DF5277DF0BD0926F6E700BF00F1340191E838009C46A6464CF8045D90E8FF0FD5
S32D0000DF40E54600BD90EC210B704700BF80EC210B704700BF90EC200B704700BF80EC200B704700BFD0EC200B8E
S32D0000DF68704700BFC0EC200B704700BFF0EC0201F0EC0211F0EC0221F0EC0231F0EC0241F0EC0251F0EC02615F
S32D0000DF90F0EC0271F0EC0281F0EC0291F0EC02A1F0EC02B1F0EC02C1F0EC02D1F0EC02E1F0EC02F1704700BFE6
S32D0000DFB8E0EC0201E0EC0211E0EC0221E0EC0231E0EC0241E0EC0251E0EC0261E0EC0271E0EC0281E0EC029155
S32D0000DFE0E0EC02A1E0EC02B1E0EC02C1E0EC02D1E0EC02E1E0EC02F1704700BFB0FC0181B0FC0191B0FC01A159
S32D0000E008B0FC01B1704700BFA0FC0181A0FC0191A0FC01A1A0FC01B1704700BFEC4600B52DE900502DE9FF1F47
S32D0000E0304FF000032DE90C0001A9FFF7D3FEDDF840E012B0704700BFEC4600B52DE900502DE9FF1F4FF00003FD
S32D0000E0582DE90C0001A9FFF7FBFEDDF840E012B0704700BFEC4600B52DE900502DE9FF1F4FF000032DE90C00CD
S32D0000E08001A9FFF707FFDDF840E012B0704700BFEC4600B52DE900502DE9FF1F4FF000032DE90C0001ABFFF718
S32D0000E0A8CDFEDDF840E012B0704700BFEC4600B52DE900502DE9FF1F4FF000032DE90C0001AAFFF7F5FEDDF804
S32D0000E0D040E012B0704700BF027A03461AB9427A42B9B02070470068013A01021A72000E196070474168501E6D
S32D0000E0F8587251F8040B0322596001021A72000E1960704710B5002184B00C220DEB02040B460094FFF7B0FA62
S32D0000E120039804B010BD00BFF0E700BF2DE9F043064685B00D464FF000094FF47F672846FFF7CAFFB028044683
S32D0000E14800F0B08010F0800120D000F0F003802B74D0902B37D0A02B45D0B02B56D0C02B00F0858000F0F800DB
S32D0000E170D0280BD104F00702511C41F40022304601210523FFF752FC0028D8D0092005B0BDE8F0834FEA800267
S32D0000E19803A85FFA82F800900D220B463046FFF76BFA039B600608F104084CBFC8EB0303434403AC03930094CD
S32D0000E1C0002130460D220B46FFF77AFAB7E700F00F020D2ADAD00F2AD8D0002103AC009430460B4603ACFFF77F
S32D0000E1E84BFA0094E8E7C24302F0070C47FA0CF0210700F47F6248BF42F48042002130460B46FFF70FFC00280D
S32D0000E210BCD194E7B1285DD0B2286ED0B32800F0958000F0FC02B42A46D000F00702531C43F40022012130469F
S32D0000E2380B46FFF7F7FB0028A4D17CE72846FFF747FF210240EA0104B4F5004F9AD0230500211A0C30460B46EB
S32D0000E2602401FFF7E3FB002890D114F4004F18BF4FF0010963E7C62873D0C72800F0848000F0F802C02A00F075
S32D0000E2889280C82800F0A680C9287FF47BAF2846FFF71EFF00F00F0300F0F0015A1C42EA013268E7B9F1000F81
S32D0000E2B000F0838000206AE700F00301481C022140F480220B463046FFF7B0FB00287FF45DAF34E72846FFF7FD
S32D0000E2D8FFFE024600283FF455AF10F0F0017FF451AF30460B46FFF79DFB00287FF44AAF21E700210D220B467E
S32D0000E30003AC30460094FFF7BBF92846FFF7E4FE022402060DD5039B00F07F0000FA04FE03EB0E01284603912E
S32D0000E328FFF7D6FE07340306F1D4039B00F07F0103AA03F5017C01FA04F400920CEB0402039239E72846FFF729
S32D0000E350C3FE00F00F03591C00F0F00041EA003268E72846FFF7B8FE00F00F03591C00F0F00041EA00320321E9
S32D0000E37830460B46FFF756FB00287FF403AFDAE62846FFF7A5FE024600283FF4FBAE10F0F0037FF4F7AE304688
S32D0000E3A00421FFF743FB00287FF4F0AEC7E600F00F01481C40F42022DDE703AC49460E224B4630460094FFF773
S32D0000E3C85BF9304649460F224B460094FFF774F94846D8E62846FFF77BFE00F0F00200F00F001032431C43EA3D
S32D0000E3F00232C4E610B5C26C84B0032054688DF80C00D37924020832084601A9019402928DF80D30FFF78AFE7D
S32D0000E41804B010BD08B5FFF783FE806C08BD00BF08B5FFF77DFEC16CC87901EB800303F1080008BD08B515F023
S32D0000E44043FD00BF08B515F03FFD00BF80B483B000AF78607B68064A1A607B68044A5A607B68184607F10C0720
S32D0000E468BD4680BC704700BF00000000B0B582B000AF78607B6803F104031D464FF0070406E02846FFF7DEFF01
S32D0000E49005F1080504F1FF34B4F1FF3F0CBF00230123DBB2002BF0D17B68184607F10807BD46B0BD80B582B0A6
S32D0000E4B800AF78607B681846FFF7C4FF7B6803F108031846FFF7BEFF7B6803F110031846FFF7B8FF7B6803F1F6
S32D0000E4E018031846FFF7B2FF7B68184607F10807BD4680BD80B582B000AF78607B681846FFF7A4FF7B6803F1C7
S32D0000E50808031846FFF79EFF7B6803F110031846FFF798FF7B6803F118031846FFF792FF7B68184607F10807F5
S32D0000E530BD4680BD80B582B000AF78607B681846FFF784FF7B6803F108031846FFF77EFF7B6803F110031846DA
S32D0000E558FFF778FF7B6803F118031846FFF772FF7B68184607F10807BD4680BD80B582B000AF78607B681846BA
S32D0000E580FFF764FF7B6803F108031846FFF75EFF7B6803F118031846FFF76CFF7B6803F15C031846FFF766FFE1
S32D0000E5A87B6803F1A0031846FFF74CFF7B6803F1A8031846FFF746FF7B6803F1B4031846FFF740FF7B681846AF
S32D0000E5D007F10807BD4680BDB0B582B000AF78607B681846FFF732FF7B6803F108031846FFF72CFF7B6803F118
S32D0000E5F818031846FFF726FF7B6803F124031846FFF720FF7B6803F12C031846FFF71AFF7B6803F1380318460D
S32D0000E620FFF728FF7B6803F17C031846FFF722FF7B6803F1C0031846FFF75CFF7B6803F1F0031846FFF736FF48
S32D0000E6487B6803F58A731D464FF0070406E02846FFF78CFF05F1BC0504F1FF34B4F1FF3F0CBF00230123DBB2E9
S32D0000E670002BF0D17B6803F5DE6303F104031D464FF0050406E02846FFF754FF05F1240504F1FF34B4F1FF3F07
S32D0000E6980CBF00230123DBB2002BF0D17B68184607F10807BD46B0BD80B582B000AF786039607B68012B0AD1A0
S32D0000E6C03A684FF6FF739A4205D141F23010C1F6FF70FFF781FF07F10807BD4680BD00BF80B500AF4FF00100E8
S32D0000E6E84FF6FF71FFF7E0FF80BD00BF80B582B000AF7860786810F089FB0346184607F10807BD4680BD00BF7F
S32D0000E71080B582B000AF7860786810F09BFC0346184607F10807BD4680BD00BF80B582B000AF7860786810F0FB
S32D0000E738D9FC0346184607F10807BD4680BD00BF80B485B000AFF860B9607A60FB68BA681A60FB687A685A60D0
S32D0000E760FB68184607F11407BD4680BC704700BFB0B582B000AF78607B681B6818464FF000024FF0804307F0E6
S32D0000E788F9FE04460D467B685B6818464FF000024FF0804307F0EEFE02460B4620462946FDF738FE02460B4674
S32D0000E7B01046194610F008FD02460B4610461946FEF7C0FA0346184607F10807BD46B0BD90B589B000AF786061
S32D0000E7D839603868FFF7C8FF0346FB617868FFF731FEF8691B49FEF79BFD0346002B0ED007F10C03184617490A
S32D0000E800164AFFF7A1FF7B6807F10C0292E8030083E803001CE03B681B681846F969FEF7A3FC03461C463B685C
S32D0000E8285B681846F969FEF79BFC034607F11402104621461A46FFF783FF7B6807F1140292E8030083E80300EB
S32D0000E850786807F12407BD4690BD00BF0000000090B587B000AF786039603868FDF734FF02460B4610461946D7
S32D0000E87827A3D3E90023FDF77FFF02460B4610461946FEF75BFA03467B617B681B683B617B685B68FB607869B6
S32D0000E8A0FFF736FF034618463969FEF7A9FB03461C467869FFF73AFF03461846F968FEF79FFB034620461946DD
S32D0000E8C8FEF790FA03461A467B681A607869FFF729FF034618463969FEF78EFB03461C467869FFF711FF0346FC
S32D0000E8F01846F968FEF784FB034620461946FEF777FA03461A467B685A6007F11C07BD4690BD00BFAFF30080C1
S32D0000E918439852A246DF913F90B585B000AF78607B681A687B685B6810461946FEF718FC03461846FFF7DAFECE
S32D0000E940034683F000431846FDF7C6FE02460B461046194616A3D3E90023FEF73BF802460B4610461946FEF743
S32D0000E968EDF90346FB607B685B684FF00102144618460F49FEF7E8FC0346002B02D14FF000031C46E3B2002B7B
S32D0000E99005D0F8680949FEF72BFA0346FB60FB68184607F11407BD4690BD00BFAFF30080439852A246DF913F4B
S32D0000E9B8000000000000344380B582B000AF786039603868FDF784FE02460B46104619460DA3D3E90023FDF74C
S32D0000E9E0CFFE02460B461046194610F0C3FB02460B4610461946FEF7A5F90346786806491A46FFF7A1FE786802
S32D0000EA0807F10807BD4680BD439852A246DF913F0000803FAFF3008080B485B000AFF860B9607A60FB68BA680C
S32D0000EA301A60FB687A685A60FB68184607F11407BD4680BC704700BF80B483B000AF78607B684FF000021A602A
S32D0000EA587B684FF000025A607B68184607F10C07BD4680BC704700BFB0B5A0B002AFF860FB681846FFF7E6FC5A
S32D0000EA80FB6803F108031846FFF7E0FCFB6803F110031846FFF7DAFCFB6803F118031846FFF7D4FCFB6803F155
S32D0000EAA820031846FFF7CEFCFB6803F128031846FFF7C8FCFB6803F130031846FFF7C2FCFB6803F138031846D9
S32D0000EAD0FFF7BCFCFB6803F140031846FFF7B6FCFB6803F148031846FFF7B0FCFB6803F150031846FFF7AAFC84
S32D0000EAF8FB6803F158031846FFF7A4FCFB6803F160031846FFF79EFCFB6803F168031846FFF798FCFB6803F1A1
S32D0000EB2070031846FFF792FCFB6803F178031846FFF78CFCFB6803F180031846FFF786FCFB6803F188031846D4
S32D0000EB48FFF780FCFB6803F190031846FFF77AFC07F110031846D049D04AFFF7F1FDFB6807F1100292E803000F
S32D0000EB7083E8030007F118031846CB49C94AFFF7E3FDFB6803F1080307F1180292E8030083E8030007F1200321
S32D0000EB981846C249C04AFFF7D3FDFB6803F1100307F1200292E8030083E8030007F128031846BA49BA4AFFF729
S32D0000EBC0C3FDFB6803F1180307F1280292E8030083E80300B0A3D3E90023C7E91C23D7E91C01FEF7AFF8034605
S32D0000EBE883F0004307F1300210461946AA4AFFF7A7FDFC683A4607F1300310461946FFF7E3FD04F128033A46A2
S32D0000EC1092E8030083E8030007F138031846A1499F4AFFF791FDFC683A4607F1380310461946FFF7CDFD04F182
S32D0000EC3830033A4692E8030083E8030007F1400318469849944AFFF77BFDFC683A4607F1400310461946FFF780
S32D0000EC60B7FD04F138033A4692E8030083E8030007F1480318468D498B4AFFF765FDFC683A4607F14803104616
S32D0000EC881946FFF7A1FD04F140033A4692E8030083E8030007F1500318468049804AFFF74FFDFC683A4607F16E
S32D0000ECB0500310461946FFF78BFD04F148033A4692E8030083E80300D7E91C01FEF73AF8034683F0004307F10A
S32D0000ECD8580210461946724AFFF732FDFC683A4607F1580310461946FFF76EFD04F120033A4692E8030083E851
S32D0000ED00030007F1600318466849654AFFF71CFDFB6803F1800307F1600292E8030083E8030007F168031846DA
S32D0000ED2860495F4AFFF70CFDFB6803F1880307F1680292E8030083E80300FC683A46FB68F9686D4601F12801C7
S32D0000ED5003C985E803001046F96803F120030CCB00F01EF904F150033A4692E8030083E80300FC683A46FB68B3
S32D0000ED78F9686D4601F1300103C985E803001046F96803F128030CCB00F006F904F158033A4692E8030083E8A6
S32D0000EDA00300FC683A46FB68F9686D4601F1380103C985E803001046F96803F130030CCB00F0EEF804F160039D
S32D0000EDC83A4692E8030083E80300FC683A46FB68F9686D4601F1400103C985E803001046F96803F138030CCB2B
S32D0000EDF000F0D6F804F168033A4692E8030083E80300FC683A46FB68F9686D4601F1480103C985E80300104644
S32D0000EE18F96803F140030CCB00F0BEF804F170033A4692E8030083E80300FC683A46FB68F9686D4601F1200176
S32D0000EE4003C985E803001046F96803F148030CCB00F0A6F804F178033A4692E8030083E80300FC683A46FB68EB
S32D0000EE68F9686D4601F1880103C985E803001046F96803F180030CCB00F08EF804F190033A4692E8030083E846
S32D0000EE900300FB6818460BE0AA4C58E87AB6FB3F0000803F00000000000080BFD7B3DD3F07F17807BD46B0BD7A
S32D0000EEB880B584B000AF786039603B68FB607B6803F120031846F968FFF7C6FC7B6803F128031846F968FFF77D
S32D0000EEE0BFFC7B6803F130031846F968FFF7B8FC7B6803F138031846F968FFF7B1FC7B6803F140031846F96889
S32D0000EF08FFF7AAFC7B6803F148031846F968FFF7A3FC7B6803F150031846F968FFF79CFC7B6803F158031846C2
S32D0000EF30F968FFF795FC7B6803F160031846F968FFF78EFC7B6803F168031846F968FFF787FC7B6803F170038E
S32D0000EF581846F968FFF780FC7B6803F178031846F968FFF779FC7B6803F180031846F968FFF772FC7B6803F18A
S32D0000EF8088031846F968FFF76BFC7B6803F190031846F968FFF764FC07F11007BD4680BD90B587B000AF7861EA
S32D0000EFA8396107F1080181E80C00BA68BB6A10461946FDF719FF03461C46FA68FB6A10461946FDF711FF0346AF
S32D0000EFD0786921461A46FFF7B7FB7C693B4618467969FFF7F5FB23463A4692E8030083E80300786907F11C0767
S32D0000EFF8BD4690BD82B0B0B58CB000AFF86007F1040080E806007B64FB681D464FF0010406E02846FFF716FA14
S32D0000F02005F1080504F1FF34B4F1FF3F0CBF00230123DBB2002BF0D1FB6803F114031846FFF702FDFB6807F10D
S32D0000F048040292E8030083E80300FB6803F1080307F1440292E8030083E80300FB68FA6C1A61FB681B69032BC5
S32D0000F07056D801A252F823F089F00000AFF00000D5F00000FBF0000007F1100318464FF000014FF0FF32FFF76D
S32D0000F098C3FCFB6803F1140307F1100292E8030083E8030039E007F1180318464FF0FF314FF00002FFF7B0FC4C
S32D0000F0C0FB6803F1140307F1180292E8030083E8030026E007F1200318464FF000014FF00102FFF79DFCFB68C4
S32D0000F0E803F1140307F1200292E8030083E8030013E007F1280318464FF001014FF00002FFF78AFCFB6803F121
S32D0000F110140307F1280292E8030083E8030000E000BFFB68184607F13007BD46BDE8B04002B07047B0B582B086
S32D0000F13800AF78607B681D464FF0010406E02846FFF780F905F1080504F1FF34B4F1FF3F0CBF00230123DBB228
S32D0000F160002BF0D17B6803F114031846FFF76CFC7B68184607F10807BD46B0BDB0B58AB000AFF86007F1040091
S32D0000F18880E806003B60FB681D464FF0030406E02846FFF757F905F1080504F1FF34B4F1FF3F0CBF002301238A
S32D0000F1B0DBB2002BF0D1FB683A681A62FB68BA6B5A62FB6807F1040292E8030083E803007A68FB681B6A104687
S32D0000F1D81946FDF709FE03461A46BB6807F11001084611461A46FFF7ABFAFB6803F1080307F1100292E8030051
S32D0000F20083E803007C68BA68FB685B6A10461946FDF7ECFD034607F11802104621461A46FFF792FAFB6803F161
S32D0000F228100307F1180292E8030083E803007A68FB681B6A10461946FDF7D6FD03461C46BA68FB685B6A104617
S32D0000F2501946FDF7CBFD034607F12002104621461A46FFF771FAFB6803F1180307F1200292E8030083E803001D
S32D0000F278FB68184607F12807BD46B0BDB0B582B000AF78607B681D464FF0030406E02846FFF7D8F805F1080549
S32D0000F2A004F1FF34B4F1FF3F0CBF00230123DBB2002BF0D17B68184607F10807BD46B0BDB0B584B000AFF86052
S32D0000F2C807F1040080E806003B60FB681D464FF0000406E02846FFF7B5F805F1080504F1FF34B4F1FF3F0CBF3A
S32D0000F2F000230123DBB2002BF0D1FB683A689A60FB6807F1040292E8030083E80300FB68184607F11007BD4612
S32D0000F318B0BD00BFB0B582B000AF78607B681D464FF0000406E02846FFF78CF805F1080504F1FF34B4F1FF3F18
S32D0000F3400CBF00230123DBB2002BF0D17B68184607F10807BD46B0BDB0B586B000AFF860B9607A60FB6803F170
S32D0000F36804031D464FF0070406E02846FFF76AF805F1080504F1FF34B4F1FF3F0CBF00230123DBB2002BF0D17E
S32D0000F390FB687A681A604FF000037B6113E07B694FEAC303BA68D218F9687B694FEAC303CB1803F1040392E8F4
S32D0000F3B8030083E803007B6903F101037B61FB681A687B699A42D4BF00230123DBB2002BE1D1FB68184607F15C
S32D0000F3E01807BD46B0BD00BF80B584B000AF786039604FF00003FB600EE0FB684FEAC3037A68D31803F1040373
S32D0000F40818463968FFF728FAFB6803F10103FB607B681A68FB689A42D4BF00230123DBB2002BE6D107F110070D
S32D0000F430BD4680BD90B589B000AFF86007F1040383E806004FF00003FB6130E0FA68FB694FEAC303D3185A6859
S32D0000F4587B6810461946FDF7C7FC03461C46FA68FB694FEAC303D3189A68BB6810461946FDF7BAFC034607F117
S32D0000F4801402104621461A46FFF75EF9FA68FB694FEAC303D31803F1040307F1140292E8030083E80300FB69D6
S32D0000F4A803F10103FB61FB681A68FB699A42D4BF00230123DBB2002BC4D107F12407BD4690BD00BF82B080B5FD
S32D0000F4D084B000AFF86007F1040080E80600FB61FB681846FEF7B2FFFB6803F108031846FEF7ACFFFB6803F1EF
S32D0000F4F810031846FEF7A6FFFB6803F118031846FEF7A0FFFB6807F1040292E8030083E80300FB6803F10803C9
S32D0000F52007F11C0292E8030083E80300F86800F0C9F8FB68184607F11007BD46BDE8804002B0704790B587B08E
S32D0000F54800AF7860194B3B61194BFB604FF00003FB757B681B6A4FF00102144618463969FDF7FCFE0346002B37
S32D0000F57002D14FF000031C46E3B2002B14D07B681B6A4FF0010214461846F968FDF7D6FE0346002B02D14FF041
S32D0000F59800031C46E3B2002B02D04FF00103FB75FB7D184607F11C07BD4690BDCDCC0C3F6666C63F90B587B029
S32D0000F5C000AF7860194B3B61194BFB604FF00003FB757B681B6A4FF00102144618463969FDF7C0FE0346002BFB
S32D0000F5E802D14FF000031C46E3B2002B14D07B681B6A4FF0010214461846F968FDF79AFE0346002B02D14FF005
S32D0000F61000031C46E3B2002B02D04FF00103FB75FB7D184607F11C07BD4690BD00000000CDCC0C3F90B587B081
S32D0000F63800AF7860194B3B61194BFB604FF00003FB757B681B6A4FF00102144618463969FDF784FE0346002BBE
S32D0000F66002D14FF000031C46E3B2002B14D07B681B6A4FF0010214461846F968FDF75EFE0346002B02D14FF0C8
S32D0000F68800031C46E3B2002B02D04FF00103FB75FB7D184607F11C07BD4690BD000000000000803F80B483B043
S32D0000F6B000AF78607B681B6A184607F10C07BD4680BC704790B589B000AFF860FB6803F10803FC683A461046BD
S32D0000F6D81946FFF779F804F108033A4692E8030083E80300FB681A68FB685B6807F11001084611461A46FFF7C4
S32D0000F70023F8FB6803F1100307F1100292E8030083E80300FB689A68FB68DB6807F11801084611461A46FFF74A
S32D0000F7280FF8FB6803F1180307F1180292E8030083E80300FB68034A1A6207F12407BD4690BD00BF0000803F20
S32D0000F75082B080B584B000AFF86007F1040080E80600FB61FB681846FEF770FEFB6803F108031846FEF76AFEE2
S32D0000F778FB6803F110031846FEF764FEFB6803F118031846FEF75EFEFB6807F1040292E8030083E80300FB6874
S32D0000F7A003F1080307F11C0292E8030083E80300FB687A6A1A62F86800F018F8FB68184607F11007BD46BDE8A0
S32D0000F7C8804002B0704700BF80B483B000AF786039607B683A681A6207F10C07BD4680BC704700BF90B589B065
S32D0000F7F000AFF860FB6803F10803FC683A4610461946FEF7E5FF04F108033A4692E8030083E80300FB681A68C0
S32D0000F818FB685B6807F11001084611461A46FEF78FFFFB6803F1100307F1100292E8030083E80300FB689A6847
S32D0000F840FB68DB6807F11801084611461A46FEF77BFFFB6803F1180307F1180292E8030083E80300FB684FF45A
S32D0000F868FA725A62FB6840F6C4129A62FB684FF0000283F82C2007F12407BD4690BD00BF82B080B584B000AFF8
S32D0000F890F86007F1040080E80600FB61FB681846FEF7D4FDFB6803F108031846FEF7CEFDFB6803F1100318465D
S32D0000F8B8FEF7C8FDFB6803F118031846FEF7C2FDFB6807F1040292E8030083E80300FB6803F1080307F11C0220
S32D0000F8E092E8030083E80300F86800F069F8FB68184607F11007BD46BDE8804002B0704780B483B000AF7860CF
S32D0000F9087B6893F82030184607F10C07BD4680BC704700BF80B582B000AF786039607B6818463968FEF798FF00
S32D0000F9307B6803F1080318463968FEF791FF07F10807BD4680BD00BF80B586B000AF786039607B689A697B68E9
S32D0000F958DB6907F10801084611461A46FEF7F0FE7B6803F1080307F1080292E8030083E803007B681A697B683C
S32D0000F9805B6907F11001084611461A46FEF7DCFE7B6807F1100292E8030083E803007B6803F1080318463968FF
S32D0000F9A8FEF75AFF7B6818463968FEF755FF07F11807BD4680BD00BF90B589B000AFF860FB6803F10803FC6857
S32D0000F9D03A4610461946FEF7FBFE04F108033A4692E8030083E80300FB681A68FB685B6807F1100108461146C2
S32D0000F9F81A46FEF7A5FEFB6803F1100307F1100292E8030083E80300FB689A68FB68DB6807F1180108461146C9
S32D0000FA201A46FEF791FEFB6803F1180307F1180292E8030083E80300FB684FF0010283F8202007F12407BD46DF
S32D0000FA4890BD00BF82B080B584B000AFF86007F1040080E80600FB61FB681846FEF7F2FCFB6803F108031846B8
S32D0000FA70FEF7ECFCFB6803F118031846FEF7FAFCFB6803F15C031846FEF7F4FCFB6803F1A0031846FEF7DAFCB4
S32D0000FA98FB6803F1A8031846FEF7D4FCFB6803F1B4031846FEF7CEFCFB6807F1040292E8030083E80300FB6841
S32D0000FAC003F1080307F11C0292E8030083E80300FB687A6A1A61FB68BA6A5A61F86800F097F8FB68184607F17C
S32D0000FAE81007BD46BDE8804002B0704780B483B000AF78607B68044AC3F8B02007F10C07BD4680BC704700BF9E
S32D0000FB100000000080B483B000AF786039607B683A68C3F8B02007F10C07BD4680BC704780B582B000AF786041
S32D0000FB3839607B6803F1180318463968FFF750FC7B6818463968FEF787FE7B6803F1080318463968FEF780FE23
S32D0000FB6007F10807BD4680BD80B586B000AF786039607A687B6802F1180103F15C024FF04403084611461A46F7
S32D0000FB8812F092F87B6803F1180318463968FFF727FC7B68D3F8A8207B68D3F8AC3007F10801084611461A46B3
S32D0000FBB0FEF7CAFD7B6803F1080307F1080292E8030083E803007B68D3F8A0207B68D3F8A43007F11001084655
S32D0000FBD811461A46FEF7B4FD7B6807F1100292E8030083E803007B6803F1080318463968FEF732FE7B68184683
S32D0000FC003968FEF72DFE07F11807BD4680BD00BF90B5B1B002AFF860FB6803F10803FC683A4610461946FEF760
S32D0000FC28D3FD04F108033A4692E8030083E80300FB681B6983F00044FB685B6918465649FDF78EFA034607F1F4
S32D0000FC505C02104621461A46FEF776FDFB681B6918461946FDF7C4F80346FA68516907F114020091104607F1FD
S32D0000FC785C0206CAFFF77EFA07F13C031A4607F1140103C982E8030003F108031A4607F11C0103C982E8030038
S32D0000FCA003F108031A4607F12C0103C982E8030003F1080307F1240292E8030083E8030007F1640207F13C03DC
S32D0000FCC8104619464FF00402FFF742FBFB6803F15C0107F164024FF04403084611461A4611F0E2FFFB6803F10B
S32D0000FCF05C04FB6803F108031846FEF711FE034618462849FDF774F8034620461946FFF76BFBFB6803F15C022B
S32D0000FD18FB68104693E80600FFF788FBFA68FB6802F1180103F15C024FF04403084611461A4611F0B9FFFB6840
S32D0000FD401A68FB685B6807F1A801084611461A46FEF7FAFCFB6803F1A00307F1A80292E8030083E80300FB6872
S32D0000FD689A68FB68DB6807F1B001084611461A46FEF7E6FCFB6803F1A80307F1B00292E8030083E80300FB6846
S32D0000FD90054AC3F8B02007F1BC07BD4690BD00BF000000400000B4420000000082B0F0B59FB000AF786107F1C5
S32D0000FDB80C0080E80600C7F894307B691846FEF741FB7B6903F108031846FEF73BFB7B6903F118031846FEF7FB
S32D0000FDE035FB7B6903F124031846FEF72FFB7B6903F12C031846FEF729FB7B6903F144031846FEF737FB7B6943
S32D0000FE0803F188031846FEF731FB7B6903F1CC031846FEF76BFB7B6903F1FC031846FEF745FB7B6903F5907325
S32D0000FE301D464FF0070406E02846FEF79BFB05F1BC0504F1FF34B4F1FF3F0CBF00230123DBB2002BF0D17B69E7
S32D0000FE5803F5E0631D464FF0050406E02846FEF765FB05F1240504F1FF34B4F1FF3F0CBF00230123DBB2002BF9
S32D0000FE80F0D17B6907F10C0292E8030083E803007C693A4607F1940310461946FEF798FC04F108033A4692E892
S32D0000FEA8030083E803007B6903F1FC0407F58C750FCD0FC40FCD0FC42B6823607B6903F1CC0607F11C0407F1B8
S32D0000FED0E8050FCD0FC40FCD0FC495E80F0084E80F0007F11C039E4208D031461A464FF02D03084611461A4698
S32D0000FEF811F0DAFE7B69D7F840211A614FF000037B671DE07B6F4FF0BC0202FB03F3D7F83C21D31879697A6F97
S32D0000FF204FF0BC0000FB02F28A1802F5907211461A464FF0BC03084611461A4611F0B8FE7B6F03F101037B67F9
S32D0000FF487B691A697B6F9A42D4BF00230123DBB2002BD7D17B6903F1880107F1A4024FF04403084611461A469A
S32D0000FF7011F09EFE7B6903F1440107F1A4024FF04403084611461A4611F092FE7B6903F1180307F19C0292E8EC
S32D0000FF98030083E803007B69D7F84C211A627B69D7F848215A614FF000033B672EE03A6F13464FEAC3039B18B1
S32D0000FFC04FEA830303F5E0637A69D6183A6F13464FEAC3039B184FEA8303D7F84421D31807F14C041D460FCD2F
S32D0000FFE80FC40FCD0FC42B68236007F14C039E4208D031461A464FF02103084611461A4611F052FE3B6F03F126
S32D0001001001033B677B695A693B6F9A42D4BF00230123DBB2002BC6D17B69084A9A637B69064ADA637B69054AEE
S32D000100381A647B69184607F17C07BD46BDE8F04002B070470000803F80B586B000AF786039607B68D3F8D03124
S32D0001006018463968FCF7C4FE03467B617B68D3F88C3218463968FCF7BBFE03463B617B68D3F848331846396874
S32D00010088FCF7B2FE0346FB607B689B6B78691946FCF7B2FF03467B617B68DB6B38691946FCF7AAFF03463B6166
S32D000100B07B681B6CF8681946FCF7A2FF0346FB607B6803F5907318467969FFF723FD7B6803F5EE731846396950
S32D000100D8FFF71CFD7B6803F526731846F968FFF715FD07F11807BD4680BD00BF2DE9B04388B000AFF86007F159
S32D00010100040080E806003B60614BFB617B681846FCF7E2FA02460B46104619464FF000024FF07E5303F5C00351
S32D00010128FCF72AFB02460B4614461D46F869FCF7CFFA02460B46104619464FF000024FF08043FCF743FC024612
S32D000101500B4690469946BB681846FCF7BDFA02460B4640464946FCF70BFB02460B4620462946FCF751F90246B5
S32D000101780B4610461946FCF7E1FD0346BB617B6883F000437B617B681846FCF7A1FA02460B46104619464FF04B
S32D000101A000024FF07E5303F5C003FCF7E9FA02460B4614461D46F869FCF78EFA02460B46104619464FF00002CC
S32D000101C84FF08043FCF702FC02460B4690469946BB681846FCF77CFA02460B4640464946FCF7CAFA02460B46DF
S32D000101F020462946FCF712F902460B4610461946FCF7A0FD03463B61B8693968FCF7F8FE0346BB6178693968B8
S32D00010218FCF7F2FE03467B6138693968FCF7ECFE03463B61FB689B6BB8691946FCF7E4FE0346BB61FB68DB6BDF
S32D0001024078691946FCF7DCFE03467B61FB681B6C38691946FCF7D4FE03463B61FB6803F590731846B969FFF7F5
S32D0001026855FCFB6803F5EE7318467969FFF74EFCFB6803F5267318463969FFF747FC07F12007BD46BDE8B083B3
S32D00010290D7B3DD3F80B582B000AF78607B6803F590731846FFF726FC7B6803F5EE731846FFF720FC7B6803F5D0
S32D000102B826731846FFF71AFC07F10807BD4680BD80B584B000AF786039607B6803F1880318463968FFF784F871
S32D000102E07B6803F1080318463968FEF7B9FA4FF00003FB6010E0FB684FF0BC0202FB03F303F590737A68D318BE
S32D0001030818463968FFF710FCFB6803F10103FB607B681A69FB689A42D4BF00230123DBB2002BE4D14FF00003E1
S32D00010330BB6012E0BA6813464FEAC3039B184FEA830303F5E0637A68D31818463968FFF7E5FABB6803F10103AE
S32D00010358BB607B685A69BB689A42D4BF00230123DBB2002BE2D107F11007BD4680BD00BF90B587B000AFF860E0
S32D00010380B960FC683B461846B968FEF719FB04F108033A4692E8030083E80300FA68FB6802F1880103F14402E2
S32D000103A84FF04403084611461A4611F07DFCFB6803F188031846B968FFF712F84FF000037B6110E07B694FF08F
S32D000103D0BC0202FB03F303F59073FA68D3181846B968FFF7C1FB7B6903F101037B61FB681A697B699A42D4BFE3
S32D000103F800230123DBB2002BE4D14FF000033B6112E03A6913464FEAC3039B184FEA830303F5E063FA68D3185D
S32D000104201846B968FFF790FA3B6903F101033B61FB685A693B699A42D4BF00230123DBB2002BE2D107F11C0770
S32D00010448BD4690BD80B485B000AFF86007F1040383E80600FB6807F1040292E8030083E8030007F11407BD46F3
S32D0001047080BC704784B0B0B582B000AF786007F11C0080E80E007B681846FEF7FBFE7B681C4607F11C050FCD25
S32D000104980FC40FCD0FC495E8030084E803007B6803F12C031846796C11F019FC7B68BA6C9A627B684FF0050237
S32D000104C0C3F894207B684FF0000283F892207B68184607F10807BD46BDE8B04004B0704780B582B000AF786014
S32D000104E87B681846FEF7CAFE7B68184607F10807BD4680BD80B584B000AFF86007F1040383E80600F86807F127
S32D00010510040393E8060000F00DF803461A46FB6883F89020FB6893F89030184607F11007BD4680BDB0B584B014
S32D0001053800AFF86007F1040383E806007A68FB681B684FF001010C4610461946FCF710FF0346002B02D14FF085
S32D0001056000031C46E3B2002B49D07D68FB681A68FB681B6A10461946FCF73AFC03464FF00102144628461946EC
S32D00010588FCF7D8FE0346002B02D14FF000031C46E3B2002B2FD0BA68FB685B684FF001010C4610461946FCF74E
S32D000105B0C5FE0346002B02D14FF000031C46E3B2002B1CD0BD68FB685A68FB685B6A10461946FCF70BFC034658
S32D000105D84FF00102144628461946FCF7C9FE0346002B02D14FF000031C46E3B2002B02D04FF0010301E04FF0F1
S32D000106000003184607F11007BD46B0BD80B582B000AF78607B6893F89030002B03D0786800F006FA02E078683F
S32D0001062800F004F807F10807BD4680BD2DE9F04184B002AF78607B689B6A052B02D0062B7BD02DE142F6586008
S32D00010650C1F6FF706FF07F410AF022FC7B6803F12C087B681C687B68D3F894301846FCF773FC0346204619466C
S32D00010678FCF7BAFB03461846FCF784FE06467B685B681846FCF724F804460D467B685B6A1846FCF71DF802463D
S32D000106A00B46104619464FF000024FF08043FCF791F902460B4620462946FBF7ADFE02460B46104619464FF0CD
S32D000106C800024FF0804303F5A013FBF7A3FE02460B4610461946FCF7E9FA0346C3F1000342F65860C1F6FF7087
S32D000106F0414632460AF0E8FB7B681B681846FCF745FE06467B685B681846FCF73FFE0346C3F100057B681B6A1B
S32D000107181846FCF737FE04467B685B6A1846FCF731FE0346009342F65860C1F6FF7031462A4623460BF05AFA29
S32D000107406FE142F65860C1F6FF7041F61A21C0F21A010AF0A5FB42F65860C1F6FF7041F61A21C0F21A010AF0FC
S32D0001076873FB7B681B681846FCF70CFE06467B685B681846FCF706FE0346C3F100057B681B6A1846FCF7FEFD36
S32D0001079004467B685B6A1846FCF7F8FD0346009342F65860C1F6FF7031462A4623460BF0E7FA42F65860C1F63D
S32D000107B8FF706FF07F410AF06FFB7B6803F12C087B681C687B68D3F894301846FCF7C0FB034620461946FCF72F
S32D000107E007FB03461846FCF7D1FD06467B685B681846FBF771FF04460D467B685B6A1846FBF76AFF02460B4637
S32D00010808104619464FF000024FF08043FCF7DEF802460B4620462946FBF7FAFD02460B46104619464FF000021A
S32D000108304FF0804303F5A013FBF7F0FD02460B4610461946FCF736FA0346C3F1000342F65860C1F6FF704146FF
S32D0001085832460AF035FB7B681B681846FCF792FD06467B685B681846FCF78CFD0346C3F100057B681B6A1846F5
S32D00010880FCF784FD04467B685B6A1846FCF77EFD0346009342F65860C1F6FF7031462A4623460BF0A7F9BCE09E
S32D000108A842F65860C1F6FF7041F61A21C0F21A010AF0F2FA7B681B681846FCF763FD06467B685B681846FCF78C
S32D000108D05DFD03466FEA03057B681B6A18465349FCF786FA03461846FCF750FD04467B685B6A18464D49FCF760
S32D000108F87BFA03461846FCF745FD0346009342F65860C1F6FF7031462A4623460BF034FA42F65860C1F6FF70FF
S32D000109206FF07F410AF0BCFA42F65860C1F6FF7041F61A21C0F21A010AF08AFA7B6803F12C087B681C687B68B1
S32D00010948D3F894301846FCF703FB034620461946FCF74AFA03461846FCF714FD06467B685B681846FBF7B4FEBE
S32D0001097004460D467B685B6A1846FBF7ADFE02460B46104619464FF000024FF08043FCF721F802460B4620467C
S32D000109982946FBF73DFD02460B46104619464FF000024FF0804303F5A013FBF733FD02460B4610461946FCF7F6
S32D000109C079F90346C3F1000342F65860C1F6FF70414632460AF078FA7B681B681846FCF7D5FC06467B685B689B
S32D000109E81846FCF7CFFC0346C3F100057B681B6A1846FCF7C7FC04467B685B6A1846FCF7C1FC0346009342F632
S32D00010A105860C1F6FF7031462A4623460BF0EAF800BF07F10807BD46BDE8F0810000803F2DE9F04184B002AFE2
S32D00010A3878607B689B6A052B02D0062B7BD0D1E042F65860C1F6FF704FF47F010AF024FA7B6803F12C087B68C1
S32D00010A601C687B68D3F894301846FCF775FA034620461946FCF7BCF903461846FCF786FC06467B685B6818468F
S32D00010A88FBF726FE04460D467B685B6A1846FBF71FFE02460B46104619464FF000024FF08043FBF793FF02461A
S32D00010AB00B4620462946FBF7AFFC02460B46104619464FF000024FF0804303F5A013FBF7A5FC02460B46104696
S32D00010AD81946FCF7EBF80346C3F1000342F65860C1F6FF70414632460AF0EAF97B681B681846FCF747FC064682
S32D00010B007B685B681846FCF741FC0346C3F100057B681B6A1846FCF739FC04467B685B6A1846FCF733FC0346E7
S32D00010B28009342F65860C1F6FF7031462A4623460BF05CF8A5E142F65860C1F6FF704FF47F010AF0A9F97B6878
S32D00010B5003F12C087B681C687B68D3F894301846FCF7FAF9034620461946FCF741F903461846FCF70BFC064609
S32D00010B787B685B681846FBF7ABFD04460D467B685B6A1846FBF7A4FD02460B46104619464FF000024FF08043E9
S32D00010BA0FBF718FF02460B4620462946FBF734FC02460B46104619464FF000024FF0804303F5A013FBF72AFC39
S32D00010BC802460B4610461946FCF770F80346C3F1000342F65860C1F6FF70414632460AF06FF94EE142F65860BF
S32D00010BF0C1F6FF7041F61A21C0F21A010AF050F97B681B681846FCF7C1FB06467B685B681846FCF7BBFB034679
S32D00010C186FEA03057B681B6A18469C49FCF7E4F803461846FCF7AEFB04467B685B6A18469649FCF7D9F8034653
S32D00010C401846FCF7A3FB0346009342F65860C1F6FF7031462A4623460BF092F842F65860C1F6FF7045F65C41E1
S32D00010C68C0F2CD010AF018F942F65860C1F6FF7045F65C41C0F2CD010AF0E6F87B681B681846FBF725FD02466C
S32D00010C900B46104619464FF000024FF0804303F58023FBF7BBFB02460B4610461946FCF701F806467B685B687D
S32D00010CB81846FBF70DFD02460B46104619464FF000024FF0804303F58023FBF7A1FB02460B4610461946FBF7B9
S32D00010CE0E9FF0346C3F100057B681B6A18466A49FCF77CF803461846FCF748FB04467B685B6A18466449FCF74E
S32D00010D0871F803461846FCF73DFB0346009342F65860C1F6FF7031462A4623460BF02CF842F65860C1F6FF700A
S32D00010D306FF07F410AF0B4F87B6803F12C087B681C687B68D3F894301846FCF705F9034620461946FCF74CF857
S32D00010D5803461846FCF716FB06467B685B681846FBF7B6FC04460D467B685B6A1846FBF7AFFC02460B4610469E
S32D00010D8019464FF000024FF08043FBF723FE02460B4620462946FBF73FFB02460B46104619464FF000024FF027
S32D00010DA8804303F5A013FBF735FB02460B4610461946FBF77BFF0346C3F1000342F65860C1F6FF7041463246BD
S32D00010DD00AF07AF87B681B681846FBF77DFC02460B46104619464FF000024FF0804303F58023FBF713FB0246E5
S32D00010DF80B4610461946FBF759FF06467B685B681846FBF765FC02460B46104619464FF000024FF0804303F550
S32D00010E208023FBF7F9FA02460B4610461946FBF741FF0346C3F100057B681B6A18461649FBF7D4FF0346184608
S32D00010E48FCF7A0FA04467B685B6A18461049FBF7C9FF03461846FCF795FA0346009342F65860C1F6FF703146F9
S32D00010E702A4623460AF0BEFE42F65860C1F6FF704FF0000109F0E4FF00BF07F10807BD46BDE8F0810000803FF4
S32D00010E980000A04084B0B0B582B000AF786007F11C0080E80E007B681846FEF7E7F97B681C4607F11C050FCD1F
S32D00010EC00FC40FCD0FC495E8030084E803007B6803F12C031846796C10F005FF7B684FF000029A627B684FF003
S32D00010EE80502C3F890207A6841F61A23C0F21A03C2F894307B686FF07F42C3F898207B686FF07F42C3F89C20D6
S32D00010F107B68184607F10807BD46BDE8B04004B0704700BF80B582B000AF78607B681846FEF7A8F97B681846A2
S32D00010F3807F10807BD4680BD80B582B000AF786039607B6803F12C031846396810F0C7FE07F10807BD4680BDAB
S32D00010F6080B483B000AF786039607B683A68C3F8942007F10C07BD4680BC704780B582B000AF7860786800F028
S32D00010F8805F807F10807BD4680BD00BF2DE9F04184B002AF78607B68D3F8943042F65860C1F6FF70194609F053
S32D00010FB077FF7B681B681846FCF7E8F906467B685B681846FCF7E2F90346C3F100057B681B6A1846FCF7DAF958
S32D00010FD804467B685B6A1846FCF7D4F90346009342F65860C1F6FF7031462A4623460AF0C3FE7B68D3F89C3063
S32D0001100042F65860C1F6FF70194609F049FF7B68D3F8943042F65860C1F6FF70194609F017FF7B6803F12C080A
S32D000110287B681C687B68D3F890301846FBF790FF034620461946FBF7D7FE03461846FCF7A1F906467B685B68EA
S32D000110501846FBF741FB04460D467B685B6A1846FBF73AFB02460B46104619464FF000024FF08043FBF7AEFCEE
S32D0001107802460B4620462946FBF7CAF902460B46104619464FF000024FF0804303F5A013FBF7C0F902460B46A6
S32D000110A010461946FBF706FE0346C3F1000342F65860C1F6FF704146324609F005FF7B68D3F8983042F65860FE
S32D000110C8C1F6FF70194609F0E7FE7B681B681846FCF758F906467B685B681846FCF752F90346C3F100057B681B
S32D000110F01B6A1846FCF74AF904467B685B6A1846FCF744F90346009342F65860C1F6FF7031462A4623460AF0FC
S32D000111186DFD07F10807BD46BDE8F08180B483B000AF78607B68184607F10C07BD4680BC704700BFB0B500AF1B
S32D0001114042F6C060C1F6FF700DF040F803F0E8FC00E000BF08F0F0F804460D4641F6FC03C1F6FF731B6818469A
S32D00011168FBF7B6FA02460B4620462946FBF750F902460B464FF001010C46104619464FF000024FF00003FBF7B7
S32D0001119087FD0346002B02D14FF000031C46E3B2002BD6D008F0C8F802460B4610461946FBF7C8FD024641F61F
S32D000111B8FC03C1F6FF731A6004F06EFFC5E700BFB0B5ADF5127D02AF07F10C04206007F1040080E806003A46E1
S32D000111E0136007F10C031B681846FDF72FF907F10C031B6803F110031846FEF743F807F10C031B6803F1380391
S32D000112081846FEF73BF807F10C031B6803F160031846FEF77FF807F10C031B6803F16C031846FEF72BF807F12B
S32D000112300C031B6803F194031846FEF723F807F10C031B6803F1BC031846FEF71BF807F10C031B6803F1E403FC
S32D000112581846FEF713F807F10C031B6803F586731846FEF70BF807F10C031B6803F59A731846FDF75BFF07F105
S32D000112800C031B6803F5A8731846FDF7FBFF07F10C031B6803F5BC731846FEF73FF807F10C031B6803F5C2735C
S32D000112A81846FDF7EBFF07F10C031B6803F5D6731846FDF73BFF07F10C031B683A4612689A6007F10C031B687C
S32D000112D09B681846FBF700FA02460B4610461946BBA3D3E90023FBF74BFA02460B4610461946FBF727FD024634
S32D000112F807F10C031B68DA6007F10C031B6807F1040292E8030083E8030007F138031846AF49AF4AFDF714FA0C
S32D0001132007F1100207F13803AC490091104693E80600AB4BFDF722FF07F10C031A6807F1100302F110041D46FB
S32D000113480FCD0FC40FCD0FC495E8030084E8030007F168031846A149A14AFDF7F1F907F1400207F168039F4930
S32D000113700091104693E806009D4BFDF7FFFE07F10C031A6807F1400302F138041D460FCD0FC40FCD0FC495E8DC
S32D00011398030084E8030007F17C0318469349944AFDF7CEF907F1700207F17C03104693E80600904BFDF780FF64
S32D000113C007F10C031B6807F1700203F1600307CA83E8070007F1AC0318468949894AFDF7B3F907F1840207F1B0
S32D000113E8AC0387490091104693E80600854BFDF7C1FE07F10C031A6807F1840302F16C041D460FCD0FC40FCD13
S32D000114100FC495E8030084E8030007F1DC0318467B497C4AFDF790F907F1B40207F1DC0379490091104693E806
S32D000114380600784BFDF79EFE07F10C031A6807F1B40302F194041D460FCD0FC40FCD0FC495E8030084E80300B9
S32D0001146007F5867318466A496D4AFDF76DF907F1E40207F5867368490091104693E80600664BFDF77BFE07F144
S32D000114880C031A6807F1E40302F1BC041D460FCD0FC40FCD0FC495E8030084E8030007F59E73184650495D4AB7
S32D000114B0FDF74AF907F58A7207F59E735A490091104693E80600594BFDF758FE07F10C031A6807F58A7302F163
S32D000114D8E4041D460FCD0FC40FCD0FC495E8030084E8030007F5B67318464F494F4AFDF727F907F5A273424AE8
S32D000115000092184607F5B67393E806004A4BFDF735FE07F10C031B6803F5867407F5A2750FCD0FC40FCD0FC47D
S32D0001152895E8030084E8030007F5C87318462B49404AFDF705F907F5CC7318463E493B4AFDF7FEF807F5BA7269
S32D000115504FF000030193D7F89C310093D7F89831104607F5C87206CAFDF748FD07F10C031B6803F59A7407F5AE
S32D00011578BA750FCD0FC495E8070084E8070007F5E473184627491D4AFDF7DAF807F5D0731B4A0092184607F591
S32D000115A0E47393E80600194BFDF7E8FD07F10C031B6803F5A87407F5D0750FCD0FC40FCD0FC495E8030084E8DE
S32D000115C8030007F5EE7339E039C2711CC77123400000000000002F440000AF430000803F0000AAC30000304156
S32D000115F00000684300801B43000021C30000C84100002E430080AFC300001C4200006C420000564300400EC43C
S32D00011618000040420000C24200001FC4000081C3000070430000E84200001B43000000C0000026430000F8C2D8
S32D000116400000F64218463649364AFDF77DF807F5E873184607F5EE7393E80600324BFDF72FFE07F10C031B68C2
S32D0001166803F5BC7307F5E87207CA83E8070007F5037318462B492C4AFDF762F807F5F2732A4A0092184607F5CA
S32D00011690037393E80600284BFDF770FD07F10C031B6803F5C27407F5F2750FCD0FC40FCD0FC495E8030084E8FB
S32D000116B8030007F50C7318461A491E4AFDF740F807F50E7318461C491C4AFDF739F807F505724FF0000301931C
S32D000116E0D7F83C320093D7F83832104607F50C7206CAFDF783FC07F10C031B6803F5D67407F505750FCD0FC4CE
S32D0001170895E8070084E8070007F10C031B68184607F51077BD46B0BD0000124300C0C9C30000B0410000803F8F
S32D000117300080AFC30000AE420000E64200401AC40000A64200C02EC480B582B000AF78607B681846FCF77AFE2E
S32D000117587B6803F110031846FDF790FD7B6803F138031846FDF78AFD7B6803F160031846FDF7D0FD7B6803F17E
S32D000117806C031846FDF77EFD7B6803F194031846FDF778FD7B6803F1BC031846FDF772FD7B6803F1E403184656
S32D000117A8FDF76CFD7B6803F586731846FDF766FD7B6803F59A731846FDF7B8FC7B6803F5A8731846FDF75AFD9F
S32D000117D07B6803F5BC731846FDF7A0FD7B6803F5C2731846FDF74EFD7B6803F5D6731846FDF7A0FC7B681846F1
S32D000117F807F10807BD4680BDF0B58BB008AF786042F65860C1F6FF7046F26661C0F2660109F042FB7E686C4610
S32D0001182006F11C050FCD0FC495E8070084E8070006F110030ECB786800F0C0F842F65860C1F6FF704DF2D33117
S32D00011848C0F2D30109F028FB7E686C4606F144050FCD0FC495E8070084E8070006F138030ECB786800F0A6F8D8
S32D000118707B68786803F160030ECB00F0E3F87E686C4606F178050FCD0FC495E8070084E8070006F16C030ECB9A
S32D00011898786800F08FF842F65860C1F6FF704DF2D331C0F2D30109F0F7FA7E686C4606F1A0050FCD0FC495E8A1
S32D000118C0070084E8070006F194030ECB786800F075F87E686C4606F1C8050FCD0FC495E8070084E8070006F1E2
S32D000118E8BC030ECB786800F065F87E686C4606F1F0050FCD0FC495E8070084E8070006F1E4030ECB786800F05B
S32D0001191055F87E686C4606F58C750FCD0FC495E8070084E8070006F586730ECB786800F045F87C686D4604F5B7
S32D00011938A0730FCB85E80F0004F59A730ECB786800F0A6F87E686C4606F5AE750FCD0FC495E8070084E807006E
S32D0001196006F5A8730ECB786800F028F87B68786803F5BC730ECB00F065F87E686C4606F5C8750FCD0FC495E86D
S32D00011988070084E8070006F5C2730ECB786800F011F87C686D4604F5DC730FCB85E80F0004F5D6730ECB7868A4
S32D000119B000F072F807F10C07BD46F0BD84B0B0B594B006AF786007F14C0080E80E0007F130031846796807F16D
S32D000119D84C030CCB00F042FCFA6E7B689B6810461946FBF709FB03461C463A6F7B689B6810461946FBF700FBB7
S32D00011A0003461A4607F108030092184607F1300393E806002346FDF7B1FB6C4607F118050FCD0FC495E8030070
S32D00011A2884E8030007F108030FCB04F035FC07F13807BD46BDE8B04004B0704780B58AB000AFF860384680E888
S32D00011A500E0007F120031846F9683B460CCB00F001FCBA68FB689B6810461946FBF7C8FA034607F1140210469C
S32D00011A7807F1200206CAFDF71FFC07F1140393E8070004F09BFC07F12807BD4680BD00BF84B080B592B004AFA6
S32D00011AA0786007F1440080E80E0007F128031846796807F144030CCB00F0D4FB07F130031846796807F14C03A5
S32D00011AC80CCB00F0CBFB07F10C024FF0000301937B6B00933B6B104607F1280206CAFDF789FA6B4607F11C02E1
S32D00011AF007CA83E8070007F10C030FCB04F030FC07F13807BD46BDE8804004B0704700BF84B080B592B004AF5C
S32D00011B18786007F1440080E80E0007F128031846796807F144030CCB00F0CCFB07F130031846796807F14C0334
S32D00011B400CCB00F0C3FB07F10C024FF0000301937B6B00933B6B104607F1280206CAFDF74DFA6B4607F11C02AC
S32D00011B6807CA83E8070007F10C030FCB04F0F4FB07F13807BD46BDE8804004B0704700BF84B090B59FB004AF03
S32D00011B90786007F17C0080E80E004FF000037B664BE07B6E4FEAC30307F17801CB189A687B6E4FEAC30307F1F8
S32D00011BB87801CB18DB6807F14401084611461A46FCF7BEFD7B6E03F101034FEAC30307F17802D3189A687B6E47
S32D00011BE003F101034FEAC30307F17801CB18DB6807F14C01084611461A46FCF7A5FD07F10C024FF0000301938D
S32D00011C083B6D0093FB6C104607F1440206CAFDF7F1F96C4607F118030FCB84E80F0007F10C030ECB7868FFF7F9
S32D00011C306FFF7B6E03F101037B66FB6F03F1FF327B6E9A42D4BF00230123DBB2002BA8D1FB6F03F1FF334FEA2D
S32D00011C58C30307F17802D3189A68FB6F03F1FF334FEAC30307F17801CB18DB6807F15401084611461A46FCF7CD
S32D00011C8063FDD7F88020D7F8843007F15C01084611461A46FCF758FD07F128024FF0000301933B6E0093FB6DA5
S32D00011CA8104607F1540206CAFDF7A4F96C4607F134030FCB84E80F0007F128030ECB7868FFF722FF07F16C0774
S32D00011CD0BD46BDE8904004B0704700BF82B090B595B004AFF86007F1040080E806007B657A687B6D10461946B3
S32D00011CF8FBF77AF803461C46BA68BB6D10461946FBF772F8034607F13802104621461A46FCF716FD07F11C029F
S32D00011D204FF000030193FB6B0093BB6B104607F1040206CAFDF762F96C4607F128030FCB84E80F0007F11C03EB
S32D00011D480ECBF868FFF7E0FE07F14407BD46BDE8904002B0704700BF90B587B000AFF86007F1040080E806008F
S32D00011D703B6007F110031846F96807F104030CCB00F0A4FA3B6918460F49FBF72FF803461846FBF7FBFA044630
S32D00011D987B6983F0004318460A49FBF723F803461846FBF7EFFA034642F65860C1F6FF703968224609F084F865
S32D00011DC007F11C07BD4690BD0000E0400000004184B0F0B5FBB00EAF07F10404206007F5E67080E80E004FF060
S32D00011DE80003C7F8AC319AE007F10C02D7F8AC314FF0BC0101FB03F307F5E471CB1803F59E7311461A464FF0E0
S32D00011E104403084611461A460FF04AFF07F5A6731D464FF0030406E02846FCF70FFB05F1080504F1FF34B4F130
S32D00011E38FF3F0CBF00230123DBB2002BF0D14FF00003C7F8A8313AE007F10C02D7F8A8314FEAC303D3185A6864
S32D00011E60D7F8CC3110461946FAF7C2FF03461C4607F10C02D7F8A8314FEAC303D3189A68D7F8D0311046194656
S32D00011E88FAF7B2FF034607F5C672104621461A46FCF756FCD7F8A8314FEAC30307F5D872D318A3F1640307F5DB
S32D00011EB0C67292E8030083E80300D7F8A83103F10103C7F8A831D7F8A831032BCCBF00230123DBB2002BBBD1BC
S32D00011ED807F1500207F5A673104619464FF00402FDF736FA07F1040E07F150066C4606F10C050FCD0FC40FCDC1
S32D00011F000FC40FCD0FC495E8030084E8030096E80E00DEF80000FFF737FED7F8AC3103F10103C7F8AC31D7F8A5
S32D00011F28DC21D7F8AC319A42D4BF00230123DBB2002B7FF459AF07F19403194607F515724FF04403084611465C
S32D00011F501A460FF0ADFE07F58E731D464FF0050406E02846FCF772FA05F1080504F1FF34B4F1FF3F0CBF002301
S32D00011F780123DBB2002BF0D14FF00003C7F8A4313AE007F19402D7F8A4314FEAC303D3185A68D7F8CC311046AD
S32D00011FA01946FAF725FF03461C4607F19402D7F8A4314FEAC303D3189A68D7F8D03110461946FAF715FF034602
S32D00011FC807F5CA72104621461A46FCF7B9FBD7F8A4314FEAC30307F5D871CB18A3F1940307F5CA7292E8030043
S32D00011FF083E80300D7F8A43103F10103C7F8A431D7F8A431052BCCBF00230123DBB2002BBBD107F1D80207F56C
S32D000120188E73104619464FF00602FDF799F907F104066C4607F1E4050FCD0FC40FCD0FC40FCD0FC495E80300F4
S32D0001204084E8030007F1D8030ECB3068FFF79CFD4FF00003C7F8A031EDE0D7F8A02113464FEAC3039B184FEABC
S32D00012068830307F5E472D31803F5E06303F1040307F5C27293E8030082E80300D7F88421D7F8CC311046194640
S32D00012090FAF7AEFE03461C46D7F88821D7F8D03110461946FAF7A4FE034607F5BE72104621461A46FCF748FB81
S32D000120B8684BC7F89C3107F5E671D7F8A02113464FEAC3039B184FEA830303F5E063CB181846FDF711FC034647
S32D000120E083F00103DBB2002B07D0D7F89C015C49FAF786FF0346C7F89C31D7F8A02113464FEAC3039B184FEA9B
S32D00012108830307F5E471CB1803F5E06303F10C031B681846D7F89C11FAF76EFF03461C46D7F8A02113464FEA28
S32D00012130C3039B184FEA830307F5E472D31803F5E2631B681846D7F89C11FAF759FF034607F5BA7210462146FA
S32D000121581A46FCF7F5FAD7F8A031052B07D142F65860C1F6FF704FF0FF0108F095FED7F87C21D7F87431104658
S32D000121801946FAF735FE03461C46D7F88021D7F8783110461946FAF72BFE034607F5B672104621461A46FCF7CE
S32D000121A8CFFAD7F8A031032B1FD0052B0FD0012B29D107F10403186807F5B67393E8060044F27003C0F20203C8
S32D000121D0FFF7C6FD1CE007F10403186807F5B67393E8060044F27403C0F20203FFF7B8FD0EE007F1040318688A
S32D000121F807F5B67393E8060044F27803C0F20203FFF7AAFD00E000BF07F10402D7F878310093D7F87431106879
S32D0001222007F5BE7206CAFFF759FDD7F8A03103F10103C7F8A031D7F8E021D7F8A0319A42D4BF00230123DBB26C
S32D00012248002B7FF406AF07F5DA77BD46BDE8F04004B07047000000410000404090B585B000AFF860B9603946AA
S32D0001227081E80C003A68BB689B6810461946FAF7BFFE03461A46BB681B6810461946FAF7AFFD03461C467A6871
S32D00012298BB689B6810461946FAF7AEFE03461A46BB685B6810461946FAF79EFD0346F86821461A46FCF744FA2E
S32D000122C0F86807F11407BD4690BD00BF90B585B000AFF860B960394681E80C003A68BB68DB6810461946FAF731
S32D000122E88BFE03461A46BB681B6810461946FAF77BFD03461C467A68BB68DB6810461946FAF77AFE03461A4617
S32D00012310BB685B6810461946FAF76AFD0346F86821461A46FCF710FAF86807F11407BD4690BD00BF80B483B055
S32D0001233800AF78607B68044A1A607B68184607F10C07BD4680BC70471044020080B483B000AF78604FF000037C
S32D00012360184607F10C07BD4680BC704780B584B000AFF860B960394681E80C00FB681846FFF7D8FFFB68094A2E
S32D000123881A60FB68BA685A60FB6803F108033A4692E8030083E80300FB68184607F11007BD4680BD004402004A
S32D000123B080B582B000AF78607B68DB6803F00103DBB2002B0CD07B685A687B68DB684FEA6303D3181A687B68A5
S32D000123D89B68D3181B6801E07B689B687A6851687A68D2684FEA62028A18104698470346184607F10807BD46C2
S32D0001240080BD00BF80B584B000AFF860B960394681E80C00FB681846FFF78CFFFB68174A1A60FB6803F110034A
S32D000124281846FCF70FF8FB68BA685A60FB6803F108033A4692E8030083E80300FB6803F1100307F1180292E82B
S32D00012450030083E80300FB683A6A9A61FB687A6ADA61FB68BA6A1A62FB68FA6A5A62FB68184607F11007BD460F
S32D0001247880BD00BFF0430200B0B588B004AF78607B68DB6803F00103DBB2002B0DD07B685A687B68DB684FEA26
S32D000124A06303D3181A687B689B68D3181B681C4601E07B689C687B685A687B68DB684FEA6303D218796807F18F
S32D000124C8080301F1100103C983E803007B689B697968CD697968086A7968496A009501900291104607F10802A7
S32D000124F006CAA0470346184607F11007BD46B0BD80B584B000AFF860B960394681E80C00FB681846FFF70EFF9F
S32D00012518FB68154A1A60FB6803F110031846FBF791FFFB68BA685A60FB6803F108033A4692E8030083E8030002
S32D00012540FB6803F1100307F1180292E8030083E80300FB683A6A9A61FB687A6ADA61FB68BA6A1A62FB681846BD
S32D0001256807F11007BD4680BDE043020090B587B002AF78607B68DB6803F00103DBB2002B0DD07B685A687B6891
S32D00012590DB684FEA6303D3181A687B689B68D3181B681C4601E07B689C687B685A687B68DB684FEA6303D218FB
S32D000125B8796807F1080301F1100103C983E803007B689B697968C8697968096A00900191104607F1080206CA3C
S32D000125E0A0470346184607F11407BD4690BD00BF80B584B000AFF860B960394681E80C00FB681846FFF796FE54
S32D00012608FB68144A1A60FB6803F110031846FBF719FFFB68BA685A60FB6803F108033A4692E8030083E803008A
S32D00012630FB6803F1100307F1180292E8030083E80300FB683A6A9A61FB687A6ADA61FB68184607F11007BD46BD
S32D0001265880BD00BFD043020090B587B002AF78607B68DB6803F00103DBB2002B0DD07B685A687B68DB684FEA87
S32D000126806303D3181A687B689B68D3181B681C4601E07B689C687B685A687B68DB684FEA6303D218796807F1AD
S32D000126A8080301F1100103C983E803007B689B697968C9690091104607F1080206CAA0470346184607F1140767
S32D000126D0BD4690BD80B584B000AFF860B960394681E80C00FB681846FFF724FEFB68144A1A60FB6803F1100390
S32D000126F81846FBF7A7FEFB68BA685A60FB6803F108033A4692E8030083E80300FB6803F1100307F1180292E8BC
S32D00012720030083E80300FB683A6A9A61FB687A6ADA61FB68184607F11007BD4680BD00BFC043020090B587B045
S32D0001274802AF78607B68DB6803F00103DBB2002B0DD07B685A687B68DB684FEA6303D3181A687B689B68D3187F
S32D000127701B681C4601E07B689C687B685A687B68DB684FEA6303D218796807F1080301F1100103C983E8030018
S32D000127987B689B697968C9690091104607F1080206CAA0470346184607F11407BD4690BD80B584B000AFF860FE
S32D000127C0B960394681E80C00FB681846FFF7B2FDFB680E4A1A60FB68BA685A60FB6803F108033A4692E80300A4
S32D000127E883E80300FB68BA691A61FB68FA695A61FB683A6A9A61FB68184607F11007BD4680BD00BFB04302000C
S32D0001281090B583B000AF78607B68DB6803F00103DBB2002B0DD07B685A687B68DB684FEA6303D3181A687B682E
S32D000128389B68D3181B681C4601E07B689C687B685A687B68DB684FEA6303D0187B6819697B685A697B689B6992
S32D00012860A0470346184607F10C07BD4690BD00BF80B584B000AFF860B960394681E80C00FB681846FFF756FD1A
S32D00012888FB680C4A1A60FB68BA685A60FB6803F108033A4692E8030083E80300FB68BA691A61FB68FA695A6160
S32D000128B0FB68184607F11007BD4680BDA043020080B582B000AF78607B68DB6803F00103DBB2002B0CD07B6882
S32D000128D85A687B68DB684FEA6303D3181A687B689B68D3181B6801E07B689B687A6851687A68D2684FEA62026E
S32D0001290088187A6811697A68526998470346184607F10807BD4680BD80B584B000AFF860B960394681E80C00C5
S32D00012928FB681846FFF702FDFB680B4A1A60FB68BA685A60FB6803F108033A4692E8030083E80300FB68BA6906
S32D000129501A61FB68184607F11007BD4680BD00BF9043020080B582B000AF78607B68DB6803F00103DBB2002B76
S32D000129780CD07B685A687B68DB684FEA6303D3181A687B689B68D3181B6801E07B689B687A6851687A68D268AB
S32D000129A04FEA620289187A6812690846114698470346184607F10807BD4680BD80B485B000AFF860B9607A6098
S32D000129C8FB687A68C3F80421FB684FF00002C3F80021FB68BA68C3F80821FB68184607F11407BD4680BC704708
S32D000129F080B483B000AF78607B684FF00002C3F804217B684FF00002C3F800217B68054AC3F808217B6818466F
S32D00012A1807F10C07BD4680BC704700BF0000000080B483B000AF786039607B68D3F800317A68396842F8231079
S32D00012A4003F101027B68C3F8002107F10C07BD4680BC704780B582B000AF78607B68D3F8043103F101027B6805
S32D00012A68C3F804217B68D3F804217B68D3F800319A42B4BF00230123DBB2002B04D07B684FF00002C3F8042187
S32D00012A9006F052FC02460B4610461946FAF752F902467B68C3F8082107F10807BD4680BD80B584B000AF786003
S32D00012AB87B68D3F804217B6853F822301B681B687A68D2F804117A6852F82120104698470346FB73FB7B002BDB
S32D00012AE002D07868FFF7B6FF07F11007BD4680BD80B582B000AF78607B684FF00102C3F8042106F019FC0246D5
S32D00012B080B4610461946FAF719F902467B68C3F8082107F10807BD4680BD00BF80B483B000AF78607B684FF070
S32D00012B300002C3F8042107F10C07BD4680BC704780B5C6B000AF07F1040318603B46196007F104031B6803F152
