S01C00002E2E2F526F626F7444657369676E50726F6A6563742E73313916
S32D0000C000000000203D290100992C0100992C0100992C0100992C0100992C0100000000000000000000000000AD
S32D0000C02800000000992C0100992C010000000000992C0100992C0100992C0100992C0100992C0100992C0100BA
S32D0000C050992C0100992C0100992C0100992C0100992C0100992C0100992C0100992C0100992C0100992C010006
S32D0000C078992C0100992C0100992C0100992C0100992C0100992C0100992C0100992C0100992C0100992C0100DE
S32D0000C0A0992C0100992C0100992C0100992C0100992C0100992C0100992C0100992C0100992C0100992C0100B6
S32D0000C0C8992C0100992C0100992C0100992C0100992C0100992C0100992C0100992C0100992C0100992C01008E
S32D0000C0F0992C0100198D0100992C0100992C0100992C0100992C0100992C0100992C0100992C0100992C010085
S32D0000C118992C0100992C0100992C0100992C0100992C0100992C0100992C0100992C0100992C0100992C01003D
S32D0000C140992C0100992C0100992C0100992C0100DD5F0100992C0100992C0100992C0100992C0100992C01009E
S32D0000C168992C0100992C0100992C0100992C0100992C0100992C0100992C0100992C0100992C0100992C0100ED
S32D0000C190992C0100992C0100992C01008D5A0100E1580100B5590100E92C0100655B0100992C0100992C01009B
S32D0000C1B8992C0100992C0100992C0100992C0100992C0100992C0100992C0100992C0100992C0100992C01009D
S32D0000C41081F0004102E000BF83F0004330B54FEA41044FEA430594EA050F08BF90EA020F1FBF54EA000C55EAC6
S32D0000C438020C7FEA645C7FEA655C00F0E2804FEA5454D4EB5555B8BF6D420CDD2C4480EA020281EA030382EA0F
S32D0000C460000083EA010180EA020281EA0303362D88BF30BD11F0004F4FEA01314FF4801C4CEA113102D0404263
S32D0000C48861EB410113F0004F4FEA03334CEA133302D0524263EB430394EA050F00F0A780A4F10104D5F1200E8A
S32D0000C4B00DDB02FA0EFC22FA05F2801841F1000103FA0EF2801843FA05F359410EE0A5F120050EF1200E012A2D
S32D0000C4D803FA0EFC28BF4CF0020C43FA05F3C01851EBE37101F0004507D54FF0000EDCF1000C7EEB00006EEB67
S32D0000C5000101B1F5801F1BD3B1F5001F0CD349085FEA30004FEA3C0C04F101044FEA445212F5800F80F09A8000
S32D0000C528BCF1004F08BF5FEA500C50F1000041EB045141EA050130BD5FEA4C0C404141EB010111F4801FA4F114
S32D0000C5500104E9D191F0000F04BF01460020B1FA81F308BF2033A3F10B03B3F120020CDA0C3208DD02F1140C87
S32D0000C578C2F10C0201FA0CF021FA02F10CE002F11402D8BFC2F1200C01FA02F120FA0CFCDCBF41EA0C019040B1
S32D0000C5A0E41AA2BF01EB0451294330BD6FEA04041F3C1CDA0C340EDC04F11404C4F1200220FA04F001FA02F3B6
S32D0000C5C840EA030021FA04F345EA030130BDC4F10C04C4F1200220FA02F001FA04F340EA0300294630BD21FAA8
S32D0000C5F004F0294630BD94F0000F83F4801306BF81F480110134013D4EE77FEA645C18BF7FEA655C29D094EA1C
S32D0000C618050F08BF90EA020F05D054EA000C04BF1946104630BD91EA030F1EBF0021002030BD5FEA545C05D1A3
S32D0000C6404000494128BF41F0004130BD14F580043CBF01F5801130BD01F0004545F0FE4141F470014FF0000031
S32D0000C66830BD7FEA645C1ABF194610467FEA655C1CBF0B46024650EA013406BF52EA033591EA030F41F40021D7
S32D0000C69030BD00BF90F0000F04BF0021704730B54FF4806404F132044FF000054FF0000150E700BF90F0000F66
S32D0000C6B804BF0021704730B54FF4806404F1320410F0004548BF40424FF000013EE700BF42004FEAE2014FEAF9
S32D0000C6E031014FEA02701FBF12F07F4393F07F4F81F06051704792F0000F14BF93F07F4F704730B54FF460741B
S32D0000C70801F0004521F0004120E700BF50EA010208BF704730B54FF000050AE050EA010208BF704730B511F046
S32D0000C730004502D5404261EB41014FF4806404F132045FEA915C3FF4DCAE4FF003025FEADC0C18BF03325FEAA0
S32D0000C758DC0C18BF033202EBDC02C2F1200300FA03FC20FA02F001FA03FE40EA0E0021FA02F11444C1E600BF19
S32D0000C78070B54FF0FF0C4CF4E06C1CEA11541DBF1CEA135594EA0C0F95EA0C0F00F0DEF82C4481EA030621EAF3
S32D0000C7A84C5123EA4C5350EA013518BF52EA033541F4801143F4801338D0A0FB02CE4FF00005E1FB02E506F05F
S32D0000C7D00042E0FB03E54FF00006E1FB03569CF0000F18BF4EF0010EA4F1FF04B6F5007F64F5407404D25FEA0F
S32D0000C7F84E0E6D4146EB060642EAC62141EA55514FEAC52040EA5E504FEACE2EB4F1FD0C88BFBCF5E06F1ED8D2
S32D0000C820BEF1004F08BF5FEA500E50F1000041EB045170BD06F0004646EA010140EA020081EA0301B4EB5C0487
S32D0000C848C2BFD4EB0C0541EA045170BD41F480114FF0000E013C00F3AB8014F1360FDEBF002001F0004170BDF0
S32D0000C870C4F10004203C35DA0C341BDC04F11404C4F1200500FA05F320FA04F001FA05F240EA020001F0004207
S32D0000C89821F0004110EBD37021FA04F642EB06015EEA430E08BF20EAD37070BDC4F10C04C4F1200500FA04F32F
S32D0000C8C020FA05F001FA04F240EA020001F0004110EBD37041F100015EEA430E08BF20EAD37070BDC4F12005C7
S32D0000C8E800FA05F24EEA020E20FA04F301FA05F243EA020321FA04F001F0004121FA04F220EA020000EBD37028
S32D0000C9105EEA430E08BF20EAD37070BD94F0000F0FD101F00046400041EB010111F4801F08BF013CF7D041EA6D
S32D0000C938060195F0000F18BF704703F00046520043EB030313F4801F08BF013DF7D043EA0603704794EA0C0FF1
S32D0000C9600CEA135518BF95EA0C0F0CD050EA410618BF52EA4306D1D181EA030101F000414FF0000070BD50EA38
S32D0000C988410606BF1046194652EA430619D094EA0C0F02D150EA013613D195EA0C0F05D152EA03361CBF10467B
S32D0000C9B019460AD181EA030101F0004141F0FE4141F470014FF0000070BD41F0FE4141F4780170BD70B54FF04D
S32D0000C9D8FF0C4CF4E06C1CEA11541DBF1CEA135594EA0C0F95EA0C0F00F0A7F8A4EB050481EA030E52EA03359B
S32D0000CA004FEA013100F088804FEA03334FF0805545EA131343EA12634FEA022245EA111545EA10654FEA002676
S32D0000CA280EF000419D4208BF964244F1FD0404F5407402D25B084FEA3202B61A65EB03055B084FEA32024FF461
S32D0000CA5080104FF4002CB6EB020E75EB030E22BFB61A754640EA0C005B084FEA3202B6EB020E75EB030E22BF22
S32D0000CA78B61A754640EA5C005B084FEA3202B6EB020E75EB030E22BFB61A754640EA9C005B084FEA3202B6EBEA
S32D0000CAA0020E75EB030E22BFB61A754640EADC0055EA060E18D04FEA051545EA16754FEA06164FEAC30343EAAC
S32D0000CAC852734FEAC2025FEA1C1CC0D111F4801F0BD141EA00014FF000004FF0004CB6E711F4801F04BF0143AE
S32D0000CAF00020B4F1FD0C88BFBCF5E06F3FF6AFAEB5EB030C04BFB6EB020C5FEA500C50F1000041EB045170BDBC
S32D0000CB180EF0004E4EEA113114EB5C04C2BFD4EB0C0541EA045170BD41F480114FF0000E013C90E645EA060EC3
S32D0000CB408DE60CEA135594EA0C0F08BF95EA0C0F3FF43BAF94EA0C0F0AD150EA01347FF434AF95EA0C0F7FF499
S32D0000CB6825AF104619462CE795EA0C0F06D152EA03353FF4FDAE1046194622E750EA410618BF52EA43067FF432
S32D0000CB90C5AE50EA41047FF40DAF52EA43057FF4EBAE12E74FF0FF3C06E000BF4FF0010C02E000BF4FF0010C75
S32D0000CBB84DF804CD4FEA410C7FEA6C5C4FEA430C18BF7FEA6C5C1BD001B050EA410C0CBF52EA430C91EA030FEC
S32D0000CBE002BF90EA020F0020704710F1000F91EA030F58BF994208BF90422CBFD8176FEAE37040F0010070476E
S32D0000CC084FEA410C7FEA6C5C02D150EA013C07D14FEA430C7FEA6C5CD6D152EA033CD3D05DF8040B704700BFCD
S32D0000CC308446104662468C461946634600E000BF01B5FFF7B7FF002848BF10F1000F01BD4DF808EDFFF7F4FF13
S32D0000CC580CBF012000205DF808FB00BF4DF808EDFFF7EAFF34BF012000205DF808FB00BF4DF808EDFFF7E0FF18
S32D0000CC8094BF012000205DF808FB00BF4DF808EDFFF7CEFF94BF012000205DF808FB00BF4DF808EDFFF7C4FF40
S32D0000CCA834BF012000205DF808FB00BF4FEA410212F5001215D211D56FF47873B3EB625212D94FEAC12343F0D6
S32D0000CCD0004343EA505311F0004F23FA02F018BF404270474FF00000704750EA013005D111F0004008BF6FF016
S32D0000CCF8004070474FF00000704700BF4A0011D212F5001211D20DD56FF47873B3EB62520ED44FEAC12343F085
S32D0000CD20004343EA505323FA02F070474FF00000704750EA013002D14FF0FF3070474FF0000070474FEA410241
S32D0000CD48B2F1E04324BFB3F5001CDCF1FE5C0DD901F0004C4FEAC0024CEA5070B2F1004F40EB830008BF20F09E
S32D0000CD700100704711F0804F21D113F13872BCBF01F00040704741F480114FEA5252C2F11802C2F1200C10FAB1
S32D0000CD980CF320FA02F018BF40F001004FEAC1234FEAD32303FA0CFC40EA0C0023FA02F34FEA4303CCE77FEA26
S32D0000CDC0625307D150EA01331EBF4FF0FE4040F44000704701F0004040F0FE4040F40000704700BF80F00040CC
S32D0000CDE802E000BF81F0004142001FBF5FEA410392EA030F7FEA226C7FEA236C6AD04FEA1262D2EB1363C1BF06
S32D0000CE10D218414048404140B8BF5B42192B88BF704710F0004F40F4000020F07F4018BF404211F0004F41F4FA
S32D0000CE38000121F07F4118BF494292EA030F3FD0A2F1010241FA03FC10EB0C00C3F1200301FA03F100F000432B
S32D0000CE6002D5494260EB4000B0F5000F13D3B0F1807F06D340084FEA310102F10102FE2A51D2B1F1004F40EB94
S32D0000CE88C25008BF20F0010040EA03007047490040EB000010F4000FA2F10102EDD1B0FA80FCACF1080CB2EB5F
S32D0000CEB00C0200FA0CF0AABF00EBC25052421843BCBFD0401843704792F0000F81F4000106BF80F400000132EB
S32D0000CED8013BB5E74FEA41037FEA226C18BF7FEA236C21D092EA030F04D092F0000F08BF0846704790EA010FD7
S32D0000CF001CBF0020704712F07F4F04D1400028BF40F00040704712F100723CBF00F50000704700F0004343F0DC
S32D0000CF28FE4040F4000070477FEA226216BF08467FEA23630146420206BF5FEA412390EA010F40F480007047C1
S32D0000CF504FF0000304E000BF10F0004348BF40425FEA000C08BF704743F0964301464FF000001CE050EA010264
S32D0000CF7808BF70474FF000030AE000BF50EA010208BF704711F0004302D5404261EB41015FEA010C02BF84465B
S32D0000CFA00146002043F0B64308BFA3F18053A3F50003BCFA8CF2083AA3EBC25310DB01FA02FC634400FA02FC6B
S32D0000CFC8C2F12002BCF1004F20FA02F243EB020008BF20F00100704702F1200201FA02FCC2F1200250EA4C0034
S32D0000CFF021FA02F243EB020008BF20EADC7070474FF0FF0C1CEAD0521EBF1CEAD15392EA0C0F93EA0C0F6FD019
S32D0000D0181A4480EA010C400218BF5FEA41211ED04FF0006343EA501043EA5111A0FB01310CF00040B1F5000FE7
S32D0000D0403EBF490041EAD3715B0040EA010062F17F02FD2A1DD8B3F1004F40EBC25008BF20F00100704790F058
S32D0000D068000F0CF0004C08BF49024CEA502040EA51207F3AC2BFD2F1FF0340EAC250704740F400004FF0000388
S32D0000D090013A5DDC12F1190FDCBF00F000407047C2F10002410021FA02F1C2F1200200FA02FC5FEA310040F1D5
S32D0000D0B8000053EA4C0308BF20EADC70704792F0000F00F0004C02BF400010F4000F013AF9D040EA0C0093F04C
S32D0000D0E0000F01F0004C02BF490011F4000F013BF9D041EA0C018FE70CEAD15392EA0C0F18BF93EA0C0F0AD00B
S32D0000D10830F0004C18BF31F0004CD8D180EA010000F00040704790F0000F17BF90F0004F084691F0000F91F0BB
S32D0000D130004F14D092EA0C0F01D142020FD193EA0C0F03D14B0218BF084608D180EA010000F0004040F0FE4051
S32D0000D15840F40000704740F0FE4040F4400070474FF0FF0C1CEAD0521EBF1CEAD15392EA0C0F93EA0C0F69D044
S32D0000D180A2EB030280EA010C49024FEA402037D04FF0805343EA111143EA10130CF000408B4238BF5B0042F14E
S32D0000D1A87D024FF4000C8B4224BF5B1A40EA0C00B3EB510F24BFA3EB510340EA5C00B3EB910F24BFA3EB9103A4
S32D0000D1D040EA9C00B3EBD10F24BFA3EBD10340EADC001B0118BF5FEA1C1CE0D1FD2A3FF650AF8B4240EBC25018
S32D0000D1F808BF20F0010070470CF0004C4CEA50207F32C2BFD2F1FF0340EAC250704740F400004FF00003013AF1
S32D0000D22037E792F0000F00F0004C02BF400010F4000F013AF9D040EA0C0093F0000F01F0004C02BF490011F4C9
S32D0000D248000F013BF9D041EA0C0195E70CEAD15392EA0C0F08D142027FF47DAF93EA0C0F7FF470AF084676E7AE
S32D0000D27093EA0C0F04D14B023FF44CAF08466EE730F0004C18BF31F0004CCAD130F000427FF45CAF31F0004376
S32D0000D2987FF43CAF5FE700BF4FF0FF3C06E000BF4FF0010C02E000BF4FF0010C4DF804CD4FEA40024FEA41039F
S32D0000D2C07FEA226C18BF7FEA236C11D001B052EA530C18BF90EA010F58BFB2EB030088BFC81738BF6FEAE1706E
S32D0000D2E818BF40F0010070477FEA226C02D15FEA402C05D17FEA236CE4D15FEA412CE1D05DF8040B704700BF16
S32D0000D310844608466146FFE70FB5FFF7C9FF002848BF10F1000F0FBD4DF808EDFFF7F4FF0CBF012000205DF839
S32D0000D33808FB00BF4DF808EDFFF7EAFF34BF012000205DF808FB00BF4DF808EDFFF7E0FF94BF012000205DF8A9
S32D0000D36008FB00BF4DF808EDFFF7D2FF94BF012000205DF808FB00BF4DF808EDFFF7C8FF34BF012000205DF8B1
S32D0000D38808FB00BF4FEA4002B2F1FE4F0FD34FF09E03B3EB12620DD94FEA002343F0004310F0004F23FA02F060
S32D0000D3B018BF404270474FF00000704712F1610F01D1420205D110F0004008BF6FF0004070474FF00000704797
S32D0000D3D880B483B000AF78607B68064A1A607B68044A5A607B68184607F10C07BD4680BC704700BF00000000A0
S32D0000D400B0B582B000AF78607B6803F104031D464FF0070406E02846FFF7DEFF05F1080504F1FF34B4F1FF3F20
S32D0000D4280CBF00230123DBB2002BF0D17B68184607F10807BD46B0BD80B582B000AF78607B681846FFF7C4FFAB
S32D0000D4507B6803F108031846FFF7BEFF7B6803F110031846FFF7B8FF7B6803F118031846FFF7B2FF7B6818468E
S32D0000D47807F10807BD4680BD80B582B000AF78607B681846FFF7A4FF7B6803F108031846FFF79EFF7B6803F1CD
S32D0000D4A010031846FFF798FF7B6803F118031846FFF792FF7B68184607F10807BD4680BD80B582B000AF786013
S32D0000D4C87B681846FFF784FF7B6803F108031846FFF77EFF7B6803F110031846FFF778FF7B6803F118031846C4
S32D0000D4F0FFF772FF7B68184607F10807BD4680BD80B582B000AF78607B681846FFF764FF7B6803F10803184657
S32D0000D518FFF75EFF7B6803F118031846FFF76CFF7B6803F15C031846FFF766FF7B6803F1A0031846FFF74CFFD9
S32D0000D5407B6803F1A8031846FFF746FF7B6803F1B4031846FFF740FF7B68184607F10807BD4680BDB0B582B062
S32D0000D56800AF78607B681846FFF732FF7B6803F108031846FFF72CFF7B6803F118031846FFF726FF7B6803F103
S32D0000D59024031846FFF720FF7B6803F12C031846FFF71AFF7B6803F138031846FFF728FF7B6803F17C0318461F
S32D0000D5B8FFF722FF7B6803F1C0031846FFF75CFF7B6803F1F0031846FFF736FF7B6803F58A731D464FF007040D
S32D0000D5E006E02846FFF78CFF05F1BC0504F1FF34B4F1FF3F0CBF00230123DBB2002BF0D17B6803F5DE6303F1EB
S32D0000D60804031D464FF0050406E02846FFF754FF05F1240504F1FF34B4F1FF3F0CBF00230123DBB2002BF0D1F0
S32D0000D6307B68184607F10807BD46B0BD80B582B000AF786039607B68012B0AD13A684FF6FF739A4205D141F265
S32D0000D6582410C1F6FF70FFF781FF07F10807BD4680BD00BF80B500AF4FF001004FF6FF71FFF7E0FF80BD00BF24
S32D0000D68080B582B000AF786078680BF067FD0346184607F10807BD4680BD00BF80B582B000AF786078680BF0D9
S32D0000D6A879FE0346184607F10807BD4680BD00BF80B582B000AF786078680BF0B7FE0346184607F10807BD4601
S32D0000D6D080BD00BF80B485B000AFF860B9607A60FB68BA681A60FB687A685A60FB68184607F11407BD4680BCBC
S32D0000D6F8704700BFB0B582B000AF78607B681B6818464FF000024FF0804305F029F804460D467B685B681846B2
S32D0000D7204FF000024FF0804305F01EF802460B4620462946FEF772FE02460B46104619460BF0BEFE02460B461C
S32D0000D74810461946FFF7FAFA0346184607F10807BD46B0BD90B585B000AF786039603868FFF7C8FF0346FB605B
S32D0000D7703B681B681846F968FFF7F6FC03461C463B685B681846F968FFF7EEFC0346786821461A46FFF79EFF8B
S32D0000D798786807F11407BD4690BD00BF0000000090B587B000AF786039603868FEF790FF02460B461046194653
S32D0000D7C027A3D3E90023FEF7DBFF02460B4610461946FFF7B7FA03467B617B681B683B617B685B68FB607869C5
S32D0000D7E8FFF758FF034618463969FFF705FC03461C467869FFF75CFF03461846F968FFF7FBFB034620461946A7
S32D0000D810FFF7ECFA03461A467B681A607869FFF74BFF034618463969FFF7EAFB03461C467869FFF733FF0346C6
S32D0000D8381846F968FFF7E0FB034620461946FFF7D3FA03461A467B685A6007F11C07BD4690BD00BFAFF30080CF
S32D0000D860439852A246DF913F90B585B000AF78607B681A687B685B6810461946FFF774FC03461846FFF7FCFE18
S32D0000D888034683F000431846FEF722FF02460B461046194616A3D3E90023FFF797F802460B4610461946FFF750
S32D0000D8B049FA0346FB607B685B684FF00102144618460F49FFF744FD0346002B02D14FF000031C46E3B2002B89
S32D0000D8D805D0F8680949FFF787FA0346FB60FB68184607F11407BD4690BD00BFAFF30080439852A246DF913FB7
S32D0000D900000000000000344380B485B000AFF860B9607A60FB68BA681A60FB687A685A60FB68184607F114074D
S32D0000D928BD4680BC704700BF80B483B000AF78607B684FF000021A607B684FF000025A607B68184607F10C0766
S32D0000D950BD4680BC704700BFB0B59CB002AFF860FB681846FFF738FDFB6803F108031846FFF732FDFB6803F112
S32D0000D97810031846FFF72CFDFB6803F118031846FFF726FDFB6803F120031846FFF720FDFB6803F1280318463D
S32D0000D9A0FFF71AFDFB6803F130031846FFF714FDFB6803F138031846FFF70EFDFB6803F140031846FFF708FD79
S32D0000D9C8FB6803F148031846FFF702FDFB6803F150031846FFF7FCFCFB6803F158031846FFF7F6FCFB6803F1F7
S32D0000D9F060031846FFF7F0FCFB6803F168031846FFF7EAFCFB6803F170031846FFF7E4FCFB6803F1780318463C
S32D0000DA18FFF7DEFC07F110031846A549A54AFFF755FEFB6807F1100292E8030083E8030007F118031846A049CF
S32D0000DA409E4AFFF747FEFB6803F1080307F1180292E8030083E8030007F1200318469749954AFFF737FEFB6870
S32D0000DA6803F1100307F1200292E8030083E8030007F1280318468F498F4AFFF727FEFB6803F1180307F12802A3
S32D0000DA9092E8030083E8030085A3D3E90023C7E91823D7E91801FFF74DF9034683F0004307F130021046194698
S32D0000DAB87F4AFFF70BFEFB6803F1280307F1300292E8030083E8030007F1380318467949774AFFF7FBFDFB687C
S32D0000DAE003F1300307F1380292E8030083E8030007F14003184673496F4AFFF7EBFDFB6803F1380307F140021C
S32D0000DB0892E8030083E8030007F1480318466B49694AFFF7DBFDFB6803F1400307F1480292E8030083E8030067
S32D0000DB3007F1500318466149614AFFF7CBFDFB6803F1480307F1500292E8030083E80300D7E91801FFF7F6F877
S32D0000DB58034683F0004307F1580210461946564AFFF7B4FDFB6803F1200307F1580292E8030083E80300FC6837
S32D0000DB803A46FB68F9686D4601F1280103C985E803001046F96803F120030CCB00F0F4F804F150033A4692E866
S32D0000DBA8030083E80300FC683A46FB68F9686D4601F1300103C985E803001046F96803F128030CCB00F0DCF8B3
S32D0000DBD004F158033A4692E8030083E80300FC683A46FB68F9686D4601F1380103C985E803001046F96803F1FF
S32D0000DBF830030CCB00F0C4F804F160033A4692E8030083E80300FC683A46FB68F9686D4601F1400103C985E8BF
S32D0000DC2003001046F96803F138030CCB00F0ACF804F168033A4692E8030083E80300FC683A46FB68F9686D465C
S32D0000DC4801F1480103C985E803001046F96803F140030CCB00F094F804F170033A4692E8030083E80300FC68BF
S32D0000DC703A46FB68F9686D4601F1200103C985E803001046F96803F148030CCB00F07CF804F178033A4692E8A5
S32D0000DC98030083E80300FB68184607F16807BD46B0BD00BFAFF30080AA4C58E87AB6FB3F0000803F0000000015
S32D0000DCC0000080BFD7B3DD3F80B584B000AF786039603B68FB607B6803F120031846F968FFF762FD7B6803F1E5
S32D0000DCE828031846F968FFF75BFD7B6803F130031846F968FFF754FD7B6803F138031846F968FFF74DFD7B68D2
S32D0000DD1003F140031846F968FFF746FD7B6803F148031846F968FFF73FFD7B6803F150031846F968FFF738FD8F
S32D0000DD387B6803F158031846F968FFF731FD7B6803F160031846F968FFF72AFD7B6803F168031846F968FFF79B
S32D0000DD6023FD7B6803F170031846F968FFF71CFD7B6803F178031846F968FFF715FD07F11007BD4680BD00BF36
S32D0000DD8890B587B000AF7861396107F1080181E80C00BA68BB6A10461946FFF725F803461C46FA68FB6A104682
S32D0000DDB01946FFF71DF80346786921461A46FFF789FC7C693B4618467969FFF7C7FC23463A4692E8030083E83F
S32D0000DDD80300786907F11C07BD4690BD82B0B0B58CB000AFF86007F1040080E806007B64FB681D464FF00104A1
S32D0000DE0006E02846FFF7E8FA05F1080504F1FF34B4F1FF3F0CBF00230123DBB2002BF0D1FB6803F11403184663
S32D0000DE28FFF782FDFB6807F1040292E8030083E80300FB6803F1080307F1440292E8030083E80300FB68FA6CB7
S32D0000DE501A61FB681B69032B56D801A252F823F071DE000097DE0000BDDE0000E3DE000007F1100318464FF01E
S32D0000DE7800014FF0FF32FFF743FDFB6803F1140307F1100292E8030083E8030039E007F1180318464FF0FF3179
S32D0000DEA04FF00002FFF730FDFB6803F1140307F1180292E8030083E8030026E007F1200318464FF000014FF087
S32D0000DEC80102FFF71DFDFB6803F1140307F1200292E8030083E8030013E007F1280318464FF001014FF00002B0
S32D0000DEF0FFF70AFDFB6803F1140307F1280292E8030083E8030000E000BFFB68184607F13007BD46BDE8B04065
S32D0000DF1802B07047B0B582B000AF78607B681D464FF0010406E02846FFF752FA05F1080504F1FF34B4F1FF3F26
S32D0000DF400CBF00230123DBB2002BF0D17B6803F114031846FFF7ECFC7B68184607F10807BD46B0BDB0B58AB0A7
S32D0000DF6800AFF86007F1040080E806003B60FB681D464FF0030406E02846FFF729FA05F1080504F1FF34B4F136
S32D0000DF90FF3F0CBF00230123DBB2002BF0D1FB683A681A62FB68BA6B5A62FB6807F1040292E8030083E8030089
S32D0000DFB87A68FB681B6A10461946FEF715FF03461A46BB6807F11001084611461A46FFF77DFBFB6803F1080309
S32D0000DFE007F1100292E8030083E803007C68BA68FB685B6A10461946FEF7F8FE034607F11802104621461A46D8
S32D0000E008FFF764FBFB6803F1100307F1180292E8030083E803007A68FB681B6A10461946FEF7E2FE03461C462F
S32D0000E030BA68FB685B6A10461946FEF7D7FE034607F12002104621461A46FFF743FBFB6803F1180307F12002B9
S32D0000E05892E8030083E80300FB68184607F12807BD46B0BDB0B582B000AF78607B681D464FF0030406E0284659
S32D0000E080FFF7AAF905F1080504F1FF34B4F1FF3F0CBF00230123DBB2002BF0D17B68184607F10807BD46B0BD88
S32D0000E0A8B0B584B000AFF86007F1040080E806003B60FB681D464FF0000406E02846FFF787F905F1080504F1DA
S32D0000E0D0FF34B4F1FF3F0CBF00230123DBB2002BF0D1FB683A689A60FB6807F1040292E8030083E80300FB68D3
S32D0000E0F8184607F11007BD46B0BD00BFB0B582B000AF78607B681D464FF0000406E02846FFF75EF905F1080513
S32D0000E12004F1FF34B4F1FF3F0CBF00230123DBB2002BF0D17B68184607F10807BD46B0BDB0B586B000AFF860E1
S32D0000E148B9607A60FB6803F104031D464FF0070406E02846FFF73CF905F1080504F1FF34B4F1FF3F0CBF002330
S32D0000E1700123DBB2002BF0D1FB687A681A604FF000037B6113E07B694FEAC303BA68D218F9687B694FEAC303E1
S32D0000E198CB1803F1040392E8030083E803007B6903F101037B61FB681A687B699A42D4BF00230123DBB2002BA1
S32D0000E1C0E1D1FB68184607F11807BD46B0BD00BF80B584B000AF786039604FF00003FB600EE0FB684FEAC30302
S32D0000E1E87A68D31803F1040318463968FFF7D8FAFB6803F10103FB607B681A68FB689A42D4BF00230123DBB2B9
S32D0000E210002BE6D107F11007BD4680BD90B589B000AFF86007F1040383E806004FF00003FB6130E0FA68FB6946
S32D0000E2384FEAC303D3185A687B6810461946FEF7D3FD03461C46FA68FB694FEAC303D3189A68BB68104619467A
S32D0000E260FEF7C6FD034607F11402104621461A46FFF730FAFA68FB694FEAC303D31803F1040307F1140292E811
S32D0000E288030083E80300FB6903F10103FB61FB681A68FB699A42D4BF00230123DBB2002BC4D107F12407BD46CD
S32D0000E2B090BD00BF82B080B584B000AFF86007F1040080E80600FB61FB681846FFF784F8FB6803F108031846D9
S32D0000E2D8FFF77EF8FB6803F110031846FFF778F8FB6803F118031846FFF772F8FB6807F1040292E8030083E805
S32D0000E3000300FB6803F1080307F11C0292E8030083E80300F86800F045F8FB68184607F11007BD46BDE88040C4
S32D0000E32802B0704790B587B000AF7860194B3B61194BFB604FF00003FB757B681B6A4FF00102144618463969E6
S32D0000E350FFF708F80346002B02D14FF000031C46E3B2002B14D07B681B6A4FF0010214461846F968FEF7E2FF81
S32D0000E3780346002B02D14FF000031C46E3B2002B02D04FF00103FB75FB7D184607F11C07BD4690BD0000000006
S32D0000E3A00000803F90B589B000AFF860FB6803F10803FC683A4610461946FFF7CFF904F108033A4692E8030055
S32D0000E3C883E80300FB681A68FB685B6807F11001084611461A46FFF779F9FB6803F1100307F1100292E8030047
S32D0000E3F083E80300FB689A68FB68DB6807F11801084611461A46FFF765F9FB6803F1180307F1180292E803001B
S32D0000E41883E80300FB68034A1A6207F12407BD4690BD00BF0000803F82B080B584B000AFF86007F1040080E845
S32D0000E4400600FB61FB681846FEF7C6FFFB6803F108031846FEF7C0FFFB6803F110031846FEF7BAFFFB6803F190
S32D0000E46818031846FEF7B4FFFB6807F1040292E8030083E80300FB6803F1080307F11C0292E8030083E80300B6
S32D0000E490FB687A6A1A62F86800F018F8FB68184607F11007BD46BDE8804002B0704700BF80B483B000AF7860ED
S32D0000E4B839607B683A681A6207F10C07BD4680BC704700BF90B589B000AFF860FB6803F10803FC683A461046BB
S32D0000E4E01946FFF73BF904F108033A4692E8030083E80300FB681A68FB685B6807F11001084611461A46FFF70B
S32D0000E508E5F8FB6803F1100307F1100292E8030083E80300FB689A68FB68DB6807F11801084611461A46FFF792
S32D0000E530D1F8FB6803F1180307F1180292E8030083E80300FB684FF4FA725A62FB6840F6C4129A62FB684FF0AA
S32D0000E558000283F82C2007F12407BD4690BD00BF82B080B584B000AFF86007F1040080E80600FB61FB68184671
S32D0000E580FEF72AFFFB6803F108031846FEF724FFFB6803F110031846FEF71EFFFB6803F118031846FEF718FFC1
S32D0000E5A8FB6807F1040292E8030083E80300FB6803F1080307F11C0292E8030083E80300F86800F02DF8FB68BE
S32D0000E5D0184607F11007BD46BDE8804002B0704780B483B000AF78607B6893F82030184607F10C07BD4680BC8B
S32D0000E5F8704700BF80B582B000AF786039607B6818463968FFF7CCF87B6803F1080318463968FFF7C5F807F1D0
S32D0000E6200807BD4680BD00BF90B589B000AFF860FB6803F10803FC683A4610461946FFF78DF804F108033A4643
S32D0000E64892E8030083E80300FB681A68FB685B6807F11001084611461A46FFF737F8FB6803F1100307F1100207
S32D0000E67092E8030083E80300FB689A68FB68DB6807F11801084611461A46FFF723F8FB6803F1180307F11802DB
S32D0000E69892E8030083E80300FB684FF0010283F8202007F12407BD4690BD00BF82B080B584B000AFF86007F13D
S32D0000E6C0040080E80600FB61FB681846FEF784FEFB6803F108031846FEF77EFEFB6803F118031846FEF78CFEA6
S32D0000E6E8FB6803F15C031846FEF786FEFB6803F1A0031846FEF76CFEFB6803F1A8031846FEF766FEFB6803F1B0
S32D0000E710B4031846FEF760FEFB6807F1040292E8030083E80300FB6803F1080307F11C0292E8030083E80300C4
S32D0000E738FB687A6A1A61FB68BA6A5A61F86800F043F8FB68184607F11007BD46BDE8804002B0704780B483B01C
S32D0000E76000AF78607B68044AC3F8B02007F10C07BD4680BC704700BF0000000080B483B000AF786039607B681E
S32D0000E7883A68C3F8B02007F10C07BD4680BC704780B582B000AF786039607B6803F1180318463968FFF710FDBA
S32D0000E7B07B6818463968FEF7F7FF7B6803F1080318463968FEF7F0FF07F10807BD4680BD90B5B1B002AFF860B3
S32D0000E7D8FB6803F10803FC683A4610461946FEF7B9FF04F108033A4692E8030083E80300FB681B6983F0004462
S32D0000E800FB685B6918465649FEF7AEFC034607F15C02104621461A46FEF75CFFFB681B6918461946FEF7E4FAA4
S32D0000E8280346FA68516907F114020091104607F15C0206CAFFF792FB07F13C031A4607F1140103C982E80300E2
S32D0000E85003F108031A4607F11C0103C982E8030003F108031A4607F12C0103C982E8030003F1080307F1240213
S32D0000E87892E8030083E8030007F1640207F13C03104619464FF00402FFF756FCFB6803F15C0107F164024FF05F
S32D0000E8A04403084611461A460CF08EFBFB6803F15C04FB6803F108031846FEF7D5FF034618462849FEF794FA9E
S32D0000E8C8034620461946FFF77FFCFB6803F15C02FB68104693E80600FFF79CFCFA68FB6802F1180103F15C0203
S32D0000E8F04FF04403084611461A460CF065FBFB681A68FB685B6807F1A801084611461A46FEF7E0FEFB6803F138
S32D0000E918A00307F1A80292E8030083E80300FB689A68FB68DB6807F1B001084611461A46FEF7CCFEFB6803F1D2
S32D0000E940A80307F1B00292E8030083E80300FB68054AC3F8B02007F1BC07BD4690BD00BF000000400000B4422C
S32D0000E9680000000082B0F0B59FB000AF786107F10C0080E80600C7F894307B691846FEF727FD7B6903F10803A0
S32D0000E9901846FEF721FD7B6903F118031846FEF71BFD7B6903F124031846FEF715FD7B6903F12C031846FEF7CC
S32D0000E9B80FFD7B6903F138031846FEF71DFD7B6903F17C031846FEF717FD7B6903F1C0031846FEF751FD7B69C7
S32D0000E9E003F1F0031846FEF72BFD7B6903F58A731D464FF0070406E02846FEF781FD05F1BC0504F1FF34B4F1D6
S32D0000EA08FF3F0CBF00230123DBB2002BF0D17B6903F5DE6303F104031D464FF0050406E02846FEF749FD05F1CF
S32D0000EA30240504F1FF34B4F1FF3F0CBF00230123DBB2002BF0D17B6907F10C0292E8030083E803007C693A46BF
S32D0000EA5807F1940310461946FEF77CFE04F108033A4692E8030083E803007B6903F1F00407F58C750FCD0FC4FA
S32D0000EA800FCD0FC42B6823607B6903F1C00607F11C0407F1E8050FCD0FC40FCD0FC495E80F0084E80F0007F1AB
S32D0000EAA81C039E4208D031461A464FF02D03084611461A460CF084FA7B69D7F840211A614FF000037B671EE0F3
S32D0000EAD07B6F4FF0BC0202FB03F3D7F83C21D31879697A6F4FF0BC0000FB02F28A1802F5887202F104011A4687
S32D0000EAF84FF0BC03084611461A460CF061FA7B6F03F101037B677B691A697B6F9A42D4BF00230123DBB2002B13
S32D0000EB20D6D17B6903F17C0107F1A4024FF04403084611461A460CF047FA7B6903F1380107F1A4024FF0440330
S32D0000EB48084611461A460CF03BFA7B6903F1180307F19C0292E8030083E803007B69D7F84C211A627B69D7F8A6
S32D0000EB7048215A614FF000033B6730E03A6F13464FEAC3039B184FEA830303F5DE637A69D31803F104063A6F3E
S32D0000EB9813464FEAC3039B184FEA8303D7F84421D31807F14C041D460FCD0FC40FCD0FC42B68236007F14C0300
S32D0000EBC09E4208D031461A464FF02103084611461A460CF0F9F93B6F03F101033B677B695A693B6F9A42D4BF3E
S32D0000EBE800230123DBB2002BC4D17B69184607F17C07BD46BDE8F04002B0704780B586B000AF786039607B68FF
S32D0000EC10D3F8C43118463968FEF7EAF803467B617B68D3F8803218463968FEF7E1F803463B617B68D3F83C33EC
S32D0000EC3818463968FEF7D8F80346FB607B6803F58A7318467969FFF795FD7B6803F5E87318463969FFF78EFDEF
S32D0000EC607B6803F523731846F968FFF787FD07F11807BD4680BD00BF2DE9B04388B000AFF86007F1040080E81A
S32D0000EC8806003B60554BFB617B681846FDF720FD02460B46104619464FF000024FF07E5303F5C003FDF768FDBC
S32D0000ECB002460B4614461D46F869FDF70DFD02460B46104619464FF000024FF08043FDF781FE02460B4690460E
S32D0000ECD89946BB681846FDF7FBFC02460B4640464946FDF749FD02460B4620462946FDF78FFB02460B46104600
S32D0000ED001946FEF71FF80346BB617B6883F000437B617B681846FDF7DFFC02460B46104619464FF000024FF0C2
S32D0000ED287E5303F5C003FDF727FD02460B4614461D46F869FDF7CCFC02460B46104619464FF000024FF0804315
S32D0000ED50FDF740FE02460B4690469946BB681846FDF7BAFC02460B4640464946FDF708FD02460B4620462946D5
S32D0000ED78FDF750FB02460B4610461946FDF7DEFF03463B61B8693968FEF736F90346BB6178693968FEF730F93F
S32D0000EDA003467B6138693968FEF72AF903463B61FB6803F58A731846B969FFF7DFFCFB6803F5E8731846796942
S32D0000EDC8FFF7D8FCFB6803F5237318463969FFF7D1FC07F12007BD46BDE8B083D7B3DD3F80B582B000AF786011
S32D0000EDF07B6803F58A731846FFF7B0FC7B6803F5E8731846FFF7AAFC7B6803F523731846FFF7A4FC07F1080781
S32D0000EE18BD4680BD80B584B000AF786039607B6803F17C0318463968FFF7CEF97B6803F1080318463968FEF71B
S32D0000EE40B3FC4FF00003FB6012E0FB684FF0BC0202FB03F303F588737A68D31803F1040318463968FFF798FCCF
S32D0000EE68FB6803F10103FB607B681A69FB689A42D4BF00230123DBB2002BE2D14FF00003BB6014E0BA68134610
S32D0000EE904FEAC3039B184FEA830303F5DE637A68D31803F1040318463968FFF7A7FBBB6803F10103BB607B6832
S32D0000EEB85A69BB689A42D4BF00230123DBB2002BE0D107F11007BD4680BD00BF80B485B000AFF86007F10403AA
S32D0000EEE083E80600FB6807F1040292E8030083E8030007F11407BD4680BC704784B0B0B582B000AF786007F1F4
S32D0000EF081C0080E80E007B681846FFF7ABF87B681C4607F11C050FCD0FC40FCD0FC495E8030084E803007B68E1
S32D0000EF3003F12C031846796C0CF055F87B68BA6C9A627B684FF00502C3F894207B684FF0000283F892207B6833
S32D0000EF58184607F10807BD46BDE8B04004B0704780B582B000AF78607B681846FFF77AF87B68184607F1080744
S32D0000EF80BD4680BD80B584B000AFF86007F1040383E80600F86807F1040393E8060000F00DF803461A46FB6862
S32D0000EFA883F89020FB6893F89030184607F11007BD4680BDB0B584B000AFF86007F1040383E806007A68FB6860
S32D0000EFD01B684FF001010C4610461946FEF7CCF90346002B02D14FF000031C46E3B2002B49D07D68FB681A6800
S32D0000EFF8FB681B6A10461946FDF7F6FE03464FF00102144628461946FEF794F90346002B02D14FF000031C4647
S32D0000F020E3B2002B2FD0BA68FB685B684FF001010C4610461946FEF781F90346002B02D14FF000031C46E3B284
S32D0000F048002B1CD0BD68FB685A68FB685B6A10461946FDF7C7FE03464FF00102144628461946FEF785F9034635
S32D0000F070002B02D14FF000031C46E3B2002B02D04FF0010301E04FF00003184607F11007BD46B0BD80B582B094
S32D0000F09800AF78607B6893F89030002B03D0786800F0FCF902E0786800F004F807F10807BD4680BD2DE9F04196
S32D0000F0C084B002AF78607B689B6A052B02D0062B7BD02DE142F63C10C1F6FF706FF07F4107F086FF7B6803F1D5
S32D0000F0E82C087B681C687B68D3F894301846FDF72FFF034620461946FDF776FE03461846FEF740F906467B68F3
S32D0000F1105B681846FDF7E0FA04460D467B685B6A1846FDF7D9FA02460B46104619464FF000024FF08043FDF7F3
S32D0000F1384DFC02460B4620462946FDF769F902460B46104619464FF000024FF0804303F5A013FDF75FF90246CC
S32D0000F1600B4610461946FDF7A5FD0346C3F1000342F63C10C1F6FF704146324607F04CFF7B681B681846FEF741
S32D0000F18801F906467B685B681846FEF7FBF80346C3F100057B681B6A1846FEF7F3F804467B685B6A1846FEF73A
S32D0000F1B0EDF80346009342F63C10C1F6FF7031462A46234608F034FD65E142F63C10C1F6FF7041F61A21C0F239
S32D0000F1D81A0107F009FF42F63C10C1F6FF7041F61A21C0F21A0107F0D7FE7B681B681846FEF7C8F806467B6892
S32D0000F2005B681846FEF7C2F80346C3F100057B681B6A1846FEF7BAF804467B685B6A1846FEF7B4F803460093D4
S32D0000F22842F63C10C1F6FF7031462A46234608F0C1FD42F63C10C1F6FF706FF07F4107F0D3FE7B6803F12C086C
S32D0000F2507B681C687B68D3F894301846FDF77CFE034620461946FDF7C3FD03461846FEF78DF806467B685B6816
S32D0000F2781846FDF72DFA04460D467B685B6A1846FDF726FA02460B46104619464FF000024FF08043FDF79AFB1E
S32D0000F2A002460B4620462946FDF7B6F802460B46104619464FF000024FF0804303F5A013FDF7ACF802460B46C3
S32D0000F2C810461946FDF7F2FC0346C3F1000342F63C10C1F6FF704146324607F099FE7B681B681846FEF74EF84B
S32D0000F2F006467B685B681846FEF748F80346C3F100057B681B6A1846FEF740F804467B685B6A1846FEF73AF8FF
S32D0000F3180346009342F63C10C1F6FF7031462A46234608F081FCB2E042F63C10C1F6FF7041F61A21C0F21A0101
S32D0000F34007F056FE7B681B681846FEF71FF806467B685B681846FEF719F803466FEA03057B681B6A18464E4927
S32D0000F368FDF742FD03461846FEF70CF804467B685B6A18464849FDF737FD03461846FEF701F80346009342F6F2
S32D0000F3903C10C1F6FF7031462A46234608F00EFD42F63C10C1F6FF706FF07F4107F020FE7B6803F12C087B68BE
S32D0000F3B81C687B68D3F894301846FDF7C9FD034620461946FDF710FD03461846FDF7DAFF06467B685B68184646
S32D0000F3E0FDF77AF904460D467B685B6A1846FDF773F902460B46104619464FF000024FF08043FDF7E7FA0246E7
S32D0000F4080B4620462946FDF703F802460B46104619464FF000024FF0804303F5A013FCF7F9FF02460B461046AB
S32D0000F4301946FDF73FFC0346C3F1000342F63C10C1F6FF704146324607F0E6FD7B681B681846FDF79BFF0646FF
S32D0000F4587B685B681846FDF795FF0346C3F100057B681B6A1846FDF78DFF04467B685B6A1846FDF787FF03469F
S32D0000F480009342F63C10C1F6FF7031462A46234608F0CEFB00BF07F10807BD46BDE8F0810000803F2DE9F0412B
S32D0000F4A884B002AF78607B689B6A052B02D0062B7BD0D1E042F63C10C1F6FF704FF47F0107F092FD7B6803F198
S32D0000F4D02C087B681C687B68D3F894301846FDF73BFD034620461946FDF782FC03461846FDF74CFF06467B68E2
S32D0000F4F85B681846FDF7ECF804460D467B685B6A1846FDF7E5F802460B46104619464FF000024FF08043FDF7F4
S32D0000F52059FA02460B4620462946FCF775FF02460B46104619464FF000024FF0804303F5A013FCF76BFF0246B4
S32D0000F5480B4610461946FDF7B1FB0346C3F1000342F63C10C1F6FF704146324607F058FD7B681B681846FDF742
S32D0000F5700DFF06467B685B681846FDF707FF0346C3F100057B681B6A1846FDF7FFFE04467B685B6A1846FDF71A
S32D0000F598F9FE0346009342F63C10C1F6FF7031462A46234608F040FBA5E142F63C10C1F6FF704FF47F0107F05B
S32D0000F5C017FD7B6803F12C087B681C687B68D3F894301846FDF7C0FC034620461946FDF707FC03461846FDF777
S32D0000F5E8D1FE06467B685B681846FDF771F804460D467B685B6A1846FDF76AF802460B46104619464FF00002F1
S32D0000F6104FF08043FDF7DEF902460B4620462946FCF7FAFE02460B46104619464FF000024FF0804303F5A0136A
S32D0000F638FCF7F0FE02460B4610461946FDF736FB0346C3F1000342F63C10C1F6FF704146324607F0DDFC4EE1A8
S32D0000F66042F63C10C1F6FF7041F61A21C0F21A0107F0BEFC7B681B681846FDF787FE06467B685B681846FDF761
S32D0000F68881FE03466FEA03057B681B6A18469C49FDF7AAFB03461846FDF774FE04467B685B6A18469649FDF7B7
S32D0000F6B09FFB03461846FDF769FE0346009342F63C10C1F6FF7031462A46234608F076FB42F63C10C1F6FF70A7
S32D0000F6D845F65C41C0F2CD0107F086FC42F63C10C1F6FF7045F65C41C0F2CD0107F054FC7B681B681846FCF733
S32D0000F700EBFF02460B46104619464FF000024FF0804303F58023FCF781FE02460B4610461946FDF7C7FA064604
S32D0000F7287B685B681846FCF7D3FF02460B46104619464FF000024FF0804303F58023FCF767FE02460B46104677
S32D0000F7501946FDF7AFFA0346C3F100057B681B6A18466A49FDF742FB03461846FDF70EFE04467B685B6A1846EC
S32D0000F7786449FDF737FB03461846FDF703FE0346009342F63C10C1F6FF7031462A46234608F010FB42F63C1097
S32D0000F7A0C1F6FF706FF07F4107F022FC7B6803F12C087B681C687B68D3F894301846FDF7CBFB034620461946D7
S32D0000F7C8FDF712FB03461846FDF7DCFD06467B685B681846FCF77CFF04460D467B685B6A1846FCF775FF02468E
S32D0000F7F00B46104619464FF000024FF08043FDF7E9F802460B4620462946FCF705FE02460B46104619464FF0DC
S32D0000F81800024FF0804303F5A013FCF7FBFD02460B4610461946FDF741FA0346C3F1000342F63C10C1F6FF7001
S32D0000F8404146324607F0E8FB7B681B681846FCF743FF02460B46104619464FF000024FF0804303F58023FCF7A9
S32D0000F868D9FD02460B4610461946FDF71FFA06467B685B681846FCF72BFF02460B46104619464FF000024FF006
S32D0000F890804303F58023FCF7BFFD02460B4610461946FDF707FA0346C3F100057B681B6A18461649FDF79AFA4B
S32D0000F8B803461846FDF766FD04467B685B6A18461049FDF78FFA03461846FDF75BFD0346009342F63C10C1F6F4
S32D0000F8E0FF7031462A46234608F0A2F942F63C10C1F6FF704FF0000107F052FB00BF07F10807BD46BDE8F0819B
S32D0000F9080000803F0000A04080B483B000AF78607B68184607F10C07BD4680BC704700BFB0B500AF01F024FE1C
S32D0000F93000E000BF05F0D4FD04460D4641F6F003C1F6FF731B681846FCF7C6FE02460B4620462946FCF760FDFE
S32D0000F95802460B464FF001010C46104619464FF000024FF00003FDF797F90346002B02D14FF000031C46E3B219
S32D0000F980002BD6D005F0ACFD02460B4610461946FDF7D8F9024641F6F003C1F6FF731A6002F0DEFCC5E700BF8B
S32D0000F9A8B0B5ADF5127D02AF07F10C04206007F1040080E806003A46136007F10C031B681846FDF705FD07F12F
S32D0000F9D00C031B6803F110031846FEF747FB07F10C031B6803F138031846FEF73FFB07F10C031B6803F16003B4
S32D0000F9F81846FEF783FB07F10C031B6803F16C031846FEF72FFB07F10C031B6803F194031846FEF727FB07F124
S32D0000FA200C031B6803F1BC031846FEF71FFB07F10C031B6803F1E4031846FEF717FB07F10C031B6803F58673C1
S32D0000FA481846FEF70FFB07F10C031B6803F59A731846FEF75FFA07F10C031B6803F5A8731846FEF7FFFA07F117
S32D0000FA700C031B6803F5BC731846FEF743FB07F10C031B6803F5C2731846FEF7EFFA07F10C031B6803F5D67360
S32D0000FA981846FEF73FFA07F10C031B683A4612689A6007F10C031B689B681846FCF710FE02460B4610461946FC
S32D0000FAC0BBA3D3E90023FCF75BFE02460B4610461946FDF737F9024607F10C031B68DA6007F10C031B6807F18F
S32D0000FAE8040292E8030083E8030007F138031846AF49AF4AFDF7EAFD07F1100207F13803AC490091104693E80E
S32D0000FB100600AB4BFEF726FA07F10C031A6807F1100302F110041D460FCD0FC40FCD0FC495E8030084E803006B
S32D0000FB3807F168031846A149A14AFDF7C7FD07F1400207F168039F490091104693E806009D4BFEF703FA07F192
S32D0000FB600C031A6807F1400302F138041D460FCD0FC40FCD0FC495E8030084E8030007F17C0318469349944A3D
S32D0000FB88FDF7A4FD07F1700207F17C03104693E80600904BFEF784FA07F10C031B6807F1700203F1600307CA98
S32D0000FBB083E8070007F1AC0318468949894AFDF789FD07F1840207F1AC0387490091104693E80600854BFEF76F
S32D0000FBD8C5F907F10C031A6807F1840302F16C041D460FCD0FC40FCD0FC495E8030084E8030007F1DC031846F1
S32D0000FC007B497C4AFDF766FD07F1B40207F1DC0379490091104693E80600784BFEF7A2F907F10C031A6807F172
S32D0000FC28B40302F194041D460FCD0FC40FCD0FC495E8030084E8030007F5867318466A496D4AFDF743FD07F1D3
S32D0000FC50E40207F5867368490091104693E80600664BFEF77FF907F10C031A6807F1E40302F1BC041D460FCD1A
S32D0000FC780FC40FCD0FC495E8030084E8030007F59E73184650495D4AFDF720FD07F58A7207F59E735A490091F8
S32D0000FCA0104693E80600594BFEF75CF907F10C031A6807F58A7302F1E4041D460FCD0FC40FCD0FC495E80300D3
S32D0000FCC884E8030007F5B67318464F494F4AFDF7FDFC07F5A273424A0092184607F5B67393E806004A4BFEF741
S32D0000FCF039F907F10C031B6803F5867407F5A2750FCD0FC40FCD0FC495E8030084E8030007F5C87318462B49CF
S32D0000FD18404AFDF7DBFC07F5CC7318463E493B4AFDF7D4FC07F5BA724FF000030193D7F89C310093D7F898313A
S32D0000FD40104607F5C87206CAFEF74CF807F10C031B6803F59A7407F5BA750FCD0FC495E8070084E8070007F5A3
S32D0000FD68E473184627491D4AFDF7B0FC07F5D0731B4A0092184607F5E47393E80600194BFEF7ECF807F10C0395
S32D0000FD901B6803F5A87407F5D0750FCD0FC40FCD0FC495E8030084E8030007F5EE7339E039C2711CC771234087
S32D0000FDB80000000000002F440000AF430000803F0000AAC3000030410000684300801B43000021C30000C841A5
S32D0000FDE000002E430080AFC300001C4200006C420000564300400EC4000040420000C24200001FC4000081C32E
S32D0000FE08000070430000E84200001B43000000C0000026430000F8C20000F64218463649364AFDF753FC07F5DA
S32D0000FE30E873184607F5EE7393E80600324BFEF733F907F10C031B6803F5BC7307F5E87207CA83E8070007F529
S32D0000FE58037318462B492C4AFDF738FC07F5F2732A4A0092184607F5037393E80600284BFEF774F807F10C0303
S32D0000FE801B6803F5C27407F5F2750FCD0FC40FCD0FC495E8030084E8030007F50C7318461A491E4AFDF716FC49
S32D0000FEA807F50E7318461C491C4AFDF70FFC07F505724FF000030193D7F83C320093D7F83832104607F50C7265
S32D0000FED006CAFDF787FF07F10C031B6803F5D67407F505750FCD0FC495E8070084E8070007F10C031B681846EA
S32D0000FEF807F51077BD46B0BD0000124300C0C9C30000B0410000803F0080AFC30000AE420000E64200401AC470
S32D0000FF200000A64200C02EC480B582B000AF78607B681846FDF750FA7B6803F110031846FEF794F87B6803F10C
S32D0000FF4838031846FEF78EF87B6803F160031846FEF7D4F87B6803F16C031846FEF782F87B6803F1940318463F
S32D0000FF70FEF77CF87B6803F1BC031846FEF776F87B6803F1E4031846FEF770F87B6803F586731846FEF76AF8A1
S32D0000FF987B6803F59A731846FDF7BCFF7B6803F5A8731846FEF75EF87B6803F5BC731846FEF7A4F87B6803F5D3
S32D0000FFC0C2731846FEF752F87B6803F5D6731846FDF7A4FF7B68184607F10807BD4680BDF0B58BB008AF786031
S32D0000FFE842F63C10C1F6FF7046F26661C0F2660106F0FAFF7E686C4606F11C050FCD0FC495E8070084E80700E4
S32D0001001006F110030ECB786800F0C0F842F63C10C1F6FF704DF2D331C0F2D30106F0E0FF7E686C4606F1440536
S32D000100380FCD0FC495E8070084E8070006F138030ECB786800F0A6F87B68786803F160030ECB00F0E3F87E68D6
S32D000100606C4606F178050FCD0FC495E8070084E8070006F16C030ECB786800F08FF842F63C10C1F6FF704DF226
S32D00010088D331C0F2D30106F0AFFF7E686C4606F1A0050FCD0FC495E8070084E8070006F194030ECB786800F00A
S32D000100B075F87E686C4606F1C8050FCD0FC495E8070084E8070006F1BC030ECB786800F065F87E686C4606F167
S32D000100D8F0050FCD0FC495E8070084E8070006F1E4030ECB786800F055F87E686C4606F58C750FCD0FC495E8CA
S32D00010100070084E8070006F586730ECB786800F045F87C686D4604F5A0730FCB85E80F0004F59A730ECB7868C4
S32D0001012800F0A6F87E686C4606F5AE750FCD0FC495E8070084E8070006F5A8730ECB786800F028F87B6878681C
S32D0001015003F5BC730ECB00F065F87E686C4606F5C8750FCD0FC495E8070084E8070006F5C2730ECB786800F0E4
S32D0001017811F87C686D4604F5DC730FCB85E80F0004F5D6730ECB786800F072F807F10C07BD46F0BD84B0B0B571
S32D000101A094B006AF786007F14C0080E80E0007F130031846796807F14C030CCB00F048FCFA6E7B689B68104645
S32D000101C81946FCF719FF03461C463A6F7B689B6810461946FCF710FF03461A4607F108030092184607F13003E6
S32D000101F093E806002346FDF7B5FE6C4607F118050FCD0FC495E8030084E8030007F108030FCB02F071F907F1B9
S32D000102183807BD46BDE8B04004B0704780B58AB000AFF860384680E80E0007F120031846F9683B460CCB00F0E9
S32D0001024007FCBA68FB689B6810461946FCF7D8FE034607F11402104607F1200206CAFDF723FF07F1140393E84F
S32D00010268070002F0A7F907F12807BD4680BD00BF84B080B592B004AF786007F1440080E80E0007F1280318463F
S32D00010290796807F144030CCB00F0DAFB07F130031846796807F14C030CCB00F0D1FB07F10C024FF00003019363
S32D000102B87B6B00933B6B104607F1280206CAFDF78DFD6B4607F11C0207CA83E8070007F10C030FCB02F03CF920
S32D000102E007F13807BD46BDE8804004B0704700BF84B080B592B004AF786007F1440080E80E0007F128031846BD
S32D00010308796807F144030CCB00F0D2FB07F130031846796807F14C030CCB00F0C9FB07F10C024FF000030193FA
S32D000103307B6B00933B6B104607F1280206CAFDF751FD6B4607F11C0207CA83E8070007F10C030FCB02F000F91F
S32D0001035807F13807BD46BDE8804004B0704700BF84B090B59FB004AF786007F17C0080E80E004FF000037B664D
S32D000103804BE07B6E4FEAC30307F17801CB189A687B6E4FEAC30307F17801CB18DB6807F14401084611461A4624
S32D000103A8FDF794F97B6E03F101034FEAC30307F17802D3189A687B6E03F101034FEAC30307F17801CB18DB68EF
S32D000103D007F14C01084611461A46FDF77BF907F10C024FF0000301933B6D0093FB6C104607F1440206CAFDF776
S32D000103F8F5FC6C4607F118030FCB84E80F0007F10C030ECB7868FFF76FFF7B6E03F101037B66FB6F03F1FF3256
S32D000104207B6E9A42D4BF00230123DBB2002BA8D1FB6F03F1FF334FEAC30307F17802D3189A68FB6F03F1FF335F
S32D000104484FEAC30307F17801CB18DB6807F15401084611461A46FDF739F9D7F88020D7F8843007F15C010846E2
S32D0001047011461A46FDF72EF907F128024FF0000301933B6E0093FB6D104607F1540206CAFDF7A8FC6C4607F139
S32D0001049834030FCB84E80F0007F128030ECB7868FFF722FF07F16C07BD46BDE8904004B0704700BF82B090B532
S32D000104C095B004AFF86007F1040080E806007B657A687B6D10461946FCF78AFC03461C46BA68BB6D10461946D1
S32D000104E8FCF782FC034607F13802104621461A46FDF7ECF807F11C024FF000030193FB6B0093BB6B104607F1AB
S32D00010510040206CAFDF766FC6C4607F128030FCB84E80F0007F11C030ECBF868FFF7E0FE07F14407BD46BDE857
S32D00010538904002B0704700BF90B587B000AFF86007F1040080E806003B6007F110031846F96807F104030CCB74
S32D0001056000F0AAFA3B6918460F49FCF73FFC03461846FCF70BFF04467B6983F0004318460A49FCF733FC0346AC
S32D000105881846FCF7FFFE034642F63C10C1F6FF703968224606F03CFD07F11C07BD4690BD0000E04000000041FF
S32D000105B084B0F0B5FBB00EAF07F10404206007F5E67080E80E004FF00003C7F8AC319BE007F10C02D7F8AC3188
S32D000105D84FF0BC0101FB03F307F5E471CB1803F59673114603F104024FF04403084611461A460AF0E5FC07F51E
S32D00010600A6731D464FF0030406E02846FCF7E4FE05F1080504F1FF34B4F1FF3F0CBF00230123DBB2002BF0D147
S32D000106284FF00003C7F8A8313AE007F10C02D7F8A8314FEAC303D3185A68D7F8CC3110461946FCF7D1FB0346CC
S32D000106501C4607F10C02D7F8A8314FEAC303D3189A68D7F8D03110461946FCF7C1FB034607F5C6721046214611
S32D000106781A46FDF72BF8D7F8A8314FEAC30307F5D872D318A3F1640307F5C67292E8030083E80300D7F8A83142
S32D000106A003F10103C7F8A831D7F8A831032BCCBF00230123DBB2002BBBD107F1500207F5A673104619464FF05C
S32D000106C80402FDF739FD07F1040E07F150066C4606F10C050FCD0FC40FCD0FC40FCD0FC495E8030084E80300C5
S32D000106F096E80E00DEF80000FFF736FED7F8AC3103F10103C7F8AC31D7F8DC21D7F8AC319A42D4BF00230123E1
S32D00010718DBB2002B7FF458AF07F19403194607F512724FF04403084611461A460AF048FC07F58E731D464FF0AA
S32D00010740050406E02846FCF747FE05F1080504F1FF34B4F1FF3F0CBF00230123DBB2002BF0D14FF00003C7F85B
S32D00010768A4313AE007F19402D7F8A4314FEAC303D3185A68D7F8CC3110461946FCF734FB03461C4607F19402B9
S32D00010790D7F8A4314FEAC303D3189A68D7F8D03110461946FCF724FB034607F5CA72104621461A46FCF78EFFF5
S32D000107B8D7F8A4314FEAC30307F5D871CB18A3F1940307F5CA7292E8030083E80300D7F8A43103F10103C7F89E
S32D000107E0A431D7F8A431052BCCBF00230123DBB2002BBBD107F1D80207F58E73104619464FF00602FDF79CFCD4
S32D0001080807F104066C4607F1E4050FCD0FC40FCD0FC40FCD0FC495E8030084E8030007F1D8030ECB3068FFF7F6
S32D000108309BFD4FF00003C7F8A031F1E0D7F8A02113464FEAC3039B184FEA830307F5E472D31803F5DE6303F19A
S32D00010858040307F5C27203F1040393E8030082E80300D7F88421D7F8CC3110461946FCF7BBFA03461C46D7F83D
S32D000108808821D7F8D03110461946FCF7B1FA034607F5BE72104621461A46FCF71BFF6A4BC7F89C3107F5E6714A
S32D000108A8D7F8A02113464FEAC3039B184FEA830303F5DE63CB1803F104031846FDF78CFE034683F00103DBB287
S32D000108D0002B07D0D7F89C015C49FCF791FB0346C7F89C31D7F8A02113464FEAC3039B184FEA830307F5E471E7
S32D000108F8CB1803F5E0631B681846D7F89C11FCF77BFB03461C46D7F8A02113464FEAC3039B184FEA830307F5EC
S32D00010920E472D31803F5E06303F104031B681846D7F89C11FCF764FB034607F5BA72104621461A46FCF7C6FE3D
S32D00010948D7F8A031052B07D142F63C10C1F6FF704FF0FF0106F048FBD7F87C21D7F8743110461946FCF740FAF4
S32D0001097003461C46D7F88021D7F8783110461946FCF736FA034607F5B672104621461A46FCF7A0FED7F8A03132
S32D00010998032B1FD0052B0FD0012B29D107F10403186807F5B67393E806004CF2F003C0F20103FFF7C1FD1CE022
S32D000109C007F10403186807F5B67393E806004CF2F403C0F20103FFF7B3FD0EE007F10403186807F5B67393E845
S32D000109E806004CF2F803C0F20103FFF7A5FD00E000BF07F10402D7F878310093D7F87431106807F5BE7206CAC3
S32D00010A10FFF754FDD7F8A03103F10103C7F8A031D7F8E021D7F8A0319A42D4BF00230123DBB2002B7FF402AF46
S32D00010A3807F5DA77BD46BDE8F04004B0704700BF0000A0400000404090B585B000AFF860B960394681E80C0052
S32D00010A603A68BB689B6810461946FCF7C9FA03461A46BB681B6810461946FCF7B9F903461C467A68BB689B68D8
S32D00010A8810461946FCF7B8FA03461A46BB685B6810461946FCF7A8F90346F86821461A46FCF714FEF86807F140
S32D00010AB01407BD4690BD00BF90B585B000AFF860B960394681E80C003A68BB68DB6810461946FCF795FA0346D7
S32D00010AD81A46BB681B6810461946FCF785F903461C467A68BB68DB6810461946FCF784FA03461A46BB685B681B
S32D00010B0010461946FCF774F90346F86821461A46FCF7E0FDF86807F11407BD4690BD00BF80B582B000AF786001
S32D00010B2839607B6803F11C031846FCF711FF7B683A681A6004F0D0FC02460B4610461946FCF7FCF802467B688F
S32D00010B50DA607B684FF000025A607B684FF000029A607B680B4A1A617B680A4A5A617B684FF000021A767B6804
S32D00010B784FF000025A767B684FF000029A767B68184607F10807BD4680BD00BF0000000080B582B000AF7860D4
S32D00010BA07B6803F11C031846FCF7D6FE7B68184607F10807BD4680BDF0B587B000AFF860B9607A60484B7B613E
S32D00010BC8FB681B7E83F00103DBB2002B46D0FB681B6818467968FEF711F87869FBF778FD02460B461046194604
S32D00010BF0FBF714FC02460B4614461D467868FBF76BFD02460B4620462946FBF7B9FD02460B46104619464FF0A1
S32D00010C1800024FF0804303F5B203FBF7D7FE02460B4610461946FCF789F803463B61B8683969FCF795FA034601
S32D00010C401A46FB685A6104F04BFC02460B4610461946FCF777F80246FB681A61FB684FF001021A7604F03CFC95
S32D00010C6804460D46FB681B691846FBF731FD02460B4620462946FBF7CBFB02460B4614461D46FB685B6918465A
S32D00010C90FBF722FD02460B464FF001010E4620462946FBF7FDFF0346002B02D14FF000031E46F3B2002B0FD097
S32D00010CB8FB684FF000021A76FB681A687B6883F0004310461946FDF799FF4FF0010301E04FF00003184607F15E
S32D00010CE01C07BD46F0BD00BF0000F042F0B583B000AF786039607B681B681846FEF774F804F0EEFB04460D468A
S32D00010D087B68DB681846FBF7E3FC02460B4620462946FBF77DFB02460B4614461D463868FBF7D6FC02460B463C
S32D00010D304FF001010E4620462946FBF7B1FF0346002B02D14FF000031E46F3B2002B10D07B685B6803F101024E
S32D00010D587B685A6004F0C0FB02460B4610461946FBF7ECFF02467B68DA6007F10C07BD46F0BD00BF80B584B0AD
S32D00010D8000AFF860B9607A60F868B9687A68FFF713FF0346002B10D0FB685B6803F10102FB685A6004F09CFBC6
S32D00010DA802460B4610461946FBF7C8FF0246FB68DA6007F11007BD4680BD00BF80B584B000AFF860B9607A60BF
S32D00010DD0BB6883F000427B6883F00043F86811461A46FFF7E9FE0346002B10D0FB685B6803F10102FB685A6001
S32D00010DF804F072FB02460B4610461946FBF79EFF0246FB68DA6007F11007BD4680BD00BF80B584B000AFF8602B
S32D00010E20B9607A603B60F86839687A68FFF7C4FE0346002B16D1FB681968BA6813464FEAC3039B184FEA83034F
S32D00010E4803F5DE63CB1803F104031846FDF7C4FB034683F00103DBB2002B02D04FF0010301E04FF00003F86843
S32D00010E70194600F011F907F11007BD4680BD00BF80B584B000AFF860B9607A603B603B6883F000427B6883F040
S32D00010E980043F86811461A46FFF78AFE0346002B16D1FB681968BA6813464FEAC3039B184FEA830303F5DE63EF
S32D00010EC0CB1803F104031846FDF78AFB034683F00103DBB2002B02D04FF0010301E04FF00003F868194600F0EF
S32D00010EE8D7F807F11007BD4680BD00BFF0B585B000AFF86007F1040080E806003B60FB681B68184607F10403D5
S32D00010F1093E806003B68FDF7AFFE04F0E1FA04460D46FB68DB681846FBF7D6FB02460B4620462946FBF770FAF0
S32D00010F3802460B4614461D46B86AFBF7C9FB02460B464FF001010E4620462946FBF7A4FE0346002B02D14FF03F
S32D00010F6000031E46F3B2F868194600F095F807F11407BD46F0BD00BF80B584B000AFF86007F1040080E80600BE
S32D00010F883B60FB681B68184607F1040393E80600BB69FDF76DFEFB6819683A6813464FEAC3039B184FEA830308
S32D00010FB003F5DE63CB1803F104031846FDF710FB034683F00103DBB2002B10D0FB685B6803F10102FB685A600C
S32D00010FD804F082FA02460B4610461946FBF7AEFE0246FB68DA6007F11007BD4680BD00BFF0B585B000AFF860BA
S32D00011000B9607A60FB681B6803F1C0031846B968FDF74EFA04F064FA04460D46FB68DB681846FBF759FB0246F5
S32D000110280B4620462946FBF7F3F902460B4614461D467868FBF74CFB02460B464FF001010E4620462946FBF731
S32D0001105027FE0346002B02D14FF000031E46F3B2F868194600F018F807F11407BD46F0BD80B582B000AF78604A
S32D000110787B681B6803F1F0031846FDF753F903467868194600F004F807F10807BD4680BD80B582B000AF7860B5
S32D000110A00B46FB70FB78002B10D07B685B6803F101027B685A6004F013FA02460B4610461946FBF73FFE0246E7
S32D000110C87B68DA60FB78184607F10807BD4680BD90B5BBB002AF786001F032FB4CF2FC03C0F2010307F1080179
S32D000110F01A464FF05803084611461A4609F064FF7B685B684FEA830307F1E002D31853F8D82C7B689A60DC4BF9
S32D00011118C7F8DC30DB4BC7F8D830DB4BC7F8D43007F160031846FCF753F9D7F8DC00D749FBF762FF0346C7F8E9
S32D00011140D030D54BC7F8CC30D7F8DC00D149FBF757FF0346C7F8C830CC4BC7F8C430CE4BC7F8C030CC4BC7F830
S32D00011168BC30D7F8DC00CB49FBF746FF0346C7F8B830C94BC7F8B430C54BC7F8B030D7F8DC00C649FBF738FF3D
S32D000111900346C7F8AC30C04BC7F8A830C24BC7F8A430D7F8DC00FBF797FA02460B4610461946B3A3D3E9002359
S32D000111B8FBF7E2FA02460B4610461946FBF7BEFD0346C7F8A030B24BC7F89C30D7F8DC00B449FBF711FF0346EC
S32D000111E0C7F89830D7F8DC00B149FBF709FF0346C7F89430A84BC7F890307B689B680A2B00F0F3800A2B1DDCD0
S32D00011208052B00F09980052B0BDC012B56D0012B02DC002B32D079E1022B63D0042B7DD074E1072B00F0A4800D
S32D00011230072BC0F29380082B00F0BB80092B00F0C68067E12D2B58D02D2B0BDC0C2B00F0F8800C2BC0F2E780DA
S32D000112580D2B00F041810E2B36D057E1322B00F04981322B02DC2E2B4AD04FE1642B11D040F2E732934200F091
S32D00011280448147E104F02CF902460B4610461946FBF758FD02467B68DA603CE17868FFF7E7FE7B681C6807F108
S32D000112A8680318468149824AFCF710FA204607F1680393E80600FDF709FE28E17868D7F8D410FFF70FFD22E1D5
S32D000112D07B68D7F8D0200092786803F15C0393E80600D7F8CC30FFF705FE14E178687349D7F8D820FFF742FDB6
S32D000112F80DE178687049D7F8D820FFF75FFD06E17B68D7F894200092786803F18C0393E80600D7F89030FFF7DF
S32D00011320E9FDF8E07B68D7F8D8200092786803F1840393E806004FF00103FFF71DFEEAE07B68D7F8C82000927E
S32D00011348786803F1940393E80600D7F8C430FFF7CDFDDCE07B68D7F8C0200092786803F1940393E806004FF0FC
S32D000113700203FFF701FECEE0524BC7F88C3078684FF00101D7F8BC20D7F88C30FFF744FD7B681C6807F170032E
S32D0001139818464B494B4AFCF799F9204607F1700393E80600FDF792FDB1E07B68D7F8B8200092786803F15C0365
S32D000113C093E80600D7F8B430FFF794FDA3E07B68D7F8B0200092786803F15C0393E806004FF00003FFF7C8FDFB
S32D000113E895E07B68D7F8AC200092786803F16C0393E80600D7F8A830FFF778FD7B681C6807F1780318462E49CC
S32D000114102F4AFCF75FF9204607F1780393E80600FDF758FD77E07B68D7F8A4200092786803F14C0393E8060043
S32D000114384FF00503FFF79CFD69E0244BC7F8883078684FF00001D7F8D820D7F88830FFF713FD7B681C6807F1AD
S32D00011460800318461C491D4AFCF734F9204607F1800393E80600FDF72DFD4CE0AFF300809A9999999999E93F03
S32D00011488CDCC4C3E000048420000803F0000404000000C4200002041000070420000003F00001C4200002040EB
S32D000114B00000C03F0000104100007CC20000E0400000B8410000B44200000042000070C2000000C100003442C5
S32D000114D800004041000040C17B68D7F8A0200092786803F13C0393E80600D7F89C30FFF7FDFC0CE07868094923
S32D00011500D7F89820FFF778FD05E07B684FF000029A6000E000BF01F01FF907F1E407BD4690BD00BF0000F041FC
S32D0001152880B582B000AF78607B684FF000025A6003F0D2FF02460B4610461946FBF7FEFB02467B68DA6007F16E
S32D000115500807BD4680BD00BF80B483B000AF78607B684FF001025A6007F10C07BD4680BC704700BF00000000D1
S32D000115782DE9F043ADF5B25D87B02EAFC2A3D3E9002307F5AC5101F11801C1E9002307F5A8634CF25412C0F2C4
S32D000115A0010292E80300186003F10403198007F50463A3F11C031846B749B84AFCF78AF807F50062A2F10402AE
S32D000115C807F50463A3F11C03B1490091104693E80600B14BFCF7C2FC07F5F06EAEF11C0E07F50066A6F10406A9
S32D000115F007F5A86307934FF0000308936C4606F10C050FCD0FC495E8070084E8070096E80E007046FDF772FC4A
S32D0001161842F2F832C1F6FF7207F5F063A3F11C0311461A464FF09803084611461A4609F0C7FC07F5A8634CF284
S32D000116405C12C0F2010292E80300186003F10403198007F51063A3F1140318468E49914AFCF738F807F50E6216
S32D00011668A2F11C0207F51063A3F1140388490091104693E80600884BFCF770FC07F5046EAEF1140E07F50E667E
S32D00011690A6F11C0607F5A86307934FF0000308936C4606F10C050FCD0FC495E8070084E8070096E80E00704652
S32D000116B8FDF720FC42F29042C1F6FF7207F50463A3F1140311461A464FF09803084611461A4609F075FC07F5BB
S32D000116E0A86244F24133C0F25403136007F51C63A3F10C03184668496B4AFBF7EBFF07F51A62A2F1140207F5D0
S32D000117081C63A3F10C0362490091104693E80600644BFCF723FC07F5106EAEF10C0E07F51A66A6F1140607F560
S32D00011730A86307934FF0000308936C4606F10C050FCD0FC495E8070084E8070096E80E007046FDF7D3FB42F270
S32D000117582852C1F6FF7207F51063A3F10C0311461A464FF09803084611461A4609F028FC07F52863A3F10403D9
S32D0001178018464B49484AFBF7A5FF07F52662A2F10C0207F52863A3F104033F490091104693E80600414BFCF76A
S32D000117A8DDFB07F51C6EAEF1040E07F52666A6F10C0607F5A86307934FF0000308936C4606F10C050FCD0FC4EB
S32D000117D095E8070084E8070096E80E007046FDF78DFB42F2C052C1F6FF7207F51C63A3F1040311461A464FF0BB
S32D000117F89803084611461A4609F0E2FB07F54663A3F1140318462949294AFBF75FFF07F52A62A2F11C0207F534
S32D000118204663A3F11403104693E80600234BFEF7BBF841F64412C1F6FF7207F52A63A3F11C0311461A464FF46D
S32D00011848E473084611461A4609F0BAFB4FF0FF3307F5AC5202F1140213604FF0030307F5AC5C0CF1100CCCF85A
S32D0001187000304FF0060307F5AC5101F10C010B600F4B07F5AC5202F1080213600D4B1BE0AA4C58E87AB6FB3FB7
S32D000118980000F041000070C20000C8420000D2C2000016C3000034420000AA4200001643000000C20000803E0C
S32D000118C09A99993FCDCCCC3F07F5AC5C0CF1040CCCF80030DFF8303507F5AC510B60DFF82C3507F5AA5202F182
S32D000118E83C02136007F5EC63A3F104031846DFF81815DFF81825FBF7E9FE07F5EC63A3F104031B68184607F528
S32D00011910AA5303F13C031968FBF768FA03461C4607F5EC63A3F104035B68184607F5AA5C0CF13C0CDCF80010C6
S32D00011938FBF758FA03461A4607F54663A3F10C0318462146FBF7C2FE07F5AC5101F114010868FBF7FDFA044631
S32D0001196007F5AC5202F11802D2F8008007F5AC5C0CF11C0CDCF8003083F0004907F5AC5101F114010868FAF7BD
S32D0001198895FE02460B4640464946FAF7F5FE02460B4610461946FBF7D1F9024607F54663A3F1040318462146B4
S32D000119B0FBF790FE07F54871A1F1140107F54662A2F10C0207F54663A3F1040307F5AC5C0CF1080CDCF80000BE
S32D000119D8019007F5AC5C0CF1040CDCF800000290586800901B68084606CAFCF75FFE07F5EC63A3F104031C682D
S32D00011A0007F5EC63A3F104035B68184607F5AA5202F13C021168FBF7EBF903461A4607F54863A3F11C031846D7
S32D00011A282146FBF753FE07F5AC5C0CF1140CDCF80030C3F100031846FBF78AFA024607F54863A3F1140318463D
S32D00011A501146EF4AFBF73EFE07F57871A1F1180107F54862A2F11C0207F54863A3F1140307F5AC5C0CF1080C5B
S32D00011A78DCF80000019007F5AC5C0CF1040CDCF800000290586800901B68084606CAFCF70DFE07F5EC63A3F195
S32D00011AA004031B68184607F5AA5202F13C021168FBF79EF903461C4607F5EC63A3F104035B68184607F5AA5359
S32D00011AC803F13C031968FBF78DF903461A4607F54863A3F10C0318462146FBF7F7FD07F5AC5C0CF1140CDCF830
S32D00011AF00000FBF731FA044607F5AC5101F114010868FAF7D7FD02460B4610461946BCA3D3E90023FAF734FE7C
S32D00011B1802460B4610461946FBF710F9024607F54863A3F1040318462146FBF7CFFD07F59461A1F11C0107F5AC
S32D00011B404862A2F10C0207F54863A3F1040307F5AC5C0CF1080CDCF80000019007F5AC5C0CF1040CDCF800008A
S32D00011B680290586800901B68084606CAFCF79EFD3B461C4607F54873A3F1140321461A464FF0BC03084611468E
S32D00011B901A4609F019FA04F1BC0407F57873A3F1180321461A464FF0BC03084611461A4609F00AFA04F1BC02F5
S32D00011BB807F59463A3F11C0311461A464FF0BC03084611461A4609F0FBF907F5AC510B6883F0004318468E495A
S32D00011BE0FBF7C2FA0346194607F5AC52136883F0004207F54A63A3F11C031846FBF76AFD07F54A63A3F11403EF
S32D00011C0818468149834AFBF761FD07F5CC61A1F1180107F54A62A2F11C0207F54A63A3F11403586800901B6814
S32D00011C30084606CAFCF798FC07F5AC5CDCF8003083F0004207F54A63A3F10C03184611466F4AFBF73FFD07F53F
S32D00011C58AC5202F11802D2E90001FBF76FF8034683F0004207F54A63A3F1040318461146664AFBF72BFD07F580
S32D00011C80D061A1F1140107F54A62A2F10C0207F54A63A3F10403586800901B68084606CAFCF762FC07F5AC5C8A
S32D00011CA8DCF8003083F0004318465949FBF758FA03461A4607F54C63A3F11C031846114607F5AC531A68FBF7E4
S32D00011CD001FD07F5AC5C0CF1180CDCE90001FBF731F8034683F0004207F54C63A3F1140318461146474AFBF755
S32D00011CF8EDFC07F5D26107F54C62A2F11C0207F54C63A3F11403586800901B68084606CAFCF726FC07F5AC51F5
S32D00011D2008683D49FBF720FA03461A4607F54C63A3F10C031846114607F5AC531A68FBF7C9FC07F54C63A3F173
S32D00011D48040318463449314AFBF7C0FC07F5D861A1F10C0107F54C62A2F10C0207F54C63A3F1040358680090AC
S32D00011D701B68084606CAFCF7F7FB07F54E63A3F11C03184607F5AC5CDCF80010204AFBF7A1FC07F54E63A3F1DE
S32D00011D981403184620491D4AFBF798FC07F5DC61A1F1080107F54E62A2F11C0207F54E63A3F114035868009078
S32D00011DC01B68084606CAFCF7CFFB07F5AC5108681149FBF7C9F90346194607F5AC52136883F0004207F54E63A0
S32D00011DE8A3F10C031846FBF771FC07F54E63A3F104031846044911E0AA4C58E87AB6FB3F000088405CFD414046
S32D00011E10000000000000803F00000040000080BFD7B3DD3FDFF86824FBF754FC07F5E061A1F1040107F54E629A
S32D00011E38A2F10C0207F54E63A3F10403586800901B68084606CAFCF78BFB07F51873A3F12C031E4607F5CC634F
S32D00011E60A3F1180334461D460FCD0FC40FCD0FC42B68236006F1240607F5D063A3F1140334461D460FCD0FC4CC
S32D00011E880FCD0FC42B68236006F1240607F5D26334461D460FCD0FC40FCD0FC42B68236006F1240607F5D8636B
S32D00011EB0A3F10C0334461D460FCD0FC40FCD0FC42B68236006F1240607F5DC63A3F1080334461D460FCD0FC488
S32D00011ED80FCD0FC42B68236006F1240207F5E063A3F1040314461D460FCD0FC40FCD0FC42B682360E54B07F5C2
S32D00011F00AA5C0CF1380CCCF800304FF4FA7307F5AA5101F134010B6040F6C41307F5AA5202F13002136041F66A
S32D00011F282410C1F6FF7007F5AA5303F13403196804F054FA41F62410C1F6FF7007F5AA5C0CF1300CDCF8001099
S32D00011F5004F066FA41F62410C1F6FF7007F5AA5202F13802116804F07BFA07F55063A3F11C031846C849C94A92
S32D00011F78FBF7ACFB07F55063A3F114031846C449C54AFBF7A3FB07F5C061A1F1180107F55062A2F11C0207F51A
S32D00011FA05063A3F1140307F5AA5C0CF1380CDCF800000190586800901B68084606CAFCF737FA07F55063A3F1B4
S32D00011FC80C031846B249B44AFBF780FB07F55063A3F104031846AE49AF4AFBF777FB07F5E46107F55062A2F199
S32D00011FF00C0207F55063A3F10403586800901B68084606CAFCF756F907F5EC63A3F10C031846A149A04AFBF725
S32D000120185DFB07F5EC63A3F1140318469F49A04AFBF754FB07F5EC63A3F11C0318469849994AFBF74BFB07F586
S32D00012040C463A3F108031C4607F5AC510B6883F0004318469549FBF787F803462046194607F5AC531A68FBF7FD
S32D0001206835FB04F1080407F5AC5CDCF800008D49FBF776F803462046194607F5AC531A68FBF724FB04F108046D
S32D00012090204607F5AC5CDCF800107F4AFBF71AFB04F1080407F5AC5108688049FBF75CF803461A4607F5AC5CDD
S32D000120B8DCF8003083F00043204611461A46FBF705FB04F1080407F5AC510B6883F0004318467449FBF744F8C4
S32D000120E003461A4607F5AC5CDCF8003083F00043204611461A46FBF7EDFA04F1080207F5AC510B6883F0004353
S32D0001210810461946624AFBF7E1FA07F5B862A2F11C0207F5C463A3F10803104619464FF00602FCF709F807F505
S32D000121305269A9F11C0907F5EC68A8F1140807F5EC66A6F11C0607F5EC63A3F10C0301AA93E8030082E8030076
S32D0001215807F5B863A3F11C0303A91A464FF04403084611461A4608F02BFF07F5C063A3F1180314AD1C460FCC09
S32D000121800FC50FCC0FC594E80F0085E80F0007F5E46320AD1C460FCC0FC50FCC0FC523682B603B46299307F587
S32D000121A8AC5202F1100213682A9307F51873A3F12C032B9307F5AC5C0CF10C0CDCF800302C9307F5AA5101F100
S32D000121D03C010B682D93736800933368484698E80600FCF7C3FB41F60C32C1F6FF7207F55263A3F11C0311464A
S32D000121F81A4640F2CC73084611461A4608F0E0FE41F60C30C1F6FF702749FCF703FE07F5A65303F114031846B1
S32D0001222041F60C31C1F6FF71FEF77AFC42F2DC23C1F6FF73194607F5A65202F114024FF09C03084611461A46EE
S32D0001224808F0BEFE0F481949FBF73AFD42F27830C1F6FF701549FBF733FD03F03DF902460B4610461946FAF7E7
S32D0001227069FD024641F64013C1F6FF731A6007F5D27707F5A057BD46BDE8F083F822FF1F000080BF0000C84290
S32D00012298000000000000003F0000803F0000104100007CC20000004000007F430000964290B5ADF5F86D81B033
S32D000122C04FF4F8676F4442F63C10C1F6FF7041F61A21C0F21A0104F039FE41F64410C1F6FF70FDF77DFE42F62E
S32D000122E83C10C1F6FF704EF2D001C0F2400104F07BFE41F60C34C1F6FF74694604F10C024FF4F863084611464E
S32D000123101A4608F059FE94E80E0041F64410C1F6FF70FEF745F942F2F830C1F6FF70FCF7B1FE42F29040C1F6A2
S32D00012338FF70FCF7ABFE42F22850C1F6FF70FCF7A5FE42F2C050C1F6FF70FCF79FFE07F10407BD4690BD00BFF7
S32D00012360B0B582B000AF42F63C10C1F6FF7041F63411C1F6FF715C4A04F0CEFE03461A4641F63C13C1F6FF73FD
S32D000123881A7041F63413C1F6FF731A6841F63413C1F6FF735B6883F000433946084611461A46FBF793F941F61A
S32D000123B03413C1F6FF733A4692E8030083E8030041F63413C1F6FF7342F22850C1F6FF7093E80600FCF7D6FD63
S32D000123D80346002B03D043484349FCF765F841F63413C1F6FF7342F2C050C1F6FF7093E80600FCF7C3FD03469A
S32D00012400002B03D039483B49FCF752F841F63413C1F6FF7342F29040C1F6FF7093E80600FCF7B0FD0346002B07
S32D0001242805D042F2DC20C1F6FF70FFF779F841F63413C1F6FF7342F2F830C1F6FF7093E80600FCF79BFD034675
S32D00012450002B05D042F2DC20C1F6FF70FFF77CF842F2DC20C1F6FF70FEF736FE03F038F804460D4641F64013D4
S32D00012478C1F6FF731B681846FAF72AF902460B4620462946F9F7C4FF02460B464FF001010C46104619464FF0D6
S32D000124A000024FF07E5303F5C003FAF7F9FB0346002B02D14FF000031C46E3B2002B0FD003F00EF802460B463F
S32D000124C810461946FAF73AFC024641F64013C1F6FF731A60FFF7ECFE07F10807BD46B0BD3819FF1FCC1BFF1FC9
S32D000124F0000070410000C84284B0F0B583B002AF07F1180C8CE80F00BB691846FAF73EFF0646FB691846FAF7F7
S32D0001251839FF0346C3F10005BB6B1846FAF732FF0446FB6B1846FAF72DFF0346009342F63C10C1F6FF7031468C
S32D000125402A46234605F03AFC07F10407BD46BDE8F04004B0704700BF84B0F0B583B002AF07F1180C8CE80F0007
S32D00012568BB691846FAF70EFF0646FB691846FAF709FF0346C3F100053B6A1846FAF702FF04467B6A1846FAF748
S32D00012590FDFE0346C3F10003009342F63C10C1F6FF7031462A46234605F036FC07F10407BD46BDE8F04004B0DE
S32D000125B8704700BFB0B584B000AF07F1040383E807007B681846FAF7DDFE0546BB681846FAF7D8FE0346C3F128
S32D000125E00004FB681846FAF7D1FE034642F63C10C1F6FF702946224605F0CCFC07F11007BD46B0BD80B500AF5D
S32D0001260841F63010C1F6FF7003F022FB024641F60C33C1F6FF73C3F8102180BD80B500AF41F60C33C1F6FF7363
S32D00012630D3F8E03041F62410C1F6FF70194603F00FFF80BD80B500AF41F60C33C1F6FF73D3F8C43141F6F40004
S32D00012658C1F6FF70194600F0FFFB41F60C33C1F6FF73D3F8803241F6FC00C1F6FF70194600F0F2FB41F60C33BD
S32D00012680C1F6FF73D3F83C3341F60410C1F6FF70194600F0E5FB80BD80B500AF41F60C10C1F6FF7003F078F82B
S32D000126A803461A4641F60C33C1F6FF7383F8142741F61010C1F6FF7003F06AF803461A4641F60C33C1F6FF73EB
S32D000126D083F8382741F61410C1F6FF7003F05CF803461A4641F60C33C1F6FF7383F85C2741F61810C1F6FF706E
S32D000126F803F04EF803461A4641F60C33C1F6FF7383F8802741F61C10C1F6FF7003F040F803461A4641F60C333D
S32D00012720C1F6FF7383F8A42741F62010C1F6FF7003F032F803461A4641F60C33C1F6FF7383F8C82780BD00BFC3
S32D0001274880B500AFFFF75AFFFFF7A2FF80BD00BF80B500AFFFF772FFFFF760FF80BD00BF80B586B000AFF8608E
S32D00012770C7E90023F868F9F7AFFF02460B4610461946D7E9002306F099FE02460B461046194607F11807BD4643
S32D0001279880BD00BF80B582B000AF786039607B68012B40F09D803A684FF6FF739A4240F0978041F6F400C1F6D5
S32D000127C0FF704FF000014A4A00F0C2FA41F6FC00C1F6FF704FF00101454A00F0B9FA41F60410C1F6FF704FF07F
S32D000127E80201414A00F0B0FA41F60C10C1F6FF704FF0080102F0A8FE41F61010C1F6FF704FF0090102F0A0FEEB
S32D0001281041F61410C1F6FF704FF00A0102F098FE41F61810C1F6FF704FF00B0102F090FE41F61C10C1F6FF706D
S32D000128384FF00D0102F088FE41F62010C1F6FF704FF00E0102F080FE41F62410C1F6FF704FF0000103F0A4FDFC
S32D0001286041F63010C1F6FF704FF0000103F0E2F941F63410C1F6FF70FAF7AEFD41F64410C1F6FF70FDF750FB71
S32D0001288841F60C30C1F6FF70FAF768FE42F2D820C1F6FF70FDF738F842F2DC20C1F6FF70FEF776F942F2783025
S32D000128B0C1F6FF70FBF750F842F2F830C1F6FF70FCF752FB42F29040C1F6FF70FCF74CFB42F22850C1F6FF70A1
S32D000128D8FCF746FB42F2C050C1F6FF70FCF740FB07F10807BD4680BD0000104180B500AF4FF001004FF6FF7194
S32D00012900FFF74CFF80BD00BF80B500AF42F60C42C1F6FF7241F22413C1F6FF73D31A194641F22413C1F6FF7367
S32D000129281A460B4610464FF000011A4608F051FB80BD00BF09F0C6FB00F0B0F9FFF7E0FF09F098FB09F034FBBD
S32D0001295009F0CCFB00F00CF84FF0000042F25861C1F6FF71FCF7E0FF0346184608F010FB80B500AF4FF4E0438B
S32D00012978C4F204034FF4E042C4F2040202F5805202F13802126842F4785203F5805303F138031A6000F02EF957
S32D000129A000F094F842F68803C1F6FF734FF058021A6042F68803C1F6FF731B684FF47A7202FB03F242F684033E
S32D000129C8C1F6FF731A6042F68403C1F6FF731B681A464FF4E043C4F2040303F5825303F104031B6803F070633E
S32D000129F04FEA136303F10103B2FBF3F31A4642F68C03C1F6FF731A604FF4E043C4F204034FF4E042C4F2040270
S32D00012A1802F5805202F13C02126842F0225203F5805303F13C031A604FF4E043C4F204034FF4E042C4F20402B9
S32D00012A4002F5805202F13002126842F0006203F5805303F130031A604FF45043C4F203034FF480721A614FF07E
S32D00012A68640002F085FB4FF45043C4F203034FF45042C4F20302526922F010025A614FF45043C4F203034FF0DC
S32D00012A9000021A604FF45043C4F203034FF010025A6103F00BFA03F0B3FA42F68000C1F6FF7002F0E5FB42F67D
S32D00012AB83C10C1F6FF7004F093F841F2883002F0C3FC80BD80B400AF4FF48043C4F206034FF000025A704FF42F
S32D00012AE08043C4F206034FF098021A704FF48043C4F206039B79DBB203F01003002B0CBF00230123DBB2002B81
S32D00012B08F0D14FF48043C4F206039B79DBB203F00C034FEA9303022B0CBF00230123DBB2002BEED14FF48043EA
S32D00012B30C4F206034FF018021A714FF48043C4F206034FF000025A714FF4E043C4F2040303F5825303F1040317
